
PRJ_start_gpio_led.elf:     file format elf32-littlearm

Sections:
Idx Name          Size      VMA       LMA       File off  Algn
  0 .isr_vector   000001f8  08000000  08000000  00010000  2**0
                  CONTENTS, ALLOC, LOAD, READONLY, DATA
  1 .text         000028ac  080001f8  080001f8  000101f8  2**2
                  CONTENTS, ALLOC, LOAD, READONLY, CODE
  2 .rodata       0000002c  08002aa4  08002aa4  00012aa4  2**0
                  CONTENTS, ALLOC, LOAD, READONLY, DATA
  3 .ARM          00000008  08002ad0  08002ad0  00012ad0  2**2
                  CONTENTS, ALLOC, LOAD, READONLY, DATA
  4 .init_array   00000004  08002ad8  08002ad8  00012ad8  2**2
                  CONTENTS, ALLOC, LOAD, DATA
  5 .fini_array   00000004  08002adc  08002adc  00012adc  2**2
                  CONTENTS, ALLOC, LOAD, DATA
  6 .data         0000000c  20000000  08002ae0  00020000  2**2
                  CONTENTS, ALLOC, LOAD, DATA
  7 .bss          0000052c  2000000c  08002aec  0002000c  2**2
                  ALLOC
  8 ._user_heap_stack 00000600  20000538  08002aec  00020538  2**0
                  ALLOC
  9 .ARM.attributes 0000002e  00000000  00000000  0002000c  2**0
                  CONTENTS, READONLY
 10 .debug_info   000170ed  00000000  00000000  0002003a  2**0
                  CONTENTS, READONLY, DEBUGGING
 11 .debug_abbrev 00003389  00000000  00000000  00037127  2**0
                  CONTENTS, READONLY, DEBUGGING
 12 .debug_loc    0000a369  00000000  00000000  0003a4b0  2**0
                  CONTENTS, READONLY, DEBUGGING
 13 .debug_aranges 00000e48  00000000  00000000  00044820  2**3
                  CONTENTS, READONLY, DEBUGGING
 14 .debug_ranges 000011c8  00000000  00000000  00045668  2**3
                  CONTENTS, READONLY, DEBUGGING
 15 .debug_line   00007bf7  00000000  00000000  00046830  2**0
                  CONTENTS, READONLY, DEBUGGING
 16 .debug_str    00005eac  00000000  00000000  0004e427  2**0
                  CONTENTS, READONLY, DEBUGGING
 17 .comment      0000007c  00000000  00000000  000542d3  2**0
                  CONTENTS, READONLY
 18 .debug_frame  000028f8  00000000  00000000  00054350  2**2
                  CONTENTS, READONLY, DEBUGGING

Disassembly of section .text:

080001f8 <__do_global_dtors_aux>:
 80001f8:	b510      	push	{r4, lr}
 80001fa:	4c05      	ldr	r4, [pc, #20]	; (8000210 <__do_global_dtors_aux+0x18>)
 80001fc:	7823      	ldrb	r3, [r4, #0]
 80001fe:	b933      	cbnz	r3, 800020e <__do_global_dtors_aux+0x16>
 8000200:	4b04      	ldr	r3, [pc, #16]	; (8000214 <__do_global_dtors_aux+0x1c>)
 8000202:	b113      	cbz	r3, 800020a <__do_global_dtors_aux+0x12>
 8000204:	4804      	ldr	r0, [pc, #16]	; (8000218 <__do_global_dtors_aux+0x20>)
 8000206:	f3af 8000 	nop.w
 800020a:	2301      	movs	r3, #1
 800020c:	7023      	strb	r3, [r4, #0]
 800020e:	bd10      	pop	{r4, pc}
 8000210:	2000000c 	.word	0x2000000c
 8000214:	00000000 	.word	0x00000000
 8000218:	08002a8c 	.word	0x08002a8c

0800021c <frame_dummy>:
 800021c:	b508      	push	{r3, lr}
 800021e:	4b03      	ldr	r3, [pc, #12]	; (800022c <frame_dummy+0x10>)
 8000220:	b11b      	cbz	r3, 800022a <frame_dummy+0xe>
 8000222:	4903      	ldr	r1, [pc, #12]	; (8000230 <frame_dummy+0x14>)
 8000224:	4803      	ldr	r0, [pc, #12]	; (8000234 <frame_dummy+0x18>)
 8000226:	f3af 8000 	nop.w
 800022a:	bd08      	pop	{r3, pc}
 800022c:	00000000 	.word	0x00000000
 8000230:	20000010 	.word	0x20000010
 8000234:	08002a8c 	.word	0x08002a8c

08000238 <__aeabi_uldivmod>:
 8000238:	b953      	cbnz	r3, 8000250 <__aeabi_uldivmod+0x18>
 800023a:	b94a      	cbnz	r2, 8000250 <__aeabi_uldivmod+0x18>
 800023c:	2900      	cmp	r1, #0
 800023e:	bf08      	it	eq
 8000240:	2800      	cmpeq	r0, #0
 8000242:	bf1c      	itt	ne
 8000244:	f04f 31ff 	movne.w	r1, #4294967295
 8000248:	f04f 30ff 	movne.w	r0, #4294967295
 800024c:	f000 b97a 	b.w	8000544 <__aeabi_idiv0>
 8000250:	f1ad 0c08 	sub.w	ip, sp, #8
 8000254:	e96d ce04 	strd	ip, lr, [sp, #-16]!
 8000258:	f000 f806 	bl	8000268 <__udivmoddi4>
 800025c:	f8dd e004 	ldr.w	lr, [sp, #4]
 8000260:	e9dd 2302 	ldrd	r2, r3, [sp, #8]
 8000264:	b004      	add	sp, #16
 8000266:	4770      	bx	lr

08000268 <__udivmoddi4>:
 8000268:	e92d 47f0 	stmdb	sp!, {r4, r5, r6, r7, r8, r9, sl, lr}
 800026c:	468c      	mov	ip, r1
 800026e:	460d      	mov	r5, r1
 8000270:	4604      	mov	r4, r0
 8000272:	9e08      	ldr	r6, [sp, #32]
 8000274:	2b00      	cmp	r3, #0
 8000276:	d151      	bne.n	800031c <__udivmoddi4+0xb4>
 8000278:	428a      	cmp	r2, r1
 800027a:	4617      	mov	r7, r2
 800027c:	d96d      	bls.n	800035a <__udivmoddi4+0xf2>
 800027e:	fab2 fe82 	clz	lr, r2
 8000282:	f1be 0f00 	cmp.w	lr, #0
 8000286:	d00b      	beq.n	80002a0 <__udivmoddi4+0x38>
 8000288:	f1ce 0c20 	rsb	ip, lr, #32
 800028c:	fa01 f50e 	lsl.w	r5, r1, lr
 8000290:	fa20 fc0c 	lsr.w	ip, r0, ip
 8000294:	fa02 f70e 	lsl.w	r7, r2, lr
 8000298:	ea4c 0c05 	orr.w	ip, ip, r5
 800029c:	fa00 f40e 	lsl.w	r4, r0, lr
 80002a0:	ea4f 4a17 	mov.w	sl, r7, lsr #16
 80002a4:	0c25      	lsrs	r5, r4, #16
 80002a6:	fbbc f8fa 	udiv	r8, ip, sl
 80002aa:	fa1f f987 	uxth.w	r9, r7
 80002ae:	fb0a cc18 	mls	ip, sl, r8, ip
 80002b2:	ea45 450c 	orr.w	r5, r5, ip, lsl #16
 80002b6:	fb08 f309 	mul.w	r3, r8, r9
 80002ba:	42ab      	cmp	r3, r5
 80002bc:	d90a      	bls.n	80002d4 <__udivmoddi4+0x6c>
 80002be:	19ed      	adds	r5, r5, r7
 80002c0:	f108 32ff 	add.w	r2, r8, #4294967295
 80002c4:	f080 8123 	bcs.w	800050e <__udivmoddi4+0x2a6>
 80002c8:	42ab      	cmp	r3, r5
 80002ca:	f240 8120 	bls.w	800050e <__udivmoddi4+0x2a6>
 80002ce:	f1a8 0802 	sub.w	r8, r8, #2
 80002d2:	443d      	add	r5, r7
 80002d4:	1aed      	subs	r5, r5, r3
 80002d6:	b2a4      	uxth	r4, r4
 80002d8:	fbb5 f0fa 	udiv	r0, r5, sl
 80002dc:	fb0a 5510 	mls	r5, sl, r0, r5
 80002e0:	ea44 4405 	orr.w	r4, r4, r5, lsl #16
 80002e4:	fb00 f909 	mul.w	r9, r0, r9
 80002e8:	45a1      	cmp	r9, r4
 80002ea:	d909      	bls.n	8000300 <__udivmoddi4+0x98>
 80002ec:	19e4      	adds	r4, r4, r7
 80002ee:	f100 33ff 	add.w	r3, r0, #4294967295
 80002f2:	f080 810a 	bcs.w	800050a <__udivmoddi4+0x2a2>
 80002f6:	45a1      	cmp	r9, r4
 80002f8:	f240 8107 	bls.w	800050a <__udivmoddi4+0x2a2>
 80002fc:	3802      	subs	r0, #2
 80002fe:	443c      	add	r4, r7
 8000300:	eba4 0409 	sub.w	r4, r4, r9
 8000304:	ea40 4008 	orr.w	r0, r0, r8, lsl #16
 8000308:	2100      	movs	r1, #0
 800030a:	2e00      	cmp	r6, #0
 800030c:	d061      	beq.n	80003d2 <__udivmoddi4+0x16a>
 800030e:	fa24 f40e 	lsr.w	r4, r4, lr
 8000312:	2300      	movs	r3, #0
 8000314:	6034      	str	r4, [r6, #0]
 8000316:	6073      	str	r3, [r6, #4]
 8000318:	e8bd 87f0 	ldmia.w	sp!, {r4, r5, r6, r7, r8, r9, sl, pc}
 800031c:	428b      	cmp	r3, r1
 800031e:	d907      	bls.n	8000330 <__udivmoddi4+0xc8>
 8000320:	2e00      	cmp	r6, #0
 8000322:	d054      	beq.n	80003ce <__udivmoddi4+0x166>
 8000324:	2100      	movs	r1, #0
 8000326:	e886 0021 	stmia.w	r6, {r0, r5}
 800032a:	4608      	mov	r0, r1
 800032c:	e8bd 87f0 	ldmia.w	sp!, {r4, r5, r6, r7, r8, r9, sl, pc}
 8000330:	fab3 f183 	clz	r1, r3
 8000334:	2900      	cmp	r1, #0
 8000336:	f040 808e 	bne.w	8000456 <__udivmoddi4+0x1ee>
 800033a:	42ab      	cmp	r3, r5
 800033c:	d302      	bcc.n	8000344 <__udivmoddi4+0xdc>
 800033e:	4282      	cmp	r2, r0
 8000340:	f200 80fa 	bhi.w	8000538 <__udivmoddi4+0x2d0>
 8000344:	1a84      	subs	r4, r0, r2
 8000346:	eb65 0503 	sbc.w	r5, r5, r3
 800034a:	2001      	movs	r0, #1
 800034c:	46ac      	mov	ip, r5
 800034e:	2e00      	cmp	r6, #0
 8000350:	d03f      	beq.n	80003d2 <__udivmoddi4+0x16a>
 8000352:	e886 1010 	stmia.w	r6, {r4, ip}
 8000356:	e8bd 87f0 	ldmia.w	sp!, {r4, r5, r6, r7, r8, r9, sl, pc}
 800035a:	b912      	cbnz	r2, 8000362 <__udivmoddi4+0xfa>
 800035c:	2701      	movs	r7, #1
 800035e:	fbb7 f7f2 	udiv	r7, r7, r2
 8000362:	fab7 fe87 	clz	lr, r7
 8000366:	f1be 0f00 	cmp.w	lr, #0
 800036a:	d134      	bne.n	80003d6 <__udivmoddi4+0x16e>
 800036c:	1beb      	subs	r3, r5, r7
 800036e:	0c3a      	lsrs	r2, r7, #16
 8000370:	fa1f fc87 	uxth.w	ip, r7
 8000374:	2101      	movs	r1, #1
 8000376:	fbb3 f8f2 	udiv	r8, r3, r2
 800037a:	0c25      	lsrs	r5, r4, #16
 800037c:	fb02 3318 	mls	r3, r2, r8, r3
 8000380:	ea45 4503 	orr.w	r5, r5, r3, lsl #16
 8000384:	fb0c f308 	mul.w	r3, ip, r8
 8000388:	42ab      	cmp	r3, r5
 800038a:	d907      	bls.n	800039c <__udivmoddi4+0x134>
 800038c:	19ed      	adds	r5, r5, r7
 800038e:	f108 30ff 	add.w	r0, r8, #4294967295
 8000392:	d202      	bcs.n	800039a <__udivmoddi4+0x132>
 8000394:	42ab      	cmp	r3, r5
 8000396:	f200 80d1 	bhi.w	800053c <__udivmoddi4+0x2d4>
 800039a:	4680      	mov	r8, r0
 800039c:	1aed      	subs	r5, r5, r3
 800039e:	b2a3      	uxth	r3, r4
 80003a0:	fbb5 f0f2 	udiv	r0, r5, r2
 80003a4:	fb02 5510 	mls	r5, r2, r0, r5
 80003a8:	ea43 4405 	orr.w	r4, r3, r5, lsl #16
 80003ac:	fb0c fc00 	mul.w	ip, ip, r0
 80003b0:	45a4      	cmp	ip, r4
 80003b2:	d907      	bls.n	80003c4 <__udivmoddi4+0x15c>
 80003b4:	19e4      	adds	r4, r4, r7
 80003b6:	f100 33ff 	add.w	r3, r0, #4294967295
 80003ba:	d202      	bcs.n	80003c2 <__udivmoddi4+0x15a>
 80003bc:	45a4      	cmp	ip, r4
 80003be:	f200 80b8 	bhi.w	8000532 <__udivmoddi4+0x2ca>
 80003c2:	4618      	mov	r0, r3
 80003c4:	eba4 040c 	sub.w	r4, r4, ip
 80003c8:	ea40 4008 	orr.w	r0, r0, r8, lsl #16
 80003cc:	e79d      	b.n	800030a <__udivmoddi4+0xa2>
 80003ce:	4631      	mov	r1, r6
 80003d0:	4630      	mov	r0, r6
 80003d2:	e8bd 87f0 	ldmia.w	sp!, {r4, r5, r6, r7, r8, r9, sl, pc}
 80003d6:	f1ce 0420 	rsb	r4, lr, #32
 80003da:	fa05 f30e 	lsl.w	r3, r5, lr
 80003de:	fa07 f70e 	lsl.w	r7, r7, lr
 80003e2:	fa20 f804 	lsr.w	r8, r0, r4
 80003e6:	0c3a      	lsrs	r2, r7, #16
 80003e8:	fa25 f404 	lsr.w	r4, r5, r4
 80003ec:	ea48 0803 	orr.w	r8, r8, r3
 80003f0:	fbb4 f1f2 	udiv	r1, r4, r2
 80003f4:	ea4f 4518 	mov.w	r5, r8, lsr #16
 80003f8:	fb02 4411 	mls	r4, r2, r1, r4
 80003fc:	fa1f fc87 	uxth.w	ip, r7
 8000400:	ea45 4504 	orr.w	r5, r5, r4, lsl #16
 8000404:	fb01 f30c 	mul.w	r3, r1, ip
 8000408:	42ab      	cmp	r3, r5
 800040a:	fa00 f40e 	lsl.w	r4, r0, lr
 800040e:	d909      	bls.n	8000424 <__udivmoddi4+0x1bc>
 8000410:	19ed      	adds	r5, r5, r7
 8000412:	f101 30ff 	add.w	r0, r1, #4294967295
 8000416:	f080 808a 	bcs.w	800052e <__udivmoddi4+0x2c6>
 800041a:	42ab      	cmp	r3, r5
 800041c:	f240 8087 	bls.w	800052e <__udivmoddi4+0x2c6>
 8000420:	3902      	subs	r1, #2
 8000422:	443d      	add	r5, r7
 8000424:	1aeb      	subs	r3, r5, r3
 8000426:	fa1f f588 	uxth.w	r5, r8
 800042a:	fbb3 f0f2 	udiv	r0, r3, r2
 800042e:	fb02 3310 	mls	r3, r2, r0, r3
 8000432:	ea45 4503 	orr.w	r5, r5, r3, lsl #16
 8000436:	fb00 f30c 	mul.w	r3, r0, ip
 800043a:	42ab      	cmp	r3, r5
 800043c:	d907      	bls.n	800044e <__udivmoddi4+0x1e6>
 800043e:	19ed      	adds	r5, r5, r7
 8000440:	f100 38ff 	add.w	r8, r0, #4294967295
 8000444:	d26f      	bcs.n	8000526 <__udivmoddi4+0x2be>
 8000446:	42ab      	cmp	r3, r5
 8000448:	d96d      	bls.n	8000526 <__udivmoddi4+0x2be>
 800044a:	3802      	subs	r0, #2
 800044c:	443d      	add	r5, r7
 800044e:	1aeb      	subs	r3, r5, r3
 8000450:	ea40 4101 	orr.w	r1, r0, r1, lsl #16
 8000454:	e78f      	b.n	8000376 <__udivmoddi4+0x10e>
 8000456:	f1c1 0720 	rsb	r7, r1, #32
 800045a:	fa22 f807 	lsr.w	r8, r2, r7
 800045e:	408b      	lsls	r3, r1
 8000460:	fa05 f401 	lsl.w	r4, r5, r1
 8000464:	ea48 0303 	orr.w	r3, r8, r3
 8000468:	fa20 fe07 	lsr.w	lr, r0, r7
 800046c:	ea4f 4c13 	mov.w	ip, r3, lsr #16
 8000470:	40fd      	lsrs	r5, r7
 8000472:	ea4e 0e04 	orr.w	lr, lr, r4
 8000476:	fbb5 f9fc 	udiv	r9, r5, ip
 800047a:	ea4f 441e 	mov.w	r4, lr, lsr #16
 800047e:	fb0c 5519 	mls	r5, ip, r9, r5
 8000482:	fa1f f883 	uxth.w	r8, r3
 8000486:	ea44 4505 	orr.w	r5, r4, r5, lsl #16
 800048a:	fb09 f408 	mul.w	r4, r9, r8
 800048e:	42ac      	cmp	r4, r5
 8000490:	fa02 f201 	lsl.w	r2, r2, r1
 8000494:	fa00 fa01 	lsl.w	sl, r0, r1
 8000498:	d908      	bls.n	80004ac <__udivmoddi4+0x244>
 800049a:	18ed      	adds	r5, r5, r3
 800049c:	f109 30ff 	add.w	r0, r9, #4294967295
 80004a0:	d243      	bcs.n	800052a <__udivmoddi4+0x2c2>
 80004a2:	42ac      	cmp	r4, r5
 80004a4:	d941      	bls.n	800052a <__udivmoddi4+0x2c2>
 80004a6:	f1a9 0902 	sub.w	r9, r9, #2
 80004aa:	441d      	add	r5, r3
 80004ac:	1b2d      	subs	r5, r5, r4
 80004ae:	fa1f fe8e 	uxth.w	lr, lr
 80004b2:	fbb5 f0fc 	udiv	r0, r5, ip
 80004b6:	fb0c 5510 	mls	r5, ip, r0, r5
 80004ba:	ea4e 4405 	orr.w	r4, lr, r5, lsl #16
 80004be:	fb00 f808 	mul.w	r8, r0, r8
 80004c2:	45a0      	cmp	r8, r4
 80004c4:	d907      	bls.n	80004d6 <__udivmoddi4+0x26e>
 80004c6:	18e4      	adds	r4, r4, r3
 80004c8:	f100 35ff 	add.w	r5, r0, #4294967295
 80004cc:	d229      	bcs.n	8000522 <__udivmoddi4+0x2ba>
 80004ce:	45a0      	cmp	r8, r4
 80004d0:	d927      	bls.n	8000522 <__udivmoddi4+0x2ba>
 80004d2:	3802      	subs	r0, #2
 80004d4:	441c      	add	r4, r3
 80004d6:	ea40 4009 	orr.w	r0, r0, r9, lsl #16
 80004da:	eba4 0408 	sub.w	r4, r4, r8
 80004de:	fba0 8902 	umull	r8, r9, r0, r2
 80004e2:	454c      	cmp	r4, r9
 80004e4:	46c6      	mov	lr, r8
 80004e6:	464d      	mov	r5, r9
 80004e8:	d315      	bcc.n	8000516 <__udivmoddi4+0x2ae>
 80004ea:	d012      	beq.n	8000512 <__udivmoddi4+0x2aa>
 80004ec:	b156      	cbz	r6, 8000504 <__udivmoddi4+0x29c>
 80004ee:	ebba 030e 	subs.w	r3, sl, lr
 80004f2:	eb64 0405 	sbc.w	r4, r4, r5
 80004f6:	fa04 f707 	lsl.w	r7, r4, r7
 80004fa:	40cb      	lsrs	r3, r1
 80004fc:	431f      	orrs	r7, r3
 80004fe:	40cc      	lsrs	r4, r1
 8000500:	6037      	str	r7, [r6, #0]
 8000502:	6074      	str	r4, [r6, #4]
 8000504:	2100      	movs	r1, #0
 8000506:	e8bd 87f0 	ldmia.w	sp!, {r4, r5, r6, r7, r8, r9, sl, pc}
 800050a:	4618      	mov	r0, r3
 800050c:	e6f8      	b.n	8000300 <__udivmoddi4+0x98>
 800050e:	4690      	mov	r8, r2
 8000510:	e6e0      	b.n	80002d4 <__udivmoddi4+0x6c>
 8000512:	45c2      	cmp	sl, r8
 8000514:	d2ea      	bcs.n	80004ec <__udivmoddi4+0x284>
 8000516:	ebb8 0e02 	subs.w	lr, r8, r2
 800051a:	eb69 0503 	sbc.w	r5, r9, r3
 800051e:	3801      	subs	r0, #1
 8000520:	e7e4      	b.n	80004ec <__udivmoddi4+0x284>
 8000522:	4628      	mov	r0, r5
 8000524:	e7d7      	b.n	80004d6 <__udivmoddi4+0x26e>
 8000526:	4640      	mov	r0, r8
 8000528:	e791      	b.n	800044e <__udivmoddi4+0x1e6>
 800052a:	4681      	mov	r9, r0
 800052c:	e7be      	b.n	80004ac <__udivmoddi4+0x244>
 800052e:	4601      	mov	r1, r0
 8000530:	e778      	b.n	8000424 <__udivmoddi4+0x1bc>
 8000532:	3802      	subs	r0, #2
 8000534:	443c      	add	r4, r7
 8000536:	e745      	b.n	80003c4 <__udivmoddi4+0x15c>
 8000538:	4608      	mov	r0, r1
 800053a:	e708      	b.n	800034e <__udivmoddi4+0xe6>
 800053c:	f1a8 0802 	sub.w	r8, r8, #2
 8000540:	443d      	add	r5, r7
 8000542:	e72b      	b.n	800039c <__udivmoddi4+0x134>

08000544 <__aeabi_idiv0>:
 8000544:	4770      	bx	lr
 8000546:	bf00      	nop

08000548 <HAL_InitTick>:
  *       implementation  in user file.
  * @param TickPriority Tick interrupt priority.
  * @retval HAL status
  */
__weak HAL_StatusTypeDef HAL_InitTick(uint32_t TickPriority)
{
 8000548:	b538      	push	{r3, r4, r5, lr}
  /* Configure the SysTick to have interrupt in 1ms time basis*/
  if (HAL_SYSTICK_Config(SystemCoreClock / (1000U / uwTickFreq)) > 0U)
 800054a:	4b0e      	ldr	r3, [pc, #56]	; (8000584 <HAL_InitTick+0x3c>)
{
 800054c:	4605      	mov	r5, r0
  if (HAL_SYSTICK_Config(SystemCoreClock / (1000U / uwTickFreq)) > 0U)
 800054e:	4a0e      	ldr	r2, [pc, #56]	; (8000588 <HAL_InitTick+0x40>)
 8000550:	7818      	ldrb	r0, [r3, #0]
 8000552:	f44f 737a 	mov.w	r3, #1000	; 0x3e8
 8000556:	fbb3 f3f0 	udiv	r3, r3, r0
 800055a:	6810      	ldr	r0, [r2, #0]
 800055c:	fbb0 f0f3 	udiv	r0, r0, r3
 8000560:	f000 f89e 	bl	80006a0 <HAL_SYSTICK_Config>
 8000564:	4604      	mov	r4, r0
 8000566:	b958      	cbnz	r0, 8000580 <HAL_InitTick+0x38>
  {
    return HAL_ERROR;
  }

  /* Configure the SysTick IRQ priority */
  if (TickPriority < (1UL << __NVIC_PRIO_BITS))
 8000568:	2d0f      	cmp	r5, #15
 800056a:	d809      	bhi.n	8000580 <HAL_InitTick+0x38>
  {
    HAL_NVIC_SetPriority(SysTick_IRQn, TickPriority, 0U);
 800056c:	4602      	mov	r2, r0
 800056e:	4629      	mov	r1, r5
 8000570:	f04f 30ff 	mov.w	r0, #4294967295
 8000574:	f000 f84e 	bl	8000614 <HAL_NVIC_SetPriority>
    uwTickPrio = TickPriority;
 8000578:	4b04      	ldr	r3, [pc, #16]	; (800058c <HAL_InitTick+0x44>)
 800057a:	4620      	mov	r0, r4
 800057c:	601d      	str	r5, [r3, #0]
 800057e:	bd38      	pop	{r3, r4, r5, pc}
    return HAL_ERROR;
 8000580:	2001      	movs	r0, #1
    return HAL_ERROR;
  }

  /* Return function status */
  return HAL_OK;
}
 8000582:	bd38      	pop	{r3, r4, r5, pc}
 8000584:	20000000 	.word	0x20000000
 8000588:	20000008 	.word	0x20000008
 800058c:	20000004 	.word	0x20000004

08000590 <HAL_Init>:
{
 8000590:	b508      	push	{r3, lr}
  HAL_NVIC_SetPriorityGrouping(NVIC_PRIORITYGROUP_4);
 8000592:	2003      	movs	r0, #3
 8000594:	f000 f82c 	bl	80005f0 <HAL_NVIC_SetPriorityGrouping>
  HAL_InitTick(TICK_INT_PRIORITY);
 8000598:	2000      	movs	r0, #0
 800059a:	f7ff ffd5 	bl	8000548 <HAL_InitTick>
  HAL_MspInit();
 800059e:	f002 f8c5 	bl	800272c <HAL_MspInit>
}
 80005a2:	2000      	movs	r0, #0
 80005a4:	bd08      	pop	{r3, pc}
	...

080005a8 <HAL_IncTick>:
  *      implementations in user file.
  * @retval None
  */
__weak void HAL_IncTick(void)
{
  uwTick += uwTickFreq;
 80005a8:	4a03      	ldr	r2, [pc, #12]	; (80005b8 <HAL_IncTick+0x10>)
 80005aa:	4b04      	ldr	r3, [pc, #16]	; (80005bc <HAL_IncTick+0x14>)
 80005ac:	6811      	ldr	r1, [r2, #0]
 80005ae:	781b      	ldrb	r3, [r3, #0]
 80005b0:	440b      	add	r3, r1
 80005b2:	6013      	str	r3, [r2, #0]
 80005b4:	4770      	bx	lr
 80005b6:	bf00      	nop
 80005b8:	20000028 	.word	0x20000028
 80005bc:	20000000 	.word	0x20000000

080005c0 <HAL_GetTick>:
  *       implementations in user file.
  * @retval tick value
  */
__weak uint32_t HAL_GetTick(void)
{
  return uwTick;
 80005c0:	4b01      	ldr	r3, [pc, #4]	; (80005c8 <HAL_GetTick+0x8>)
 80005c2:	6818      	ldr	r0, [r3, #0]
}
 80005c4:	4770      	bx	lr
 80005c6:	bf00      	nop
 80005c8:	20000028 	.word	0x20000028

080005cc <HAL_Delay>:
  *       implementations in user file.
  * @param Delay  specifies the delay time length, in milliseconds.
  * @retval None
  */
__weak void HAL_Delay(uint32_t Delay)
{
 80005cc:	b538      	push	{r3, r4, r5, lr}
 80005ce:	4604      	mov	r4, r0
  uint32_t tickstart = HAL_GetTick();
 80005d0:	f7ff fff6 	bl	80005c0 <HAL_GetTick>
 80005d4:	4605      	mov	r5, r0
  uint32_t wait = Delay;

  /* Add a freq to guarantee minimum wait */
  if (wait < HAL_MAX_DELAY)
 80005d6:	1c63      	adds	r3, r4, #1
  {
    wait += (uint32_t)(uwTickFreq);
 80005d8:	bf1e      	ittt	ne
 80005da:	4b04      	ldrne	r3, [pc, #16]	; (80005ec <HAL_Delay+0x20>)
 80005dc:	781b      	ldrbne	r3, [r3, #0]
 80005de:	18e4      	addne	r4, r4, r3
  }

  while ((HAL_GetTick() - tickstart) < wait)
 80005e0:	f7ff ffee 	bl	80005c0 <HAL_GetTick>
 80005e4:	1b40      	subs	r0, r0, r5
 80005e6:	4284      	cmp	r4, r0
 80005e8:	d8fa      	bhi.n	80005e0 <HAL_Delay+0x14>
  {
  }
}
 80005ea:	bd38      	pop	{r3, r4, r5, pc}
 80005ec:	20000000 	.word	0x20000000

080005f0 <HAL_NVIC_SetPriorityGrouping>:
__STATIC_INLINE void __NVIC_SetPriorityGrouping(uint32_t PriorityGroup)
{
  uint32_t reg_value;
  uint32_t PriorityGroupTmp = (PriorityGroup & (uint32_t)0x07UL);             /* only values 0..7 are used          */

  reg_value  =  SCB->AIRCR;                                                   /* read old register configuration    */
 80005f0:	4a07      	ldr	r2, [pc, #28]	; (8000610 <HAL_NVIC_SetPriorityGrouping+0x20>)
  reg_value &= ~((uint32_t)(SCB_AIRCR_VECTKEY_Msk | SCB_AIRCR_PRIGROUP_Msk)); /* clear bits to change               */
  reg_value  =  (reg_value                                   |
                ((uint32_t)0x5FAUL << SCB_AIRCR_VECTKEY_Pos) |
                (PriorityGroupTmp << SCB_AIRCR_PRIGROUP_Pos)  );              /* Insert write key and priority group */
 80005f2:	0200      	lsls	r0, r0, #8
  reg_value  =  SCB->AIRCR;                                                   /* read old register configuration    */
 80005f4:	68d3      	ldr	r3, [r2, #12]
                (PriorityGroupTmp << SCB_AIRCR_PRIGROUP_Pos)  );              /* Insert write key and priority group */
 80005f6:	f400 60e0 	and.w	r0, r0, #1792	; 0x700
  reg_value &= ~((uint32_t)(SCB_AIRCR_VECTKEY_Msk | SCB_AIRCR_PRIGROUP_Msk)); /* clear bits to change               */
 80005fa:	f423 63e0 	bic.w	r3, r3, #1792	; 0x700
 80005fe:	041b      	lsls	r3, r3, #16
 8000600:	0c1b      	lsrs	r3, r3, #16
 8000602:	f043 63bf 	orr.w	r3, r3, #100139008	; 0x5f80000
 8000606:	f443 3300 	orr.w	r3, r3, #131072	; 0x20000
  reg_value  =  (reg_value                                   |
 800060a:	4303      	orrs	r3, r0
  SCB->AIRCR =  reg_value;
 800060c:	60d3      	str	r3, [r2, #12]
 800060e:	4770      	bx	lr
 8000610:	e000ed00 	.word	0xe000ed00

08000614 <HAL_NVIC_SetPriority>:
  \details Reads the priority grouping field from the NVIC Interrupt Controller.
  \return                Priority grouping field (SCB->AIRCR [10:8] PRIGROUP field).
 */
__STATIC_INLINE uint32_t __NVIC_GetPriorityGrouping(void)
{
  return ((uint32_t)((SCB->AIRCR & SCB_AIRCR_PRIGROUP_Msk) >> SCB_AIRCR_PRIGROUP_Pos));
 8000614:	4b19      	ldr	r3, [pc, #100]	; (800067c <HAL_NVIC_SetPriority+0x68>)
  *         This parameter can be a value between 0 and 15
  *         A lower priority value indicates a higher priority.          
  * @retval None
  */
void HAL_NVIC_SetPriority(IRQn_Type IRQn, uint32_t PreemptPriority, uint32_t SubPriority)
{ 
 8000616:	b530      	push	{r4, r5, lr}
 8000618:	68dc      	ldr	r4, [r3, #12]
 800061a:	f3c4 2402 	ubfx	r4, r4, #8, #3
{
  uint32_t PriorityGroupTmp = (PriorityGroup & (uint32_t)0x07UL);   /* only values 0..7 are used          */
  uint32_t PreemptPriorityBits;
  uint32_t SubPriorityBits;

  PreemptPriorityBits = ((7UL - PriorityGroupTmp) > (uint32_t)(__NVIC_PRIO_BITS)) ? (uint32_t)(__NVIC_PRIO_BITS) : (uint32_t)(7UL - PriorityGroupTmp);
 800061e:	f1c4 0307 	rsb	r3, r4, #7
  SubPriorityBits     = ((PriorityGroupTmp + (uint32_t)(__NVIC_PRIO_BITS)) < (uint32_t)7UL) ? (uint32_t)0UL : (uint32_t)((PriorityGroupTmp - 7UL) + (uint32_t)(__NVIC_PRIO_BITS));
 8000622:	1d25      	adds	r5, r4, #4
  PreemptPriorityBits = ((7UL - PriorityGroupTmp) > (uint32_t)(__NVIC_PRIO_BITS)) ? (uint32_t)(__NVIC_PRIO_BITS) : (uint32_t)(7UL - PriorityGroupTmp);
 8000624:	2b04      	cmp	r3, #4
 8000626:	bf28      	it	cs
 8000628:	2304      	movcs	r3, #4
  SubPriorityBits     = ((PriorityGroupTmp + (uint32_t)(__NVIC_PRIO_BITS)) < (uint32_t)7UL) ? (uint32_t)0UL : (uint32_t)((PriorityGroupTmp - 7UL) + (uint32_t)(__NVIC_PRIO_BITS));
 800062a:	2d06      	cmp	r5, #6

  return (
           ((PreemptPriority & (uint32_t)((1UL << (PreemptPriorityBits)) - 1UL)) << SubPriorityBits) |
 800062c:	f04f 0501 	mov.w	r5, #1
  SubPriorityBits     = ((PriorityGroupTmp + (uint32_t)(__NVIC_PRIO_BITS)) < (uint32_t)7UL) ? (uint32_t)0UL : (uint32_t)((PriorityGroupTmp - 7UL) + (uint32_t)(__NVIC_PRIO_BITS));
 8000630:	bf8c      	ite	hi
 8000632:	3c03      	subhi	r4, #3
 8000634:	2400      	movls	r4, #0
           ((PreemptPriority & (uint32_t)((1UL << (PreemptPriorityBits)) - 1UL)) << SubPriorityBits) |
 8000636:	fa05 f303 	lsl.w	r3, r5, r3
  if ((int32_t)(IRQn) >= 0)
 800063a:	2800      	cmp	r0, #0
           ((PreemptPriority & (uint32_t)((1UL << (PreemptPriorityBits)) - 1UL)) << SubPriorityBits) |
 800063c:	f103 33ff 	add.w	r3, r3, #4294967295
 8000640:	ea01 0103 	and.w	r1, r1, r3
 8000644:	fa01 f104 	lsl.w	r1, r1, r4
           ((SubPriority     & (uint32_t)((1UL << (SubPriorityBits    )) - 1UL)))
 8000648:	fa05 f404 	lsl.w	r4, r5, r4
 800064c:	f104 34ff 	add.w	r4, r4, #4294967295
 8000650:	ea02 0204 	and.w	r2, r2, r4
           ((PreemptPriority & (uint32_t)((1UL << (PreemptPriorityBits)) - 1UL)) << SubPriorityBits) |
 8000654:	ea42 0201 	orr.w	r2, r2, r1
 8000658:	ea4f 1202 	mov.w	r2, r2, lsl #4
  if ((int32_t)(IRQn) >= 0)
 800065c:	db07      	blt.n	800066e <HAL_NVIC_SetPriority+0x5a>
    NVIC->IP[((uint32_t)IRQn)]                = (uint8_t)((priority << (8U - __NVIC_PRIO_BITS)) & (uint32_t)0xFFUL);
 800065e:	f100 4060 	add.w	r0, r0, #3758096384	; 0xe0000000
 8000662:	b2d2      	uxtb	r2, r2
 8000664:	f500 4061 	add.w	r0, r0, #57600	; 0xe100
 8000668:	f880 2300 	strb.w	r2, [r0, #768]	; 0x300
 800066c:	bd30      	pop	{r4, r5, pc}
    SCB->SHPR[(((uint32_t)IRQn) & 0xFUL)-4UL] = (uint8_t)((priority << (8U - __NVIC_PRIO_BITS)) & (uint32_t)0xFFUL);
 800066e:	f000 000f 	and.w	r0, r0, #15
 8000672:	b2d2      	uxtb	r2, r2
 8000674:	4b02      	ldr	r3, [pc, #8]	; (8000680 <HAL_NVIC_SetPriority+0x6c>)
 8000676:	541a      	strb	r2, [r3, r0]
 8000678:	bd30      	pop	{r4, r5, pc}
 800067a:	bf00      	nop
 800067c:	e000ed00 	.word	0xe000ed00
 8000680:	e000ed14 	.word	0xe000ed14

08000684 <HAL_NVIC_EnableIRQ>:
  if ((int32_t)(IRQn) >= 0)
 8000684:	2800      	cmp	r0, #0
 8000686:	db08      	blt.n	800069a <HAL_NVIC_EnableIRQ+0x16>
    NVIC->ISER[(((uint32_t)IRQn) >> 5UL)] = (uint32_t)(1UL << (((uint32_t)IRQn) & 0x1FUL));
 8000688:	0942      	lsrs	r2, r0, #5
 800068a:	2301      	movs	r3, #1
 800068c:	f000 001f 	and.w	r0, r0, #31
 8000690:	fa03 f000 	lsl.w	r0, r3, r0
 8000694:	4b01      	ldr	r3, [pc, #4]	; (800069c <HAL_NVIC_EnableIRQ+0x18>)
 8000696:	f843 0022 	str.w	r0, [r3, r2, lsl #2]
 800069a:	4770      	bx	lr
 800069c:	e000e100 	.word	0xe000e100

080006a0 <HAL_SYSTICK_Config>:
           function <b>SysTick_Config</b> is not included. In this case, the file <b><i>device</i>.h</b>
           must contain a vendor-specific implementation of this function.
 */
__STATIC_INLINE uint32_t SysTick_Config(uint32_t ticks)
{
  if ((ticks - 1UL) > SysTick_LOAD_RELOAD_Msk)
 80006a0:	3801      	subs	r0, #1
 80006a2:	f1b0 7f80 	cmp.w	r0, #16777216	; 0x1000000
 80006a6:	d20a      	bcs.n	80006be <HAL_SYSTICK_Config+0x1e>
  {
    return (1UL);                                                   /* Reload value impossible */
  }

  SysTick->LOAD  = (uint32_t)(ticks - 1UL);                         /* set reload register */
 80006a8:	4b06      	ldr	r3, [pc, #24]	; (80006c4 <HAL_SYSTICK_Config+0x24>)
    SCB->SHPR[(((uint32_t)IRQn) & 0xFUL)-4UL] = (uint8_t)((priority << (8U - __NVIC_PRIO_BITS)) & (uint32_t)0xFFUL);
 80006aa:	21f0      	movs	r1, #240	; 0xf0
 80006ac:	4a06      	ldr	r2, [pc, #24]	; (80006c8 <HAL_SYSTICK_Config+0x28>)
  SysTick->LOAD  = (uint32_t)(ticks - 1UL);                         /* set reload register */
 80006ae:	6058      	str	r0, [r3, #4]
  NVIC_SetPriority (SysTick_IRQn, (1UL << __NVIC_PRIO_BITS) - 1UL); /* set Priority for Systick Interrupt */
  SysTick->VAL   = 0UL;                                             /* Load the SysTick Counter Value */
 80006b0:	2000      	movs	r0, #0
    SCB->SHPR[(((uint32_t)IRQn) & 0xFUL)-4UL] = (uint8_t)((priority << (8U - __NVIC_PRIO_BITS)) & (uint32_t)0xFFUL);
 80006b2:	f882 1023 	strb.w	r1, [r2, #35]	; 0x23
  SysTick->CTRL  = SysTick_CTRL_CLKSOURCE_Msk |
 80006b6:	2207      	movs	r2, #7
  SysTick->VAL   = 0UL;                                             /* Load the SysTick Counter Value */
 80006b8:	6098      	str	r0, [r3, #8]
  SysTick->CTRL  = SysTick_CTRL_CLKSOURCE_Msk |
 80006ba:	601a      	str	r2, [r3, #0]
 80006bc:	4770      	bx	lr
    return (1UL);                                                   /* Reload value impossible */
 80006be:	2001      	movs	r0, #1
  *                  - 1  Function failed.
  */
uint32_t HAL_SYSTICK_Config(uint32_t TicksNumb)
{
   return SysTick_Config(TicksNumb);
}
 80006c0:	4770      	bx	lr
 80006c2:	bf00      	nop
 80006c4:	e000e010 	.word	0xe000e010
 80006c8:	e000ed00 	.word	0xe000ed00

080006cc <ETH_MACDMAConfig>:
  *         the configuration information for ETHERNET module
  * @param  err Ethernet Init error
  * @retval HAL status
  */
static void ETH_MACDMAConfig(ETH_HandleTypeDef *heth, uint32_t err)
{
 80006cc:	b570      	push	{r4, r5, r6, lr}
 80006ce:	4604      	mov	r4, r0
  ETH_MACInitTypeDef macinit;
  ETH_DMAInitTypeDef dmainit;
  uint32_t tmpreg = 0;
  
  if (err != ETH_SUCCESS) /* Auto-negotiation failed */
 80006d0:	b129      	cbz	r1, 80006de <ETH_MACDMAConfig+0x12>
  {
    /* Set Ethernet duplex mode to Full-duplex */
    (heth->Init).DuplexMode = ETH_MODE_FULLDUPLEX;
 80006d2:	f44f 6300 	mov.w	r3, #2048	; 0x800
 80006d6:	60c3      	str	r3, [r0, #12]
    
    /* Set Ethernet speed to 100M */
    (heth->Init).Speed = ETH_SPEED_100M;
 80006d8:	f44f 4380 	mov.w	r3, #16384	; 0x4000
 80006dc:	6083      	str	r3, [r0, #8]
  macinit.Jabber = ETH_JABBER_ENABLE;
  macinit.InterFrameGap = ETH_INTERFRAMEGAP_96BIT;
  macinit.CarrierSense = ETH_CARRIERSENCE_ENABLE;
  macinit.ReceiveOwn = ETH_RECEIVEOWN_ENABLE;
  macinit.LoopbackMode = ETH_LOOPBACKMODE_DISABLE;
  if(heth->Init.ChecksumMode == ETH_CHECKSUM_BY_HARDWARE)
 80006de:	69e3      	ldr	r3, [r4, #28]
  macinit.VLANTagComparison = ETH_VLANTAGCOMPARISON_16BIT;
  macinit.VLANTagIdentifier = 0x0;
  
  /*------------------------ ETHERNET MACCR Configuration --------------------*/
  /* Get the ETHERNET MACCR value */
  tmpreg = (heth->Instance)->MACCR;
 80006e0:	6822      	ldr	r2, [r4, #0]
    macinit.ChecksumOffload = ETH_CHECKSUMOFFLAOD_DISABLE;
 80006e2:	2b00      	cmp	r3, #0
                       macinit.Jabber | 
                       macinit.InterFrameGap |
                       macinit.CarrierSense |
                       (heth->Init).Speed | 
                       macinit.ReceiveOwn |
                       macinit.LoopbackMode |
 80006e4:	68e0      	ldr	r0, [r4, #12]
 80006e6:	68a3      	ldr	r3, [r4, #8]
  tmpreg = (heth->Instance)->MACCR;
 80006e8:	6815      	ldr	r5, [r2, #0]
    macinit.ChecksumOffload = ETH_CHECKSUMOFFLAOD_DISABLE;
 80006ea:	bf08      	it	eq
 80006ec:	f44f 6180 	moveq.w	r1, #1024	; 0x400
                       macinit.LoopbackMode |
 80006f0:	ea43 0300 	orr.w	r3, r3, r0
  tmpreg &= ETH_MACCR_CLEAR_MASK;
 80006f4:	482e      	ldr	r0, [pc, #184]	; (80007b0 <ETH_MACDMAConfig+0xe4>)
    macinit.ChecksumOffload = ETH_CHECKSUMOFFLAOD_DISABLE;
 80006f6:	bf18      	it	ne
 80006f8:	2100      	movne	r1, #0
  tmpreg &= ETH_MACCR_CLEAR_MASK;
 80006fa:	4028      	ands	r0, r5
 80006fc:	f443 7300 	orr.w	r3, r3, #512	; 0x200
 8000700:	4303      	orrs	r3, r0
  (heth->Instance)->MACCR = (uint32_t)tmpreg;
  
  /* Wait until the write operation will be taken into account:
     at least four TX_CLK/RX_CLK clock cycles */
  tmpreg = (heth->Instance)->MACCR;
  HAL_Delay(ETH_REG_WRITE_DELAY);
 8000702:	2001      	movs	r0, #1
  tmpreg |= (uint32_t)(macinit.Watchdog | 
 8000704:	430b      	orrs	r3, r1
  (heth->Instance)->MACCR = (uint32_t)tmpreg;
 8000706:	6013      	str	r3, [r2, #0]
  tmpreg = (heth->Instance)->MACCR;
 8000708:	6815      	ldr	r5, [r2, #0]
  HAL_Delay(ETH_REG_WRITE_DELAY);
 800070a:	f7ff ff5f 	bl	80005cc <HAL_Delay>
  (heth->Instance)->MACCR = tmpreg; 
 800070e:	6823      	ldr	r3, [r4, #0]
  /* Set the DAIF bit according to ETH DestinationAddrFilter value */
  /* Set the PR bit according to ETH PromiscuousMode value */
  /* Set the PM, HMC and HPF bits according to ETH MulticastFramesFilter value */
  /* Set the HUC and HPF bits according to ETH UnicastFramesFilter value */
  /* Write to ETHERNET MACFFR */  
  (heth->Instance)->MACFFR = (uint32_t)(macinit.ReceiveAll | 
 8000710:	2240      	movs	r2, #64	; 0x40
                                        macinit.UnicastFramesFilter);
   
   /* Wait until the write operation will be taken into account:
      at least four TX_CLK/RX_CLK clock cycles */
   tmpreg = (heth->Instance)->MACFFR;
   HAL_Delay(ETH_REG_WRITE_DELAY);
 8000712:	2001      	movs	r0, #1
  (heth->Instance)->MACCR = tmpreg; 
 8000714:	601d      	str	r5, [r3, #0]
  (heth->Instance)->MACFFR = (uint32_t)(macinit.ReceiveAll | 
 8000716:	605a      	str	r2, [r3, #4]
   tmpreg = (heth->Instance)->MACFFR;
 8000718:	685d      	ldr	r5, [r3, #4]
   HAL_Delay(ETH_REG_WRITE_DELAY);
 800071a:	f7ff ff57 	bl	80005cc <HAL_Delay>
   (heth->Instance)->MACFFR = tmpreg;
 800071e:	6823      	ldr	r3, [r4, #0]
   (heth->Instance)->MACFCR = (uint32_t)tmpreg;
   
   /* Wait until the write operation will be taken into account:
   at least four TX_CLK/RX_CLK clock cycles */
   tmpreg = (heth->Instance)->MACFCR;
   HAL_Delay(ETH_REG_WRITE_DELAY);
 8000720:	2001      	movs	r0, #1
   (heth->Instance)->MACFFR = tmpreg;
 8000722:	605d      	str	r5, [r3, #4]
   (heth->Instance)->MACHTHR = (uint32_t)macinit.HashTableHigh;
 8000724:	2500      	movs	r5, #0
 8000726:	609d      	str	r5, [r3, #8]
   (heth->Instance)->MACHTLR = (uint32_t)macinit.HashTableLow;
 8000728:	60dd      	str	r5, [r3, #12]
   tmpreg = (heth->Instance)->MACFCR;
 800072a:	699a      	ldr	r2, [r3, #24]
   tmpreg &= ETH_MACFCR_CLEAR_MASK;
 800072c:	f022 02be 	bic.w	r2, r2, #190	; 0xbe
 8000730:	0412      	lsls	r2, r2, #16
 8000732:	0c12      	lsrs	r2, r2, #16
   tmpreg |= (uint32_t)((macinit.PauseTime << 16) | 
 8000734:	f042 0280 	orr.w	r2, r2, #128	; 0x80
   (heth->Instance)->MACFCR = (uint32_t)tmpreg;
 8000738:	619a      	str	r2, [r3, #24]
   tmpreg = (heth->Instance)->MACFCR;
 800073a:	699e      	ldr	r6, [r3, #24]
   HAL_Delay(ETH_REG_WRITE_DELAY);
 800073c:	f7ff ff46 	bl	80005cc <HAL_Delay>
   (heth->Instance)->MACFCR = tmpreg;
 8000740:	6823      	ldr	r3, [r4, #0]
                                            macinit.VLANTagIdentifier);
    
    /* Wait until the write operation will be taken into account:
       at least four TX_CLK/RX_CLK clock cycles */
    tmpreg = (heth->Instance)->MACVLANTR;
    HAL_Delay(ETH_REG_WRITE_DELAY);
 8000742:	2001      	movs	r0, #1
   (heth->Instance)->MACFCR = tmpreg;
 8000744:	619e      	str	r6, [r3, #24]
   (heth->Instance)->MACVLANTR = (uint32_t)(macinit.VLANTagComparison | 
 8000746:	61dd      	str	r5, [r3, #28]
    tmpreg = (heth->Instance)->MACVLANTR;
 8000748:	69dd      	ldr	r5, [r3, #28]
    HAL_Delay(ETH_REG_WRITE_DELAY);
 800074a:	f7ff ff3f 	bl	80005cc <HAL_Delay>
    (heth->Instance)->MACVLANTR = tmpreg;
 800074e:	6822      	ldr	r2, [r4, #0]
    (heth->Instance)->DMAOMR = (uint32_t)tmpreg;
    
    /* Wait until the write operation will be taken into account:
       at least four TX_CLK/RX_CLK clock cycles */
    tmpreg = (heth->Instance)->DMAOMR;
    HAL_Delay(ETH_REG_WRITE_DELAY);
 8000750:	2001      	movs	r0, #1
    tmpreg &= ETH_DMAOMR_CLEAR_MASK;
 8000752:	4b18      	ldr	r3, [pc, #96]	; (80007b4 <ETH_MACDMAConfig+0xe8>)
    (heth->Instance)->MACVLANTR = tmpreg;
 8000754:	61d5      	str	r5, [r2, #28]
    tmpreg = (heth->Instance)->DMAOMR;
 8000756:	f241 0518 	movw	r5, #4120	; 0x1018
 800075a:	5951      	ldr	r1, [r2, r5]
    tmpreg &= ETH_DMAOMR_CLEAR_MASK;
 800075c:	400b      	ands	r3, r1
    tmpreg |= (uint32_t)(dmainit.DropTCPIPChecksumErrorFrame | 
 800075e:	f043 7308 	orr.w	r3, r3, #35651584	; 0x2200000
 8000762:	f043 0304 	orr.w	r3, r3, #4
    (heth->Instance)->DMAOMR = (uint32_t)tmpreg;
 8000766:	5153      	str	r3, [r2, r5]
    tmpreg = (heth->Instance)->DMAOMR;
 8000768:	5956      	ldr	r6, [r2, r5]
    HAL_Delay(ETH_REG_WRITE_DELAY);
 800076a:	f7ff ff2f 	bl	80005cc <HAL_Delay>
    (heth->Instance)->DMAOMR = tmpreg;
 800076e:	6823      	ldr	r3, [r4, #0]
                                          ETH_DMABMR_USP); /* Enable use of separate PBL for Rx and Tx */
     
     /* Wait until the write operation will be taken into account:
        at least four TX_CLK/RX_CLK clock cycles */
     tmpreg = (heth->Instance)->DMABMR;
     HAL_Delay(ETH_REG_WRITE_DELAY);
 8000770:	2001      	movs	r0, #1
    (heth->Instance)->DMABMR = (uint32_t)(dmainit.AddressAlignedBeats | 
 8000772:	4a11      	ldr	r2, [pc, #68]	; (80007b8 <ETH_MACDMAConfig+0xec>)
    (heth->Instance)->DMAOMR = tmpreg;
 8000774:	515e      	str	r6, [r3, r5]
    (heth->Instance)->DMABMR = (uint32_t)(dmainit.AddressAlignedBeats | 
 8000776:	f503 5380 	add.w	r3, r3, #4096	; 0x1000
 800077a:	601a      	str	r2, [r3, #0]
     tmpreg = (heth->Instance)->DMABMR;
 800077c:	681d      	ldr	r5, [r3, #0]
     HAL_Delay(ETH_REG_WRITE_DELAY);
 800077e:	f7ff ff25 	bl	80005cc <HAL_Delay>
     (heth->Instance)->DMABMR = tmpreg;
 8000782:	6822      	ldr	r2, [r4, #0]
 8000784:	f502 5380 	add.w	r3, r2, #4096	; 0x1000
 8000788:	601d      	str	r5, [r3, #0]

     if((heth->Init).RxMode == ETH_RXINTERRUPT_MODE)
 800078a:	69a3      	ldr	r3, [r4, #24]
 800078c:	2b01      	cmp	r3, #1
 800078e:	d107      	bne.n	80007a0 <ETH_MACDMAConfig+0xd4>
     {
       /* Enable the Ethernet Rx Interrupt */
       __HAL_ETH_DMA_ENABLE_IT((heth), ETH_DMA_IT_NIS | ETH_DMA_IT_R);
 8000790:	f241 011c 	movw	r1, #4124	; 0x101c
 8000794:	5853      	ldr	r3, [r2, r1]
 8000796:	f443 3380 	orr.w	r3, r3, #65536	; 0x10000
 800079a:	f043 0340 	orr.w	r3, r3, #64	; 0x40
 800079e:	5053      	str	r3, [r2, r1]
     }

     /* Initialize MAC address in ethernet MAC */ 
     ETH_MACAddressConfig(heth, ETH_MAC_ADDRESS0, heth->Init.MACAddr);
 80007a0:	6963      	ldr	r3, [r4, #20]
  assert_param(IS_ETH_MAC_ADDRESS0123(MacAddr));
  
  /* Calculate the selected MAC address high register */
  tmpreg = ((uint32_t)Addr[5] << 8) | (uint32_t)Addr[4];
  /* Load the selected MAC address high register */
  (*(__IO uint32_t *)((uint32_t)(ETH_MAC_ADDR_HBASE + MacAddr))) = tmpreg;
 80007a2:	4a06      	ldr	r2, [pc, #24]	; (80007bc <ETH_MACDMAConfig+0xf0>)
  tmpreg = ((uint32_t)Addr[5] << 8) | (uint32_t)Addr[4];
 80007a4:	8899      	ldrh	r1, [r3, #4]
  (*(__IO uint32_t *)((uint32_t)(ETH_MAC_ADDR_HBASE + MacAddr))) = tmpreg;
 80007a6:	6011      	str	r1, [r2, #0]
  /* Calculate the selected MAC address low register */
  tmpreg = ((uint32_t)Addr[3] << 24) | ((uint32_t)Addr[2] << 16) | ((uint32_t)Addr[1] << 8) | Addr[0];
 80007a8:	681a      	ldr	r2, [r3, #0]
  
  /* Load the selected MAC address low register */
  (*(__IO uint32_t *)((uint32_t)(ETH_MAC_ADDR_LBASE + MacAddr))) = tmpreg;
 80007aa:	4b05      	ldr	r3, [pc, #20]	; (80007c0 <ETH_MACDMAConfig+0xf4>)
 80007ac:	601a      	str	r2, [r3, #0]
 80007ae:	bd70      	pop	{r4, r5, r6, pc}
 80007b0:	ff20810f 	.word	0xff20810f
 80007b4:	f8de3f23 	.word	0xf8de3f23
 80007b8:	02c12080 	.word	0x02c12080
 80007bc:	40028040 	.word	0x40028040
 80007c0:	40028044 	.word	0x40028044

080007c4 <HAL_ETH_ReadPHYRegister>:
{
 80007c4:	b5f8      	push	{r3, r4, r5, r6, r7, lr}
  if(heth->State == HAL_ETH_STATE_BUSY_RD)
 80007c6:	f890 3044 	ldrb.w	r3, [r0, #68]	; 0x44
{
 80007ca:	4605      	mov	r5, r0
 80007cc:	4616      	mov	r6, r2
  if(heth->State == HAL_ETH_STATE_BUSY_RD)
 80007ce:	2b82      	cmp	r3, #130	; 0x82
 80007d0:	d030      	beq.n	8000834 <HAL_ETH_ReadPHYRegister+0x70>
  tmpreg = heth->Instance->MACMIIAR;
 80007d2:	6802      	ldr	r2, [r0, #0]
  heth->State = HAL_ETH_STATE_BUSY_RD;
 80007d4:	2382      	movs	r3, #130	; 0x82
  tmpreg |=(((uint32_t)PHYReg<<6) & ETH_MACMIIAR_MR);                   /* Set the PHY register address */
 80007d6:	0189      	lsls	r1, r1, #6
  heth->State = HAL_ETH_STATE_BUSY_RD;
 80007d8:	f880 3044 	strb.w	r3, [r0, #68]	; 0x44
  tmpreg = heth->Instance->MACMIIAR;
 80007dc:	6913      	ldr	r3, [r2, #16]
  tmpreg |=(((uint32_t)PHYReg<<6) & ETH_MACMIIAR_MR);                   /* Set the PHY register address */
 80007de:	f401 64f8 	and.w	r4, r1, #1984	; 0x7c0
  tmpreg &= ~ETH_MACMIIAR_CR_MASK;
 80007e2:	f003 011c 	and.w	r1, r3, #28
 80007e6:	4321      	orrs	r1, r4
  tmpreg |=(((uint32_t)heth->Init.PhyAddress << 11) & ETH_MACMIIAR_PA); /* Set the PHY device address   */
 80007e8:	8a04      	ldrh	r4, [r0, #16]
 80007ea:	02e4      	lsls	r4, r4, #11
 80007ec:	b2a4      	uxth	r4, r4
  tmpreg &= ~ETH_MACMIIAR_MW;                                           /* Set the read mode            */
 80007ee:	430c      	orrs	r4, r1
  tmpreg |= ETH_MACMIIAR_MB;                                            /* Set the MII Busy bit         */
 80007f0:	f044 0401 	orr.w	r4, r4, #1
  heth->Instance->MACMIIAR = tmpreg;
 80007f4:	6114      	str	r4, [r2, #16]
  tickstart = HAL_GetTick();
 80007f6:	f7ff fee3 	bl	80005c0 <HAL_GetTick>
 80007fa:	4607      	mov	r7, r0
  while((tmpreg & ETH_MACMIIAR_MB) == ETH_MACMIIAR_MB)
 80007fc:	f014 0001 	ands.w	r0, r4, #1
 8000800:	d107      	bne.n	8000812 <HAL_ETH_ReadPHYRegister+0x4e>
  *RegValue = (uint16_t)(heth->Instance->MACMIIDR);
 8000802:	682b      	ldr	r3, [r5, #0]
 8000804:	695b      	ldr	r3, [r3, #20]
 8000806:	b29b      	uxth	r3, r3
 8000808:	6033      	str	r3, [r6, #0]
  heth->State = HAL_ETH_STATE_READY;
 800080a:	2301      	movs	r3, #1
 800080c:	f885 3044 	strb.w	r3, [r5, #68]	; 0x44
 8000810:	bdf8      	pop	{r3, r4, r5, r6, r7, pc}
    if((HAL_GetTick() - tickstart ) > PHY_READ_TO)
 8000812:	f7ff fed5 	bl	80005c0 <HAL_GetTick>
 8000816:	1bc0      	subs	r0, r0, r7
 8000818:	f5b0 3f80 	cmp.w	r0, #65536	; 0x10000
 800081c:	d307      	bcc.n	800082e <HAL_ETH_ReadPHYRegister+0x6a>
      heth->State= HAL_ETH_STATE_READY;
 800081e:	2301      	movs	r3, #1
      return HAL_TIMEOUT;
 8000820:	2003      	movs	r0, #3
      heth->State= HAL_ETH_STATE_READY;
 8000822:	f885 3044 	strb.w	r3, [r5, #68]	; 0x44
      __HAL_UNLOCK(heth);
 8000826:	2300      	movs	r3, #0
 8000828:	f885 3045 	strb.w	r3, [r5, #69]	; 0x45
      return HAL_TIMEOUT;
 800082c:	bdf8      	pop	{r3, r4, r5, r6, r7, pc}
    tmpreg = heth->Instance->MACMIIAR;
 800082e:	682b      	ldr	r3, [r5, #0]
 8000830:	691c      	ldr	r4, [r3, #16]
 8000832:	e7e3      	b.n	80007fc <HAL_ETH_ReadPHYRegister+0x38>
    return HAL_BUSY;
 8000834:	2002      	movs	r0, #2
}
 8000836:	bdf8      	pop	{r3, r4, r5, r6, r7, pc}

08000838 <HAL_ETH_WritePHYRegister>:
  if(heth->State == HAL_ETH_STATE_BUSY_WR)
 8000838:	f890 3044 	ldrb.w	r3, [r0, #68]	; 0x44
 800083c:	2b42      	cmp	r3, #66	; 0x42
{
 800083e:	b570      	push	{r4, r5, r6, lr}
 8000840:	4605      	mov	r5, r0
  if(heth->State == HAL_ETH_STATE_BUSY_WR)
 8000842:	d02e      	beq.n	80008a2 <HAL_ETH_WritePHYRegister+0x6a>
  heth->State = HAL_ETH_STATE_BUSY_WR;
 8000844:	2342      	movs	r3, #66	; 0x42
  tmpreg |=(((uint32_t)PHYReg<<6) & ETH_MACMIIAR_MR);                 /* Set the PHY register address */
 8000846:	018c      	lsls	r4, r1, #6
 8000848:	b292      	uxth	r2, r2
  heth->State = HAL_ETH_STATE_BUSY_WR;
 800084a:	f880 3044 	strb.w	r3, [r0, #68]	; 0x44
  tmpreg |=(((uint32_t)PHYReg<<6) & ETH_MACMIIAR_MR);                 /* Set the PHY register address */
 800084e:	f404 64f8 	and.w	r4, r4, #1984	; 0x7c0
  tmpreg = heth->Instance->MACMIIAR;
 8000852:	6803      	ldr	r3, [r0, #0]
 8000854:	f044 0403 	orr.w	r4, r4, #3
 8000858:	6918      	ldr	r0, [r3, #16]
  tmpreg &= ~ETH_MACMIIAR_CR_MASK;
 800085a:	f000 001c 	and.w	r0, r0, #28
 800085e:	4320      	orrs	r0, r4
  tmpreg |=(((uint32_t)heth->Init.PhyAddress<<11) & ETH_MACMIIAR_PA); /* Set the PHY device address */
 8000860:	8a2c      	ldrh	r4, [r5, #16]
  heth->Instance->MACMIIDR = (uint16_t)RegValue;
 8000862:	615a      	str	r2, [r3, #20]
  tmpreg |=(((uint32_t)heth->Init.PhyAddress<<11) & ETH_MACMIIAR_PA); /* Set the PHY device address */
 8000864:	02e4      	lsls	r4, r4, #11
 8000866:	b2a4      	uxth	r4, r4
  tmpreg |= ETH_MACMIIAR_MB;                                          /* Set the MII Busy bit */
 8000868:	4304      	orrs	r4, r0
  heth->Instance->MACMIIAR = tmpreg;
 800086a:	611c      	str	r4, [r3, #16]
  tickstart = HAL_GetTick();
 800086c:	f7ff fea8 	bl	80005c0 <HAL_GetTick>
 8000870:	4606      	mov	r6, r0
  while((tmpreg & ETH_MACMIIAR_MB) == ETH_MACMIIAR_MB)
 8000872:	f014 0001 	ands.w	r0, r4, #1
 8000876:	d103      	bne.n	8000880 <HAL_ETH_WritePHYRegister+0x48>
  heth->State = HAL_ETH_STATE_READY;
 8000878:	2301      	movs	r3, #1
 800087a:	f885 3044 	strb.w	r3, [r5, #68]	; 0x44
 800087e:	bd70      	pop	{r4, r5, r6, pc}
    if((HAL_GetTick() - tickstart ) > PHY_WRITE_TO)
 8000880:	f7ff fe9e 	bl	80005c0 <HAL_GetTick>
 8000884:	1b80      	subs	r0, r0, r6
 8000886:	f5b0 3f80 	cmp.w	r0, #65536	; 0x10000
 800088a:	d307      	bcc.n	800089c <HAL_ETH_WritePHYRegister+0x64>
      heth->State= HAL_ETH_STATE_READY;
 800088c:	2301      	movs	r3, #1
      return HAL_TIMEOUT;
 800088e:	2003      	movs	r0, #3
      heth->State= HAL_ETH_STATE_READY;
 8000890:	f885 3044 	strb.w	r3, [r5, #68]	; 0x44
      __HAL_UNLOCK(heth);
 8000894:	2300      	movs	r3, #0
 8000896:	f885 3045 	strb.w	r3, [r5, #69]	; 0x45
 800089a:	bd70      	pop	{r4, r5, r6, pc}
    tmpreg = heth->Instance->MACMIIAR;
 800089c:	682b      	ldr	r3, [r5, #0]
 800089e:	691c      	ldr	r4, [r3, #16]
 80008a0:	e7e7      	b.n	8000872 <HAL_ETH_WritePHYRegister+0x3a>
    return HAL_BUSY;
 80008a2:	2002      	movs	r0, #2
}
 80008a4:	bd70      	pop	{r4, r5, r6, pc}
	...

080008a8 <HAL_ETH_Init>:
  uint32_t tempreg = 0, phyreg = 0;
 80008a8:	2300      	movs	r3, #0
{
 80008aa:	b5f7      	push	{r0, r1, r2, r4, r5, r6, r7, lr}
  if(heth == NULL)
 80008ac:	4604      	mov	r4, r0
  uint32_t tempreg = 0, phyreg = 0;
 80008ae:	9300      	str	r3, [sp, #0]
  if(heth == NULL)
 80008b0:	2800      	cmp	r0, #0
 80008b2:	f000 80dc 	beq.w	8000a6e <HAL_ETH_Init+0x1c6>
  if(heth->State == HAL_ETH_STATE_RESET)
 80008b6:	f890 3044 	ldrb.w	r3, [r0, #68]	; 0x44
 80008ba:	f003 02ff 	and.w	r2, r3, #255	; 0xff
 80008be:	b91b      	cbnz	r3, 80008c8 <HAL_ETH_Init+0x20>
    heth->Lock = HAL_UNLOCKED;
 80008c0:	f880 2045 	strb.w	r2, [r0, #69]	; 0x45
    HAL_ETH_MspInit(heth);
 80008c4:	f001 fdae 	bl	8002424 <HAL_ETH_MspInit>
  __HAL_RCC_SYSCFG_CLK_ENABLE();
 80008c8:	4b6a      	ldr	r3, [pc, #424]	; (8000a74 <HAL_ETH_Init+0x1cc>)
 80008ca:	6c5a      	ldr	r2, [r3, #68]	; 0x44
 80008cc:	f442 4280 	orr.w	r2, r2, #16384	; 0x4000
 80008d0:	645a      	str	r2, [r3, #68]	; 0x44
 80008d2:	6c5b      	ldr	r3, [r3, #68]	; 0x44
 80008d4:	f403 4380 	and.w	r3, r3, #16384	; 0x4000
 80008d8:	9301      	str	r3, [sp, #4]
 80008da:	9b01      	ldr	r3, [sp, #4]
  SYSCFG->PMC &= ~(SYSCFG_PMC_MII_RMII_SEL);
 80008dc:	4b66      	ldr	r3, [pc, #408]	; (8000a78 <HAL_ETH_Init+0x1d0>)
 80008de:	685a      	ldr	r2, [r3, #4]
 80008e0:	f422 0200 	bic.w	r2, r2, #8388608	; 0x800000
 80008e4:	605a      	str	r2, [r3, #4]
  SYSCFG->PMC |= (uint32_t)heth->Init.MediaInterface;
 80008e6:	685a      	ldr	r2, [r3, #4]
 80008e8:	6a21      	ldr	r1, [r4, #32]
 80008ea:	430a      	orrs	r2, r1
 80008ec:	605a      	str	r2, [r3, #4]
  (heth->Instance)->DMABMR |= ETH_DMABMR_SR;
 80008ee:	6823      	ldr	r3, [r4, #0]
 80008f0:	f503 5380 	add.w	r3, r3, #4096	; 0x1000
 80008f4:	681a      	ldr	r2, [r3, #0]
 80008f6:	f042 0201 	orr.w	r2, r2, #1
 80008fa:	601a      	str	r2, [r3, #0]
  tickstart = HAL_GetTick();
 80008fc:	f7ff fe60 	bl	80005c0 <HAL_GetTick>
 8000900:	4605      	mov	r5, r0
  while (((heth->Instance)->DMABMR & ETH_DMABMR_SR) != (uint32_t)RESET)
 8000902:	6823      	ldr	r3, [r4, #0]
 8000904:	f503 5280 	add.w	r2, r3, #4096	; 0x1000
 8000908:	6812      	ldr	r2, [r2, #0]
 800090a:	07d0      	lsls	r0, r2, #31
 800090c:	d41d      	bmi.n	800094a <HAL_ETH_Init+0xa2>
  tempreg = (heth->Instance)->MACMIIAR;
 800090e:	691d      	ldr	r5, [r3, #16]
  hclk = HAL_RCC_GetHCLKFreq();
 8000910:	f000 fcf2 	bl	80012f8 <HAL_RCC_GetHCLKFreq>
  if((hclk >= 20000000)&&(hclk < 35000000))
 8000914:	4b59      	ldr	r3, [pc, #356]	; (8000a7c <HAL_ETH_Init+0x1d4>)
 8000916:	4a5a      	ldr	r2, [pc, #360]	; (8000a80 <HAL_ETH_Init+0x1d8>)
  tempreg &= ETH_MACMIIAR_CR_MASK;
 8000918:	f025 051c 	bic.w	r5, r5, #28
  if((hclk >= 20000000)&&(hclk < 35000000))
 800091c:	4403      	add	r3, r0
 800091e:	4293      	cmp	r3, r2
 8000920:	d822      	bhi.n	8000968 <HAL_ETH_Init+0xc0>
    tempreg |= (uint32_t)ETH_MACMIIAR_CR_Div16;
 8000922:	f045 0508 	orr.w	r5, r5, #8
  (heth->Instance)->MACMIIAR = (uint32_t)tempreg;
 8000926:	6823      	ldr	r3, [r4, #0]
  if((HAL_ETH_WritePHYRegister(heth, PHY_BCR, PHY_RESET)) != HAL_OK)
 8000928:	f44f 4200 	mov.w	r2, #32768	; 0x8000
 800092c:	2100      	movs	r1, #0
 800092e:	4620      	mov	r0, r4
  (heth->Instance)->MACMIIAR = (uint32_t)tempreg;
 8000930:	611d      	str	r5, [r3, #16]
  if((HAL_ETH_WritePHYRegister(heth, PHY_BCR, PHY_RESET)) != HAL_OK)
 8000932:	f7ff ff81 	bl	8000838 <HAL_ETH_WritePHYRegister>
 8000936:	4605      	mov	r5, r0
 8000938:	b368      	cbz	r0, 8000996 <HAL_ETH_Init+0xee>
      heth->State = HAL_ETH_STATE_READY;
 800093a:	2501      	movs	r5, #1
      ETH_MACDMAConfig(heth, err);
 800093c:	2101      	movs	r1, #1
 800093e:	4620      	mov	r0, r4
 8000940:	f7ff fec4 	bl	80006cc <ETH_MACDMAConfig>
      heth->State = HAL_ETH_STATE_READY;
 8000944:	f884 5044 	strb.w	r5, [r4, #68]	; 0x44
      return HAL_ERROR;
 8000948:	e00b      	b.n	8000962 <HAL_ETH_Init+0xba>
    if((HAL_GetTick() - tickstart ) > ETH_TIMEOUT_SWRESET)
 800094a:	f7ff fe39 	bl	80005c0 <HAL_GetTick>
 800094e:	1b40      	subs	r0, r0, r5
 8000950:	f5b0 7ffa 	cmp.w	r0, #500	; 0x1f4
 8000954:	d9d5      	bls.n	8000902 <HAL_ETH_Init+0x5a>
      heth->State= HAL_ETH_STATE_TIMEOUT;
 8000956:	2503      	movs	r5, #3
      __HAL_UNLOCK(heth);
 8000958:	2300      	movs	r3, #0
      heth->State= HAL_ETH_STATE_TIMEOUT;
 800095a:	f884 5044 	strb.w	r5, [r4, #68]	; 0x44
      __HAL_UNLOCK(heth);
 800095e:	f884 3045 	strb.w	r3, [r4, #69]	; 0x45
}
 8000962:	4628      	mov	r0, r5
 8000964:	b003      	add	sp, #12
 8000966:	bdf0      	pop	{r4, r5, r6, r7, pc}
  else if((hclk >= 35000000)&&(hclk < 60000000))
 8000968:	4b46      	ldr	r3, [pc, #280]	; (8000a84 <HAL_ETH_Init+0x1dc>)
 800096a:	4a47      	ldr	r2, [pc, #284]	; (8000a88 <HAL_ETH_Init+0x1e0>)
 800096c:	4403      	add	r3, r0
 800096e:	4293      	cmp	r3, r2
 8000970:	d802      	bhi.n	8000978 <HAL_ETH_Init+0xd0>
    tempreg |= (uint32_t)ETH_MACMIIAR_CR_Div26;
 8000972:	f045 050c 	orr.w	r5, r5, #12
 8000976:	e7d6      	b.n	8000926 <HAL_ETH_Init+0x7e>
  else if((hclk >= 60000000)&&(hclk < 100000000))
 8000978:	4b44      	ldr	r3, [pc, #272]	; (8000a8c <HAL_ETH_Init+0x1e4>)
 800097a:	4a45      	ldr	r2, [pc, #276]	; (8000a90 <HAL_ETH_Init+0x1e8>)
 800097c:	4403      	add	r3, r0
 800097e:	4293      	cmp	r3, r2
 8000980:	d9d1      	bls.n	8000926 <HAL_ETH_Init+0x7e>
  else if((hclk >= 100000000)&&(hclk < 150000000))
 8000982:	4b44      	ldr	r3, [pc, #272]	; (8000a94 <HAL_ETH_Init+0x1ec>)
 8000984:	4a44      	ldr	r2, [pc, #272]	; (8000a98 <HAL_ETH_Init+0x1f0>)
 8000986:	4403      	add	r3, r0
 8000988:	4293      	cmp	r3, r2
    tempreg |= (uint32_t)ETH_MACMIIAR_CR_Div62;
 800098a:	bf94      	ite	ls
 800098c:	f045 0504 	orrls.w	r5, r5, #4
    tempreg |= (uint32_t)ETH_MACMIIAR_CR_Div102;    
 8000990:	f045 0510 	orrhi.w	r5, r5, #16
 8000994:	e7c7      	b.n	8000926 <HAL_ETH_Init+0x7e>
  HAL_Delay(PHY_RESET_DELAY);
 8000996:	20ff      	movs	r0, #255	; 0xff
 8000998:	f7ff fe18 	bl	80005cc <HAL_Delay>
  if((heth->Init).AutoNegotiation != ETH_AUTONEGOTIATION_DISABLE)
 800099c:	6863      	ldr	r3, [r4, #4]
 800099e:	2b00      	cmp	r3, #0
 80009a0:	d053      	beq.n	8000a4a <HAL_ETH_Init+0x1a2>
    tickstart = HAL_GetTick();
 80009a2:	f7ff fe0d 	bl	80005c0 <HAL_GetTick>
      if((HAL_GetTick() - tickstart ) > ETH_TIMEOUT_LINKED_STATE)
 80009a6:	f241 3788 	movw	r7, #5000	; 0x1388
    tickstart = HAL_GetTick();
 80009aa:	4606      	mov	r6, r0
      HAL_ETH_ReadPHYRegister(heth, PHY_BSR, &phyreg);
 80009ac:	466a      	mov	r2, sp
 80009ae:	2101      	movs	r1, #1
 80009b0:	4620      	mov	r0, r4
 80009b2:	f7ff ff07 	bl	80007c4 <HAL_ETH_ReadPHYRegister>
      if((HAL_GetTick() - tickstart ) > ETH_TIMEOUT_LINKED_STATE)
 80009b6:	f7ff fe03 	bl	80005c0 <HAL_GetTick>
 80009ba:	1b80      	subs	r0, r0, r6
 80009bc:	42b8      	cmp	r0, r7
 80009be:	d90b      	bls.n	80009d8 <HAL_ETH_Init+0x130>
        ETH_MACDMAConfig(heth, err);
 80009c0:	2101      	movs	r1, #1
 80009c2:	4620      	mov	r0, r4
 80009c4:	f7ff fe82 	bl	80006cc <ETH_MACDMAConfig>
        heth->State= HAL_ETH_STATE_READY;
 80009c8:	2301      	movs	r3, #1
        return HAL_TIMEOUT;
 80009ca:	2503      	movs	r5, #3
        heth->State= HAL_ETH_STATE_READY;
 80009cc:	f884 3044 	strb.w	r3, [r4, #68]	; 0x44
        __HAL_UNLOCK(heth);
 80009d0:	2300      	movs	r3, #0
 80009d2:	f884 3045 	strb.w	r3, [r4, #69]	; 0x45
        return HAL_TIMEOUT;
 80009d6:	e7c4      	b.n	8000962 <HAL_ETH_Init+0xba>
    } while (((phyreg & PHY_LINKED_STATUS) != PHY_LINKED_STATUS));
 80009d8:	9b00      	ldr	r3, [sp, #0]
 80009da:	0759      	lsls	r1, r3, #29
 80009dc:	d5e6      	bpl.n	80009ac <HAL_ETH_Init+0x104>
    if((HAL_ETH_WritePHYRegister(heth, PHY_BCR, PHY_AUTONEGOTIATION)) != HAL_OK)
 80009de:	f44f 5280 	mov.w	r2, #4096	; 0x1000
 80009e2:	2100      	movs	r1, #0
 80009e4:	4620      	mov	r0, r4
 80009e6:	f7ff ff27 	bl	8000838 <HAL_ETH_WritePHYRegister>
 80009ea:	2800      	cmp	r0, #0
 80009ec:	d1a5      	bne.n	800093a <HAL_ETH_Init+0x92>
    tickstart = HAL_GetTick();
 80009ee:	f7ff fde7 	bl	80005c0 <HAL_GetTick>
      if((HAL_GetTick() - tickstart ) > ETH_TIMEOUT_AUTONEGO_COMPLETED)
 80009f2:	f241 3788 	movw	r7, #5000	; 0x1388
    tickstart = HAL_GetTick();
 80009f6:	4606      	mov	r6, r0
      HAL_ETH_ReadPHYRegister(heth, PHY_BSR, &phyreg);
 80009f8:	466a      	mov	r2, sp
 80009fa:	2101      	movs	r1, #1
 80009fc:	4620      	mov	r0, r4
 80009fe:	f7ff fee1 	bl	80007c4 <HAL_ETH_ReadPHYRegister>
      if((HAL_GetTick() - tickstart ) > ETH_TIMEOUT_AUTONEGO_COMPLETED)
 8000a02:	f7ff fddd 	bl	80005c0 <HAL_GetTick>
 8000a06:	1b80      	subs	r0, r0, r6
 8000a08:	42b8      	cmp	r0, r7
 8000a0a:	d8d9      	bhi.n	80009c0 <HAL_ETH_Init+0x118>
    } while (((phyreg & PHY_AUTONEGO_COMPLETE) != PHY_AUTONEGO_COMPLETE));
 8000a0c:	9b00      	ldr	r3, [sp, #0]
 8000a0e:	069a      	lsls	r2, r3, #26
 8000a10:	d5f2      	bpl.n	80009f8 <HAL_ETH_Init+0x150>
    if((HAL_ETH_ReadPHYRegister(heth, PHY_SR, &phyreg)) != HAL_OK)
 8000a12:	466a      	mov	r2, sp
 8000a14:	211f      	movs	r1, #31
 8000a16:	4620      	mov	r0, r4
 8000a18:	f7ff fed4 	bl	80007c4 <HAL_ETH_ReadPHYRegister>
 8000a1c:	2800      	cmp	r0, #0
 8000a1e:	d18c      	bne.n	800093a <HAL_ETH_Init+0x92>
    if((phyreg & PHY_DUPLEX_STATUS) != (uint32_t)RESET)
 8000a20:	9b00      	ldr	r3, [sp, #0]
 8000a22:	f013 0210 	ands.w	r2, r3, #16
      (heth->Init).DuplexMode = ETH_MODE_FULLDUPLEX;  
 8000a26:	bf18      	it	ne
 8000a28:	f44f 6200 	movne.w	r2, #2048	; 0x800
    if((phyreg & PHY_SPEED_STATUS) == PHY_SPEED_STATUS)
 8000a2c:	075b      	lsls	r3, r3, #29
      (heth->Init).Speed = ETH_SPEED_10M; 
 8000a2e:	bf4c      	ite	mi
 8000a30:	2300      	movmi	r3, #0
      (heth->Init).Speed = ETH_SPEED_100M;
 8000a32:	f44f 4380 	movpl.w	r3, #16384	; 0x4000
      (heth->Init).DuplexMode = ETH_MODE_HALFDUPLEX;           
 8000a36:	60e2      	str	r2, [r4, #12]
      (heth->Init).Speed = ETH_SPEED_100M;
 8000a38:	60a3      	str	r3, [r4, #8]
  ETH_MACDMAConfig(heth, err);
 8000a3a:	2100      	movs	r1, #0
 8000a3c:	4620      	mov	r0, r4
 8000a3e:	f7ff fe45 	bl	80006cc <ETH_MACDMAConfig>
  heth->State= HAL_ETH_STATE_READY;
 8000a42:	2301      	movs	r3, #1
 8000a44:	f884 3044 	strb.w	r3, [r4, #68]	; 0x44
  return HAL_OK;
 8000a48:	e78b      	b.n	8000962 <HAL_ETH_Init+0xba>
                                                (uint16_t)((heth->Init).Speed >> 1))) != HAL_OK)
 8000a4a:	68a3      	ldr	r3, [r4, #8]
    if(HAL_ETH_WritePHYRegister(heth, PHY_BCR, ((uint16_t)((heth->Init).DuplexMode >> 3) |
 8000a4c:	4629      	mov	r1, r5
 8000a4e:	68e2      	ldr	r2, [r4, #12]
 8000a50:	4620      	mov	r0, r4
                                                (uint16_t)((heth->Init).Speed >> 1))) != HAL_OK)
 8000a52:	085b      	lsrs	r3, r3, #1
    if(HAL_ETH_WritePHYRegister(heth, PHY_BCR, ((uint16_t)((heth->Init).DuplexMode >> 3) |
 8000a54:	ea43 02d2 	orr.w	r2, r3, r2, lsr #3
 8000a58:	b292      	uxth	r2, r2
 8000a5a:	f7ff feed 	bl	8000838 <HAL_ETH_WritePHYRegister>
 8000a5e:	2800      	cmp	r0, #0
 8000a60:	f47f af6b 	bne.w	800093a <HAL_ETH_Init+0x92>
    HAL_Delay(PHY_CONFIG_DELAY);
 8000a64:	f640 70ff 	movw	r0, #4095	; 0xfff
 8000a68:	f7ff fdb0 	bl	80005cc <HAL_Delay>
 8000a6c:	e7e5      	b.n	8000a3a <HAL_ETH_Init+0x192>
    return HAL_ERROR;
 8000a6e:	2501      	movs	r5, #1
 8000a70:	e777      	b.n	8000962 <HAL_ETH_Init+0xba>
 8000a72:	bf00      	nop
 8000a74:	40023800 	.word	0x40023800
 8000a78:	40013800 	.word	0x40013800
 8000a7c:	feced300 	.word	0xfeced300
 8000a80:	00e4e1bf 	.word	0x00e4e1bf
 8000a84:	fde9f140 	.word	0xfde9f140
 8000a88:	017d783f 	.word	0x017d783f
 8000a8c:	fc6c7900 	.word	0xfc6c7900
 8000a90:	026259ff 	.word	0x026259ff
 8000a94:	fa0a1f00 	.word	0xfa0a1f00
 8000a98:	02faf07f 	.word	0x02faf07f

08000a9c <HAL_GPIO_Init>:
  * @param  GPIO_Init pointer to a GPIO_InitTypeDef structure that contains
  *         the configuration information for the specified GPIO peripheral.
  * @retval None
  */
void HAL_GPIO_Init(GPIO_TypeDef  *GPIOx, GPIO_InitTypeDef *GPIO_Init)
{
 8000a9c:	e92d 4ff0 	stmdb	sp!, {r4, r5, r6, r7, r8, r9, sl, fp, lr}
  for(position = 0; position < GPIO_NUMBER; position++)
  {
    /* Get the IO position */
    ioposition = ((uint32_t)0x01) << position;
    /* Get the current IO position */
    iocurrent = (uint32_t)(GPIO_Init->Pin) & ioposition;
 8000aa0:	680b      	ldr	r3, [r1, #0]
{
 8000aa2:	b085      	sub	sp, #20
      /*--------------------- EXTI Mode Configuration ------------------------*/
      /* Configure the External Interrupt or event for the current IO */
      if((GPIO_Init->Mode & EXTI_MODE) == EXTI_MODE)
      {
        /* Enable SYSCFG Clock */
        __HAL_RCC_SYSCFG_CLK_ENABLE();
 8000aa4:	f8df 81c0 	ldr.w	r8, [pc, #448]	; 8000c68 <HAL_GPIO_Init+0x1cc>
    iocurrent = (uint32_t)(GPIO_Init->Pin) & ioposition;
 8000aa8:	9301      	str	r3, [sp, #4]
  for(position = 0; position < GPIO_NUMBER; position++)
 8000aaa:	2300      	movs	r3, #0
        temp &= ~(((uint32_t)0x0F) << (4 * (position & 0x03)));
        temp |= ((uint32_t)(GPIO_GET_INDEX(GPIOx)) << (4 * (position & 0x03)));
        SYSCFG->EXTICR[position >> 2] = temp;

        /* Clear EXTI line configuration */
        temp = EXTI->IMR;
 8000aac:	4a6c      	ldr	r2, [pc, #432]	; (8000c60 <HAL_GPIO_Init+0x1c4>)
        temp |= ((uint32_t)(GPIO_GET_INDEX(GPIOx)) << (4 * (position & 0x03)));
 8000aae:	f8df 91bc 	ldr.w	r9, [pc, #444]	; 8000c6c <HAL_GPIO_Init+0x1d0>
    ioposition = ((uint32_t)0x01) << position;
 8000ab2:	f04f 0e01 	mov.w	lr, #1
    iocurrent = (uint32_t)(GPIO_Init->Pin) & ioposition;
 8000ab6:	9c01      	ldr	r4, [sp, #4]
    ioposition = ((uint32_t)0x01) << position;
 8000ab8:	fa0e fe03 	lsl.w	lr, lr, r3
    iocurrent = (uint32_t)(GPIO_Init->Pin) & ioposition;
 8000abc:	ea0e 0604 	and.w	r6, lr, r4
    if(iocurrent == ioposition)
 8000ac0:	45b6      	cmp	lr, r6
 8000ac2:	f040 80b3 	bne.w	8000c2c <HAL_GPIO_Init+0x190>
      if((GPIO_Init->Mode == GPIO_MODE_AF_PP) || (GPIO_Init->Mode == GPIO_MODE_AF_OD))
 8000ac6:	684c      	ldr	r4, [r1, #4]
 8000ac8:	f024 0710 	bic.w	r7, r4, #16
 8000acc:	2f02      	cmp	r7, #2
 8000ace:	d116      	bne.n	8000afe <HAL_GPIO_Init+0x62>
        temp = GPIOx->AFR[position >> 3];
 8000ad0:	ea4f 0ad3 	mov.w	sl, r3, lsr #3
        temp &= ~((uint32_t)0xF << ((uint32_t)(position & (uint32_t)0x07) * 4)) ;
 8000ad4:	f003 0b07 	and.w	fp, r3, #7
 8000ad8:	f04f 0c0f 	mov.w	ip, #15
 8000adc:	eb00 0a8a 	add.w	sl, r0, sl, lsl #2
 8000ae0:	ea4f 0b8b 	mov.w	fp, fp, lsl #2
        temp = GPIOx->AFR[position >> 3];
 8000ae4:	f8da 5020 	ldr.w	r5, [sl, #32]
        temp &= ~((uint32_t)0xF << ((uint32_t)(position & (uint32_t)0x07) * 4)) ;
 8000ae8:	fa0c fc0b 	lsl.w	ip, ip, fp
 8000aec:	ea25 0c0c 	bic.w	ip, r5, ip
        temp |= ((uint32_t)(GPIO_Init->Alternate) << (((uint32_t)position & (uint32_t)0x07) * 4));
 8000af0:	690d      	ldr	r5, [r1, #16]
 8000af2:	fa05 f50b 	lsl.w	r5, r5, fp
 8000af6:	ea45 050c 	orr.w	r5, r5, ip
        GPIOx->AFR[position >> 3] = temp;
 8000afa:	f8ca 5020 	str.w	r5, [sl, #32]
 8000afe:	ea4f 0a43 	mov.w	sl, r3, lsl #1
      temp &= ~(GPIO_MODER_MODER0 << (position * 2));
 8000b02:	2503      	movs	r5, #3
      temp = GPIOx->MODER;
 8000b04:	f8d0 b000 	ldr.w	fp, [r0]
      temp |= ((GPIO_Init->Mode & GPIO_MODE) << (position * 2));
 8000b08:	f004 0c03 	and.w	ip, r4, #3
      temp &= ~(GPIO_MODER_MODER0 << (position * 2));
 8000b0c:	fa05 f50a 	lsl.w	r5, r5, sl
      if((GPIO_Init->Mode == GPIO_MODE_OUTPUT_PP) || (GPIO_Init->Mode == GPIO_MODE_AF_PP) ||
 8000b10:	3f01      	subs	r7, #1
      temp |= ((GPIO_Init->Mode & GPIO_MODE) << (position * 2));
 8000b12:	fa0c fc0a 	lsl.w	ip, ip, sl
      temp &= ~(GPIO_MODER_MODER0 << (position * 2));
 8000b16:	43ed      	mvns	r5, r5
      if((GPIO_Init->Mode == GPIO_MODE_OUTPUT_PP) || (GPIO_Init->Mode == GPIO_MODE_AF_PP) ||
 8000b18:	2f01      	cmp	r7, #1
      temp &= ~(GPIO_MODER_MODER0 << (position * 2));
 8000b1a:	ea0b 0b05 	and.w	fp, fp, r5
      temp |= ((GPIO_Init->Mode & GPIO_MODE) << (position * 2));
 8000b1e:	ea4c 0c0b 	orr.w	ip, ip, fp
      GPIOx->MODER = temp;
 8000b22:	f8c0 c000 	str.w	ip, [r0]
      if((GPIO_Init->Mode == GPIO_MODE_OUTPUT_PP) || (GPIO_Init->Mode == GPIO_MODE_AF_PP) ||
 8000b26:	d811      	bhi.n	8000b4c <HAL_GPIO_Init+0xb0>
        temp = GPIOx->OSPEEDR; 
 8000b28:	6887      	ldr	r7, [r0, #8]
        temp &= ~(GPIO_OSPEEDER_OSPEEDR0 << (position * 2));
 8000b2a:	ea07 0b05 	and.w	fp, r7, r5
        temp |= (GPIO_Init->Speed << (position * 2));
 8000b2e:	68cf      	ldr	r7, [r1, #12]
 8000b30:	fa07 fc0a 	lsl.w	ip, r7, sl
 8000b34:	ea4c 070b 	orr.w	r7, ip, fp
        GPIOx->OSPEEDR = temp;
 8000b38:	6087      	str	r7, [r0, #8]
        temp = GPIOx->OTYPER;
 8000b3a:	6847      	ldr	r7, [r0, #4]
        temp &= ~(GPIO_OTYPER_OT_0 << position) ;
 8000b3c:	ea27 0e0e 	bic.w	lr, r7, lr
        temp |= (((GPIO_Init->Mode & GPIO_OUTPUT_TYPE) >> 4) << position);
 8000b40:	f3c4 1700 	ubfx	r7, r4, #4, #1
 8000b44:	409f      	lsls	r7, r3
 8000b46:	ea47 070e 	orr.w	r7, r7, lr
        GPIOx->OTYPER = temp;
 8000b4a:	6047      	str	r7, [r0, #4]
      temp = GPIOx->PUPDR;
 8000b4c:	68c7      	ldr	r7, [r0, #12]
      temp &= ~(GPIO_PUPDR_PUPDR0 << (position * 2));
 8000b4e:	403d      	ands	r5, r7
      temp |= ((GPIO_Init->Pull) << (position * 2));
 8000b50:	688f      	ldr	r7, [r1, #8]
 8000b52:	fa07 f70a 	lsl.w	r7, r7, sl
 8000b56:	433d      	orrs	r5, r7
      GPIOx->PUPDR = temp;
 8000b58:	60c5      	str	r5, [r0, #12]
      if((GPIO_Init->Mode & EXTI_MODE) == EXTI_MODE)
 8000b5a:	00e5      	lsls	r5, r4, #3
 8000b5c:	d566      	bpl.n	8000c2c <HAL_GPIO_Init+0x190>
        __HAL_RCC_SYSCFG_CLK_ENABLE();
 8000b5e:	f8d8 5044 	ldr.w	r5, [r8, #68]	; 0x44
 8000b62:	f023 0703 	bic.w	r7, r3, #3
        temp &= ~(((uint32_t)0x0F) << (4 * (position & 0x03)));
 8000b66:	f003 0e03 	and.w	lr, r3, #3
 8000b6a:	f04f 0c0f 	mov.w	ip, #15
        __HAL_RCC_SYSCFG_CLK_ENABLE();
 8000b6e:	f445 4580 	orr.w	r5, r5, #16384	; 0x4000
 8000b72:	f107 4780 	add.w	r7, r7, #1073741824	; 0x40000000
        temp &= ~(((uint32_t)0x0F) << (4 * (position & 0x03)));
 8000b76:	ea4f 0e8e 	mov.w	lr, lr, lsl #2
        __HAL_RCC_SYSCFG_CLK_ENABLE();
 8000b7a:	f8c8 5044 	str.w	r5, [r8, #68]	; 0x44
 8000b7e:	f507 379c 	add.w	r7, r7, #79872	; 0x13800
 8000b82:	f8d8 5044 	ldr.w	r5, [r8, #68]	; 0x44
 8000b86:	f405 4580 	and.w	r5, r5, #16384	; 0x4000
 8000b8a:	9503      	str	r5, [sp, #12]
 8000b8c:	9d03      	ldr	r5, [sp, #12]
        temp &= ~(((uint32_t)0x0F) << (4 * (position & 0x03)));
 8000b8e:	fa0c f50e 	lsl.w	r5, ip, lr
        temp = SYSCFG->EXTICR[position >> 2];
 8000b92:	f8d7 a008 	ldr.w	sl, [r7, #8]
        temp &= ~(((uint32_t)0x0F) << (4 * (position & 0x03)));
 8000b96:	ea2a 0c05 	bic.w	ip, sl, r5
        temp |= ((uint32_t)(GPIO_GET_INDEX(GPIOx)) << (4 * (position & 0x03)));
 8000b9a:	4d32      	ldr	r5, [pc, #200]	; (8000c64 <HAL_GPIO_Init+0x1c8>)
 8000b9c:	42a8      	cmp	r0, r5
 8000b9e:	d04c      	beq.n	8000c3a <HAL_GPIO_Init+0x19e>
 8000ba0:	f505 6580 	add.w	r5, r5, #1024	; 0x400
 8000ba4:	42a8      	cmp	r0, r5
 8000ba6:	d04a      	beq.n	8000c3e <HAL_GPIO_Init+0x1a2>
 8000ba8:	f505 6580 	add.w	r5, r5, #1024	; 0x400
 8000bac:	42a8      	cmp	r0, r5
 8000bae:	d048      	beq.n	8000c42 <HAL_GPIO_Init+0x1a6>
 8000bb0:	f505 6580 	add.w	r5, r5, #1024	; 0x400
 8000bb4:	42a8      	cmp	r0, r5
 8000bb6:	d046      	beq.n	8000c46 <HAL_GPIO_Init+0x1aa>
 8000bb8:	f505 6580 	add.w	r5, r5, #1024	; 0x400
 8000bbc:	42a8      	cmp	r0, r5
 8000bbe:	d044      	beq.n	8000c4a <HAL_GPIO_Init+0x1ae>
 8000bc0:	4548      	cmp	r0, r9
 8000bc2:	d044      	beq.n	8000c4e <HAL_GPIO_Init+0x1b2>
 8000bc4:	f505 6500 	add.w	r5, r5, #2048	; 0x800
 8000bc8:	42a8      	cmp	r0, r5
 8000bca:	d042      	beq.n	8000c52 <HAL_GPIO_Init+0x1b6>
 8000bcc:	f505 6580 	add.w	r5, r5, #1024	; 0x400
 8000bd0:	42a8      	cmp	r0, r5
 8000bd2:	d040      	beq.n	8000c56 <HAL_GPIO_Init+0x1ba>
 8000bd4:	f505 6580 	add.w	r5, r5, #1024	; 0x400
 8000bd8:	42a8      	cmp	r0, r5
 8000bda:	d03e      	beq.n	8000c5a <HAL_GPIO_Init+0x1be>
 8000bdc:	f505 6580 	add.w	r5, r5, #1024	; 0x400
 8000be0:	42a8      	cmp	r0, r5
 8000be2:	bf14      	ite	ne
 8000be4:	250a      	movne	r5, #10
 8000be6:	2509      	moveq	r5, #9
 8000be8:	fa05 f50e 	lsl.w	r5, r5, lr
        temp &= ~((uint32_t)iocurrent);
        if((GPIO_Init->Mode & GPIO_MODE_IT) == GPIO_MODE_IT)
 8000bec:	f414 3f80 	tst.w	r4, #65536	; 0x10000
        temp |= ((uint32_t)(GPIO_GET_INDEX(GPIOx)) << (4 * (position & 0x03)));
 8000bf0:	ea45 050c 	orr.w	r5, r5, ip
        SYSCFG->EXTICR[position >> 2] = temp;
 8000bf4:	60bd      	str	r5, [r7, #8]
        temp &= ~((uint32_t)iocurrent);
 8000bf6:	ea6f 0706 	mvn.w	r7, r6
        temp = EXTI->IMR;
 8000bfa:	6815      	ldr	r5, [r2, #0]
        temp &= ~((uint32_t)iocurrent);
 8000bfc:	bf0c      	ite	eq
 8000bfe:	403d      	andeq	r5, r7
        {
          temp |= iocurrent;
 8000c00:	4335      	orrne	r5, r6
        }
        EXTI->IMR = temp;

        temp = EXTI->EMR;
        temp &= ~((uint32_t)iocurrent);
        if((GPIO_Init->Mode & GPIO_MODE_EVT) == GPIO_MODE_EVT)
 8000c02:	f414 3f00 	tst.w	r4, #131072	; 0x20000
        EXTI->IMR = temp;
 8000c06:	6015      	str	r5, [r2, #0]
        temp = EXTI->EMR;
 8000c08:	6855      	ldr	r5, [r2, #4]
        temp &= ~((uint32_t)iocurrent);
 8000c0a:	bf0c      	ite	eq
 8000c0c:	403d      	andeq	r5, r7
        {
          temp |= iocurrent;
 8000c0e:	4335      	orrne	r5, r6
        EXTI->EMR = temp;

        /* Clear Rising Falling edge configuration */
        temp = EXTI->RTSR;
        temp &= ~((uint32_t)iocurrent);
        if((GPIO_Init->Mode & RISING_EDGE) == RISING_EDGE)
 8000c10:	f414 1f80 	tst.w	r4, #1048576	; 0x100000
        EXTI->EMR = temp;
 8000c14:	6055      	str	r5, [r2, #4]
        temp = EXTI->RTSR;
 8000c16:	6895      	ldr	r5, [r2, #8]
        temp &= ~((uint32_t)iocurrent);
 8000c18:	bf0c      	ite	eq
 8000c1a:	403d      	andeq	r5, r7
        {
          temp |= iocurrent;
 8000c1c:	4335      	orrne	r5, r6
        }
        EXTI->RTSR = temp;

        temp = EXTI->FTSR;
        temp &= ~((uint32_t)iocurrent);
        if((GPIO_Init->Mode & FALLING_EDGE) == FALLING_EDGE)
 8000c1e:	02a4      	lsls	r4, r4, #10
        EXTI->RTSR = temp;
 8000c20:	6095      	str	r5, [r2, #8]
        temp = EXTI->FTSR;
 8000c22:	68d5      	ldr	r5, [r2, #12]
        temp &= ~((uint32_t)iocurrent);
 8000c24:	bf54      	ite	pl
 8000c26:	403d      	andpl	r5, r7
        {
          temp |= iocurrent;
 8000c28:	4335      	orrmi	r5, r6
        }
        EXTI->FTSR = temp;
 8000c2a:	60d5      	str	r5, [r2, #12]
  for(position = 0; position < GPIO_NUMBER; position++)
 8000c2c:	3301      	adds	r3, #1
 8000c2e:	2b10      	cmp	r3, #16
 8000c30:	f47f af3f 	bne.w	8000ab2 <HAL_GPIO_Init+0x16>
      }
    }
  }
}
 8000c34:	b005      	add	sp, #20
 8000c36:	e8bd 8ff0 	ldmia.w	sp!, {r4, r5, r6, r7, r8, r9, sl, fp, pc}
        temp |= ((uint32_t)(GPIO_GET_INDEX(GPIOx)) << (4 * (position & 0x03)));
 8000c3a:	2500      	movs	r5, #0
 8000c3c:	e7d4      	b.n	8000be8 <HAL_GPIO_Init+0x14c>
 8000c3e:	2501      	movs	r5, #1
 8000c40:	e7d2      	b.n	8000be8 <HAL_GPIO_Init+0x14c>
 8000c42:	2502      	movs	r5, #2
 8000c44:	e7d0      	b.n	8000be8 <HAL_GPIO_Init+0x14c>
 8000c46:	2503      	movs	r5, #3
 8000c48:	e7ce      	b.n	8000be8 <HAL_GPIO_Init+0x14c>
 8000c4a:	2504      	movs	r5, #4
 8000c4c:	e7cc      	b.n	8000be8 <HAL_GPIO_Init+0x14c>
 8000c4e:	2505      	movs	r5, #5
 8000c50:	e7ca      	b.n	8000be8 <HAL_GPIO_Init+0x14c>
 8000c52:	2506      	movs	r5, #6
 8000c54:	e7c8      	b.n	8000be8 <HAL_GPIO_Init+0x14c>
 8000c56:	2507      	movs	r5, #7
 8000c58:	e7c6      	b.n	8000be8 <HAL_GPIO_Init+0x14c>
 8000c5a:	2508      	movs	r5, #8
 8000c5c:	e7c4      	b.n	8000be8 <HAL_GPIO_Init+0x14c>
 8000c5e:	bf00      	nop
 8000c60:	40013c00 	.word	0x40013c00
 8000c64:	40020000 	.word	0x40020000
 8000c68:	40023800 	.word	0x40023800
 8000c6c:	40021400 	.word	0x40021400

08000c70 <HAL_GPIO_WritePin>:
{
  /* Check the parameters */
  assert_param(IS_GPIO_PIN(GPIO_Pin));
  assert_param(IS_GPIO_PIN_ACTION(PinState));

  if(PinState != GPIO_PIN_RESET)
 8000c70:	b10a      	cbz	r2, 8000c76 <HAL_GPIO_WritePin+0x6>
  {
    GPIOx->BSRR = GPIO_Pin;
  }
  else
  {
    GPIOx->BSRR = (uint32_t)GPIO_Pin << 16;
 8000c72:	6181      	str	r1, [r0, #24]
 8000c74:	4770      	bx	lr
 8000c76:	0409      	lsls	r1, r1, #16
 8000c78:	e7fb      	b.n	8000c72 <HAL_GPIO_WritePin+0x2>

08000c7a <HAL_GPIO_TogglePin>:
void HAL_GPIO_TogglePin(GPIO_TypeDef* GPIOx, uint16_t GPIO_Pin)
{
  /* Check the parameters */
  assert_param(IS_GPIO_PIN(GPIO_Pin));

  if ((GPIOx->ODR & GPIO_Pin) == GPIO_Pin)
 8000c7a:	6943      	ldr	r3, [r0, #20]
 8000c7c:	ea31 0303 	bics.w	r3, r1, r3
  {
    GPIOx->BSRR = (uint32_t)GPIO_Pin << GPIO_NUMBER;
 8000c80:	bf08      	it	eq
 8000c82:	0409      	lsleq	r1, r1, #16
  }
  else
  {
    GPIOx->BSRR = GPIO_Pin;
 8000c84:	6181      	str	r1, [r0, #24]
 8000c86:	4770      	bx	lr

08000c88 <HAL_PCD_Init>:
  *         parameters in the PCD_InitTypeDef and initialize the associated handle.
  * @param  hpcd PCD handle
  * @retval HAL status
  */
HAL_StatusTypeDef HAL_PCD_Init(PCD_HandleTypeDef *hpcd)
{
 8000c88:	b5f0      	push	{r4, r5, r6, r7, lr}
  uint8_t i;

  /* Check the PCD handle allocation */
  if (hpcd == NULL)
 8000c8a:	4604      	mov	r4, r0
{
 8000c8c:	b08b      	sub	sp, #44	; 0x2c
  if (hpcd == NULL)
 8000c8e:	b330      	cbz	r0, 8000cde <HAL_PCD_Init+0x56>
  }

  /* Check the parameters */
  assert_param(IS_PCD_ALL_INSTANCE(hpcd->Instance));

  if (hpcd->State == HAL_PCD_STATE_RESET)
 8000c90:	f890 33bd 	ldrb.w	r3, [r0, #957]	; 0x3bd
 8000c94:	f003 02ff 	and.w	r2, r3, #255	; 0xff
 8000c98:	b91b      	cbnz	r3, 8000ca2 <HAL_PCD_Init+0x1a>
  {
    /* Allocate lock resource and initialize it */
    hpcd->Lock = HAL_UNLOCKED;
 8000c9a:	f880 23bc 	strb.w	r2, [r0, #956]	; 0x3bc

    /* Init the low level hardware */
    hpcd->MspInitCallback(hpcd);
#else
    /* Init the low level hardware : GPIO, CLOCK, NVIC... */
    HAL_PCD_MspInit(hpcd);
 8000c9e:	f001 fe59 	bl	8002954 <HAL_PCD_MspInit>
  }

  hpcd->State = HAL_PCD_STATE_BUSY;

  /* Disable the Interrupts */
  __HAL_PCD_DISABLE(hpcd);
 8000ca2:	4625      	mov	r5, r4
  hpcd->State = HAL_PCD_STATE_BUSY;
 8000ca4:	2303      	movs	r3, #3

  /*Init the Core (common init.) */
  if (USB_CoreInit(hpcd->Instance, hpcd->Init) != HAL_OK)
 8000ca6:	466e      	mov	r6, sp
 8000ca8:	1d27      	adds	r7, r4, #4
  __HAL_PCD_DISABLE(hpcd);
 8000caa:	f855 0b10 	ldr.w	r0, [r5], #16
  hpcd->State = HAL_PCD_STATE_BUSY;
 8000cae:	f884 33bd 	strb.w	r3, [r4, #957]	; 0x3bd
  __HAL_PCD_DISABLE(hpcd);
 8000cb2:	f001 fa76 	bl	80021a2 <USB_DisableGlobalInt>
  if (USB_CoreInit(hpcd->Instance, hpcd->Init) != HAL_OK)
 8000cb6:	cd0f      	ldmia	r5!, {r0, r1, r2, r3}
 8000cb8:	c60f      	stmia	r6!, {r0, r1, r2, r3}
 8000cba:	cd0f      	ldmia	r5!, {r0, r1, r2, r3}
 8000cbc:	c60f      	stmia	r6!, {r0, r1, r2, r3}
 8000cbe:	e895 0003 	ldmia.w	r5, {r0, r1}
 8000cc2:	4625      	mov	r5, r4
 8000cc4:	e886 0003 	stmia.w	r6, {r0, r1}
 8000cc8:	e897 000e 	ldmia.w	r7, {r1, r2, r3}
 8000ccc:	f855 0b10 	ldr.w	r0, [r5], #16
 8000cd0:	f001 fa2c 	bl	800212c <USB_CoreInit>
 8000cd4:	4606      	mov	r6, r0
 8000cd6:	b120      	cbz	r0, 8000ce2 <HAL_PCD_Init+0x5a>
  {
    hpcd->State = HAL_PCD_STATE_ERROR;
 8000cd8:	2302      	movs	r3, #2
 8000cda:	f884 33bd 	strb.w	r3, [r4, #957]	; 0x3bd
    return HAL_ERROR;
 8000cde:	2501      	movs	r5, #1
 8000ce0:	e054      	b.n	8000d8c <HAL_PCD_Init+0x104>
    return HAL_ERROR;
  }

  /* Force Device Mode*/
  (void)USB_SetCurrentMode(hpcd->Instance, USB_DEVICE_MODE);
 8000ce2:	4601      	mov	r1, r0
 8000ce4:	6820      	ldr	r0, [r4, #0]
 8000ce6:	f001 fa62 	bl	80021ae <USB_SetCurrentMode>

  /* Init endpoints structures */
  for (i = 0U; i < hpcd->Init.dev_endpoints; i++)
 8000cea:	4630      	mov	r0, r6
 8000cec:	f8d4 e004 	ldr.w	lr, [r4, #4]
  {
    /* Init ep structure */
    hpcd->IN_ep[i].is_in = 1U;
 8000cf0:	261c      	movs	r6, #28
 8000cf2:	f04f 0c01 	mov.w	ip, #1
    hpcd->IN_ep[i].num = i;
    hpcd->IN_ep[i].tx_fifo_num = i;
    /* Control until ep is activated */
    hpcd->IN_ep[i].type = EP_TYPE_CTRL;
 8000cf6:	4601      	mov	r1, r0
 8000cf8:	b2c2      	uxtb	r2, r0
 8000cfa:	3001      	adds	r0, #1
  for (i = 0U; i < hpcd->Init.dev_endpoints; i++)
 8000cfc:	4596      	cmp	lr, r2
 8000cfe:	d81b      	bhi.n	8000d38 <HAL_PCD_Init+0xb0>
 8000d00:	2300      	movs	r3, #0
    hpcd->IN_ep[i].xfer_len = 0U;
  }

  for (i = 0U; i < hpcd->Init.dev_endpoints; i++)
  {
    hpcd->OUT_ep[i].is_in = 0U;
 8000d02:	261c      	movs	r6, #28
 8000d04:	4619      	mov	r1, r3
 8000d06:	b2d8      	uxtb	r0, r3
 8000d08:	3301      	adds	r3, #1
  for (i = 0U; i < hpcd->Init.dev_endpoints; i++)
 8000d0a:	4586      	cmp	lr, r0
 8000d0c:	d822      	bhi.n	8000d54 <HAL_PCD_Init+0xcc>
    hpcd->OUT_ep[i].xfer_buff = 0U;
    hpcd->OUT_ep[i].xfer_len = 0U;
  }

  /* Init Device */
  if (USB_DevInit(hpcd->Instance, hpcd->Init) != HAL_OK)
 8000d0e:	cd0f      	ldmia	r5!, {r0, r1, r2, r3}
 8000d10:	466e      	mov	r6, sp
 8000d12:	c60f      	stmia	r6!, {r0, r1, r2, r3}
 8000d14:	cd0f      	ldmia	r5!, {r0, r1, r2, r3}
 8000d16:	c60f      	stmia	r6!, {r0, r1, r2, r3}
 8000d18:	e895 0003 	ldmia.w	r5, {r0, r1}
 8000d1c:	e886 0003 	stmia.w	r6, {r0, r1}
 8000d20:	e897 000e 	ldmia.w	r7, {r1, r2, r3}
 8000d24:	6820      	ldr	r0, [r4, #0]
 8000d26:	f001 fa83 	bl	8002230 <USB_DevInit>
 8000d2a:	2301      	movs	r3, #1
 8000d2c:	4605      	mov	r5, r0
 8000d2e:	b300      	cbz	r0, 8000d72 <HAL_PCD_Init+0xea>
  {
    hpcd->State = HAL_PCD_STATE_ERROR;
 8000d30:	2202      	movs	r2, #2
 8000d32:	f884 23bd 	strb.w	r2, [r4, #957]	; 0x3bd
 8000d36:	e7d2      	b.n	8000cde <HAL_PCD_Init+0x56>
    hpcd->IN_ep[i].is_in = 1U;
 8000d38:	fb06 4302 	mla	r3, r6, r2, r4
 8000d3c:	f883 c03d 	strb.w	ip, [r3, #61]	; 0x3d
    hpcd->IN_ep[i].num = i;
 8000d40:	f883 203c 	strb.w	r2, [r3, #60]	; 0x3c
    hpcd->IN_ep[i].tx_fifo_num = i;
 8000d44:	f8a3 2042 	strh.w	r2, [r3, #66]	; 0x42
    hpcd->IN_ep[i].type = EP_TYPE_CTRL;
 8000d48:	f883 103f 	strb.w	r1, [r3, #63]	; 0x3f
    hpcd->IN_ep[i].maxpacket = 0U;
 8000d4c:	6459      	str	r1, [r3, #68]	; 0x44
    hpcd->IN_ep[i].xfer_buff = 0U;
 8000d4e:	6499      	str	r1, [r3, #72]	; 0x48
    hpcd->IN_ep[i].xfer_len = 0U;
 8000d50:	6519      	str	r1, [r3, #80]	; 0x50
 8000d52:	e7d1      	b.n	8000cf8 <HAL_PCD_Init+0x70>
    hpcd->OUT_ep[i].is_in = 0U;
 8000d54:	fb06 4200 	mla	r2, r6, r0, r4
 8000d58:	f882 11fd 	strb.w	r1, [r2, #509]	; 0x1fd
    hpcd->OUT_ep[i].num = i;
 8000d5c:	f882 01fc 	strb.w	r0, [r2, #508]	; 0x1fc
    hpcd->OUT_ep[i].type = EP_TYPE_CTRL;
 8000d60:	f882 11ff 	strb.w	r1, [r2, #511]	; 0x1ff
    hpcd->OUT_ep[i].maxpacket = 0U;
 8000d64:	f8c2 1204 	str.w	r1, [r2, #516]	; 0x204
    hpcd->OUT_ep[i].xfer_buff = 0U;
 8000d68:	f8c2 1208 	str.w	r1, [r2, #520]	; 0x208
    hpcd->OUT_ep[i].xfer_len = 0U;
 8000d6c:	f8c2 1210 	str.w	r1, [r2, #528]	; 0x210
 8000d70:	e7c9      	b.n	8000d06 <HAL_PCD_Init+0x7e>
    return HAL_ERROR;
  }

  hpcd->USB_Address = 0U;
 8000d72:	f884 0038 	strb.w	r0, [r4, #56]	; 0x38
  hpcd->State = HAL_PCD_STATE_READY;
 8000d76:	f884 33bd 	strb.w	r3, [r4, #957]	; 0x3bd
  
  /* Activate LPM */
  if (hpcd->Init.lpm_enable == 1U)
 8000d7a:	6a63      	ldr	r3, [r4, #36]	; 0x24
 8000d7c:	2b01      	cmp	r3, #1
 8000d7e:	d102      	bne.n	8000d86 <HAL_PCD_Init+0xfe>
  {
    (void)HAL_PCDEx_ActivateLPM(hpcd);
 8000d80:	4620      	mov	r0, r4
 8000d82:	f000 f806 	bl	8000d92 <HAL_PCDEx_ActivateLPM>
  }
  
  (void)USB_DevDisconnect(hpcd->Instance);
 8000d86:	6820      	ldr	r0, [r4, #0]
 8000d88:	f001 fb16 	bl	80023b8 <USB_DevDisconnect>

  return HAL_OK;
}
 8000d8c:	4628      	mov	r0, r5
 8000d8e:	b00b      	add	sp, #44	; 0x2c
 8000d90:	bdf0      	pop	{r4, r5, r6, r7, pc}

08000d92 <HAL_PCDEx_ActivateLPM>:
  */
HAL_StatusTypeDef HAL_PCDEx_ActivateLPM(PCD_HandleTypeDef *hpcd)
{
  USB_OTG_GlobalTypeDef *USBx = hpcd->Instance;

  hpcd->lpm_active = 1U;
 8000d92:	2101      	movs	r1, #1
  USB_OTG_GlobalTypeDef *USBx = hpcd->Instance;
 8000d94:	6802      	ldr	r2, [r0, #0]
{
 8000d96:	4603      	mov	r3, r0
  hpcd->lpm_active = 1U;
 8000d98:	f8c0 13fc 	str.w	r1, [r0, #1020]	; 0x3fc
  hpcd->LPM_State = LPM_L0;
 8000d9c:	2000      	movs	r0, #0
 8000d9e:	f883 03f4 	strb.w	r0, [r3, #1012]	; 0x3f4
  USBx->GINTMSK |= USB_OTG_GINTMSK_LPMINTM;
 8000da2:	6993      	ldr	r3, [r2, #24]
 8000da4:	f043 6300 	orr.w	r3, r3, #134217728	; 0x8000000
 8000da8:	6193      	str	r3, [r2, #24]
  USBx->GLPMCFG |= (USB_OTG_GLPMCFG_LPMEN | USB_OTG_GLPMCFG_LPMACK | USB_OTG_GLPMCFG_ENBESL);
 8000daa:	6d53      	ldr	r3, [r2, #84]	; 0x54
 8000dac:	f043 5380 	orr.w	r3, r3, #268435456	; 0x10000000
 8000db0:	f043 0303 	orr.w	r3, r3, #3
 8000db4:	6553      	str	r3, [r2, #84]	; 0x54

  return HAL_OK;
}
 8000db6:	4770      	bx	lr

08000db8 <HAL_PWR_EnableBkUpAccess>:
  * @retval None
  */
void HAL_PWR_EnableBkUpAccess(void)
{
  /* Enable access to RTC and backup registers */
  SET_BIT(PWR->CR1, PWR_CR1_DBP);
 8000db8:	4a02      	ldr	r2, [pc, #8]	; (8000dc4 <HAL_PWR_EnableBkUpAccess+0xc>)
 8000dba:	6813      	ldr	r3, [r2, #0]
 8000dbc:	f443 7380 	orr.w	r3, r3, #256	; 0x100
 8000dc0:	6013      	str	r3, [r2, #0]
 8000dc2:	4770      	bx	lr
 8000dc4:	40007000 	.word	0x40007000

08000dc8 <HAL_PWREx_EnableOverDrive>:
  */
HAL_StatusTypeDef HAL_PWREx_EnableOverDrive(void)
{
  uint32_t tickstart = 0;

  __HAL_RCC_PWR_CLK_ENABLE();
 8000dc8:	4b19      	ldr	r3, [pc, #100]	; (8000e30 <HAL_PWREx_EnableOverDrive+0x68>)
{
 8000dca:	b537      	push	{r0, r1, r2, r4, r5, lr}
  __HAL_RCC_PWR_CLK_ENABLE();
 8000dcc:	6c1a      	ldr	r2, [r3, #64]	; 0x40
  
  /* Enable the Over-drive to extend the clock frequency to 216 MHz */
  __HAL_PWR_OVERDRIVE_ENABLE();
 8000dce:	4c19      	ldr	r4, [pc, #100]	; (8000e34 <HAL_PWREx_EnableOverDrive+0x6c>)
  __HAL_RCC_PWR_CLK_ENABLE();
 8000dd0:	f042 5280 	orr.w	r2, r2, #268435456	; 0x10000000
 8000dd4:	641a      	str	r2, [r3, #64]	; 0x40
 8000dd6:	6c1b      	ldr	r3, [r3, #64]	; 0x40
 8000dd8:	f003 5380 	and.w	r3, r3, #268435456	; 0x10000000
 8000ddc:	9301      	str	r3, [sp, #4]
 8000dde:	9b01      	ldr	r3, [sp, #4]
  __HAL_PWR_OVERDRIVE_ENABLE();
 8000de0:	6823      	ldr	r3, [r4, #0]
 8000de2:	f443 3380 	orr.w	r3, r3, #65536	; 0x10000
 8000de6:	6023      	str	r3, [r4, #0]

  /* Get tick */
  tickstart = HAL_GetTick();
 8000de8:	f7ff fbea 	bl	80005c0 <HAL_GetTick>
 8000dec:	4605      	mov	r5, r0

  while(!__HAL_PWR_GET_FLAG(PWR_FLAG_ODRDY))
 8000dee:	6863      	ldr	r3, [r4, #4]
 8000df0:	03da      	lsls	r2, r3, #15
 8000df2:	d50c      	bpl.n	8000e0e <HAL_PWREx_EnableOverDrive+0x46>
      return HAL_TIMEOUT;
    }
  }
  
  /* Enable the Over-drive switch */
  __HAL_PWR_OVERDRIVESWITCHING_ENABLE();
 8000df4:	6823      	ldr	r3, [r4, #0]
 8000df6:	f443 3300 	orr.w	r3, r3, #131072	; 0x20000
 8000dfa:	6023      	str	r3, [r4, #0]

  /* Get tick */
  tickstart = HAL_GetTick();
 8000dfc:	f7ff fbe0 	bl	80005c0 <HAL_GetTick>

  while(!__HAL_PWR_GET_FLAG(PWR_FLAG_ODSWRDY))
 8000e00:	4c0c      	ldr	r4, [pc, #48]	; (8000e34 <HAL_PWREx_EnableOverDrive+0x6c>)
  tickstart = HAL_GetTick();
 8000e02:	4605      	mov	r5, r0
  while(!__HAL_PWR_GET_FLAG(PWR_FLAG_ODSWRDY))
 8000e04:	6863      	ldr	r3, [r4, #4]
 8000e06:	039b      	lsls	r3, r3, #14
 8000e08:	d50a      	bpl.n	8000e20 <HAL_PWREx_EnableOverDrive+0x58>
    if((HAL_GetTick() - tickstart ) > PWR_OVERDRIVE_TIMEOUT_VALUE)
    {
      return HAL_TIMEOUT;
    }
  } 
  return HAL_OK;
 8000e0a:	2000      	movs	r0, #0
 8000e0c:	e006      	b.n	8000e1c <HAL_PWREx_EnableOverDrive+0x54>
    if((HAL_GetTick() - tickstart ) > PWR_OVERDRIVE_TIMEOUT_VALUE)
 8000e0e:	f7ff fbd7 	bl	80005c0 <HAL_GetTick>
 8000e12:	1b40      	subs	r0, r0, r5
 8000e14:	f5b0 7f7a 	cmp.w	r0, #1000	; 0x3e8
 8000e18:	d9e9      	bls.n	8000dee <HAL_PWREx_EnableOverDrive+0x26>
      return HAL_TIMEOUT;
 8000e1a:	2003      	movs	r0, #3
}
 8000e1c:	b003      	add	sp, #12
 8000e1e:	bd30      	pop	{r4, r5, pc}
    if((HAL_GetTick() - tickstart ) > PWR_OVERDRIVE_TIMEOUT_VALUE)
 8000e20:	f7ff fbce 	bl	80005c0 <HAL_GetTick>
 8000e24:	1b40      	subs	r0, r0, r5
 8000e26:	f5b0 7f7a 	cmp.w	r0, #1000	; 0x3e8
 8000e2a:	d9eb      	bls.n	8000e04 <HAL_PWREx_EnableOverDrive+0x3c>
 8000e2c:	e7f5      	b.n	8000e1a <HAL_PWREx_EnableOverDrive+0x52>
 8000e2e:	bf00      	nop
 8000e30:	40023800 	.word	0x40023800
 8000e34:	40007000 	.word	0x40007000

08000e38 <HAL_RCC_OscConfig>:
  *         supported by this function. User should request a transition to HSE Off
  *         first and then HSE On or HSE Bypass.
  * @retval HAL status
  */
HAL_StatusTypeDef HAL_RCC_OscConfig(RCC_OscInitTypeDef  *RCC_OscInitStruct)
{
 8000e38:	e92d 41f3 	stmdb	sp!, {r0, r1, r4, r5, r6, r7, r8, lr}
  uint32_t tickstart;
  FlagStatus pwrclkchanged = RESET;

  /* Check Null pointer */
  if(RCC_OscInitStruct == NULL)
 8000e3c:	4604      	mov	r4, r0
 8000e3e:	b918      	cbnz	r0, 8000e48 <HAL_RCC_OscConfig+0x10>
  {
    return HAL_ERROR;
 8000e40:	2001      	movs	r0, #1
    {
      return HAL_ERROR;
    }
  }
  return HAL_OK;
}
 8000e42:	b002      	add	sp, #8
 8000e44:	e8bd 81f0 	ldmia.w	sp!, {r4, r5, r6, r7, r8, pc}
  if(((RCC_OscInitStruct->OscillatorType) & RCC_OSCILLATORTYPE_HSE) == RCC_OSCILLATORTYPE_HSE)
 8000e48:	6803      	ldr	r3, [r0, #0]
 8000e4a:	07d8      	lsls	r0, r3, #31
 8000e4c:	d410      	bmi.n	8000e70 <HAL_RCC_OscConfig+0x38>
  if(((RCC_OscInitStruct->OscillatorType) & RCC_OSCILLATORTYPE_HSI) == RCC_OSCILLATORTYPE_HSI)
 8000e4e:	6823      	ldr	r3, [r4, #0]
 8000e50:	0799      	lsls	r1, r3, #30
 8000e52:	d45e      	bmi.n	8000f12 <HAL_RCC_OscConfig+0xda>
  if(((RCC_OscInitStruct->OscillatorType) & RCC_OSCILLATORTYPE_LSI) == RCC_OSCILLATORTYPE_LSI)
 8000e54:	6823      	ldr	r3, [r4, #0]
 8000e56:	0719      	lsls	r1, r3, #28
 8000e58:	f100 80a3 	bmi.w	8000fa2 <HAL_RCC_OscConfig+0x16a>
  if(((RCC_OscInitStruct->OscillatorType) & RCC_OSCILLATORTYPE_LSE) == RCC_OSCILLATORTYPE_LSE)
 8000e5c:	6823      	ldr	r3, [r4, #0]
 8000e5e:	075a      	lsls	r2, r3, #29
 8000e60:	f100 80c4 	bmi.w	8000fec <HAL_RCC_OscConfig+0x1b4>
  if ((RCC_OscInitStruct->PLL.PLLState) != RCC_PLL_NONE)
 8000e64:	69a2      	ldr	r2, [r4, #24]
 8000e66:	2a00      	cmp	r2, #0
 8000e68:	f040 812e 	bne.w	80010c8 <HAL_RCC_OscConfig+0x290>
  return HAL_OK;
 8000e6c:	2000      	movs	r0, #0
 8000e6e:	e7e8      	b.n	8000e42 <HAL_RCC_OscConfig+0xa>
    if((__HAL_RCC_GET_SYSCLK_SOURCE() == RCC_SYSCLKSOURCE_STATUS_HSE)
 8000e70:	4b93      	ldr	r3, [pc, #588]	; (80010c0 <HAL_RCC_OscConfig+0x288>)
 8000e72:	689a      	ldr	r2, [r3, #8]
 8000e74:	f002 020c 	and.w	r2, r2, #12
 8000e78:	2a04      	cmp	r2, #4
 8000e7a:	d007      	beq.n	8000e8c <HAL_RCC_OscConfig+0x54>
       || ((__HAL_RCC_GET_SYSCLK_SOURCE() == RCC_SYSCLKSOURCE_STATUS_PLLCLK) && ((RCC->PLLCFGR & RCC_PLLCFGR_PLLSRC) == RCC_PLLCFGR_PLLSRC_HSE)))
 8000e7c:	689a      	ldr	r2, [r3, #8]
 8000e7e:	f002 020c 	and.w	r2, r2, #12
 8000e82:	2a08      	cmp	r2, #8
 8000e84:	d10a      	bne.n	8000e9c <HAL_RCC_OscConfig+0x64>
 8000e86:	685b      	ldr	r3, [r3, #4]
 8000e88:	025a      	lsls	r2, r3, #9
 8000e8a:	d507      	bpl.n	8000e9c <HAL_RCC_OscConfig+0x64>
      if((__HAL_RCC_GET_FLAG(RCC_FLAG_HSERDY) != RESET) && (RCC_OscInitStruct->HSEState == RCC_HSE_OFF))
 8000e8c:	4b8c      	ldr	r3, [pc, #560]	; (80010c0 <HAL_RCC_OscConfig+0x288>)
 8000e8e:	681b      	ldr	r3, [r3, #0]
 8000e90:	039b      	lsls	r3, r3, #14
 8000e92:	d5dc      	bpl.n	8000e4e <HAL_RCC_OscConfig+0x16>
 8000e94:	6863      	ldr	r3, [r4, #4]
 8000e96:	2b00      	cmp	r3, #0
 8000e98:	d1d9      	bne.n	8000e4e <HAL_RCC_OscConfig+0x16>
 8000e9a:	e7d1      	b.n	8000e40 <HAL_RCC_OscConfig+0x8>
      __HAL_RCC_HSE_CONFIG(RCC_OscInitStruct->HSEState);
 8000e9c:	6863      	ldr	r3, [r4, #4]
 8000e9e:	4d88      	ldr	r5, [pc, #544]	; (80010c0 <HAL_RCC_OscConfig+0x288>)
 8000ea0:	f5b3 3f80 	cmp.w	r3, #65536	; 0x10000
 8000ea4:	d111      	bne.n	8000eca <HAL_RCC_OscConfig+0x92>
 8000ea6:	682b      	ldr	r3, [r5, #0]
 8000ea8:	f443 3380 	orr.w	r3, r3, #65536	; 0x10000
 8000eac:	602b      	str	r3, [r5, #0]
        tickstart = HAL_GetTick();
 8000eae:	f7ff fb87 	bl	80005c0 <HAL_GetTick>
        while(__HAL_RCC_GET_FLAG(RCC_FLAG_HSERDY) == RESET)
 8000eb2:	4d83      	ldr	r5, [pc, #524]	; (80010c0 <HAL_RCC_OscConfig+0x288>)
        tickstart = HAL_GetTick();
 8000eb4:	4606      	mov	r6, r0
        while(__HAL_RCC_GET_FLAG(RCC_FLAG_HSERDY) == RESET)
 8000eb6:	682b      	ldr	r3, [r5, #0]
 8000eb8:	039f      	lsls	r7, r3, #14
 8000eba:	d4c8      	bmi.n	8000e4e <HAL_RCC_OscConfig+0x16>
          if((HAL_GetTick() - tickstart ) > HSE_TIMEOUT_VALUE)
 8000ebc:	f7ff fb80 	bl	80005c0 <HAL_GetTick>
 8000ec0:	1b80      	subs	r0, r0, r6
 8000ec2:	2864      	cmp	r0, #100	; 0x64
 8000ec4:	d9f7      	bls.n	8000eb6 <HAL_RCC_OscConfig+0x7e>
            return HAL_TIMEOUT;
 8000ec6:	2003      	movs	r0, #3
 8000ec8:	e7bb      	b.n	8000e42 <HAL_RCC_OscConfig+0xa>
      __HAL_RCC_HSE_CONFIG(RCC_OscInitStruct->HSEState);
 8000eca:	b99b      	cbnz	r3, 8000ef4 <HAL_RCC_OscConfig+0xbc>
 8000ecc:	682b      	ldr	r3, [r5, #0]
 8000ece:	f423 3380 	bic.w	r3, r3, #65536	; 0x10000
 8000ed2:	602b      	str	r3, [r5, #0]
 8000ed4:	682b      	ldr	r3, [r5, #0]
 8000ed6:	f423 2380 	bic.w	r3, r3, #262144	; 0x40000
 8000eda:	602b      	str	r3, [r5, #0]
        tickstart = HAL_GetTick();
 8000edc:	f7ff fb70 	bl	80005c0 <HAL_GetTick>
 8000ee0:	4606      	mov	r6, r0
        while(__HAL_RCC_GET_FLAG(RCC_FLAG_HSERDY) != RESET)
 8000ee2:	682b      	ldr	r3, [r5, #0]
 8000ee4:	0398      	lsls	r0, r3, #14
 8000ee6:	d5b2      	bpl.n	8000e4e <HAL_RCC_OscConfig+0x16>
           if((HAL_GetTick() - tickstart ) > HSE_TIMEOUT_VALUE)
 8000ee8:	f7ff fb6a 	bl	80005c0 <HAL_GetTick>
 8000eec:	1b80      	subs	r0, r0, r6
 8000eee:	2864      	cmp	r0, #100	; 0x64
 8000ef0:	d9f7      	bls.n	8000ee2 <HAL_RCC_OscConfig+0xaa>
 8000ef2:	e7e8      	b.n	8000ec6 <HAL_RCC_OscConfig+0x8e>
      __HAL_RCC_HSE_CONFIG(RCC_OscInitStruct->HSEState);
 8000ef4:	f5b3 2fa0 	cmp.w	r3, #327680	; 0x50000
 8000ef8:	682b      	ldr	r3, [r5, #0]
 8000efa:	d103      	bne.n	8000f04 <HAL_RCC_OscConfig+0xcc>
 8000efc:	f443 2380 	orr.w	r3, r3, #262144	; 0x40000
 8000f00:	602b      	str	r3, [r5, #0]
 8000f02:	e7d0      	b.n	8000ea6 <HAL_RCC_OscConfig+0x6e>
 8000f04:	f423 3380 	bic.w	r3, r3, #65536	; 0x10000
 8000f08:	602b      	str	r3, [r5, #0]
 8000f0a:	682b      	ldr	r3, [r5, #0]
 8000f0c:	f423 2380 	bic.w	r3, r3, #262144	; 0x40000
 8000f10:	e7cc      	b.n	8000eac <HAL_RCC_OscConfig+0x74>
    if((__HAL_RCC_GET_SYSCLK_SOURCE() == RCC_SYSCLKSOURCE_STATUS_HSI)
 8000f12:	4b6b      	ldr	r3, [pc, #428]	; (80010c0 <HAL_RCC_OscConfig+0x288>)
 8000f14:	689a      	ldr	r2, [r3, #8]
 8000f16:	f012 0f0c 	tst.w	r2, #12
 8000f1a:	d007      	beq.n	8000f2c <HAL_RCC_OscConfig+0xf4>
       || ((__HAL_RCC_GET_SYSCLK_SOURCE() == RCC_SYSCLKSOURCE_STATUS_PLLCLK) && ((RCC->PLLCFGR & RCC_PLLCFGR_PLLSRC) == RCC_PLLCFGR_PLLSRC_HSI)))
 8000f1c:	689a      	ldr	r2, [r3, #8]
 8000f1e:	f002 020c 	and.w	r2, r2, #12
 8000f22:	2a08      	cmp	r2, #8
 8000f24:	d111      	bne.n	8000f4a <HAL_RCC_OscConfig+0x112>
 8000f26:	685b      	ldr	r3, [r3, #4]
 8000f28:	0259      	lsls	r1, r3, #9
 8000f2a:	d40e      	bmi.n	8000f4a <HAL_RCC_OscConfig+0x112>
      if((__HAL_RCC_GET_FLAG(RCC_FLAG_HSIRDY) != RESET) && (RCC_OscInitStruct->HSIState != RCC_HSI_ON))
 8000f2c:	4b64      	ldr	r3, [pc, #400]	; (80010c0 <HAL_RCC_OscConfig+0x288>)
 8000f2e:	681a      	ldr	r2, [r3, #0]
 8000f30:	0792      	lsls	r2, r2, #30
 8000f32:	d502      	bpl.n	8000f3a <HAL_RCC_OscConfig+0x102>
 8000f34:	68e2      	ldr	r2, [r4, #12]
 8000f36:	2a01      	cmp	r2, #1
 8000f38:	d182      	bne.n	8000e40 <HAL_RCC_OscConfig+0x8>
        __HAL_RCC_HSI_CALIBRATIONVALUE_ADJUST(RCC_OscInitStruct->HSICalibrationValue);
 8000f3a:	681a      	ldr	r2, [r3, #0]
 8000f3c:	6921      	ldr	r1, [r4, #16]
 8000f3e:	f022 02f8 	bic.w	r2, r2, #248	; 0xf8
 8000f42:	ea42 02c1 	orr.w	r2, r2, r1, lsl #3
 8000f46:	601a      	str	r2, [r3, #0]
      if((__HAL_RCC_GET_FLAG(RCC_FLAG_HSIRDY) != RESET) && (RCC_OscInitStruct->HSIState != RCC_HSI_ON))
 8000f48:	e784      	b.n	8000e54 <HAL_RCC_OscConfig+0x1c>
      if((RCC_OscInitStruct->HSIState)!= RCC_HSI_OFF)
 8000f4a:	68e3      	ldr	r3, [r4, #12]
 8000f4c:	4d5c      	ldr	r5, [pc, #368]	; (80010c0 <HAL_RCC_OscConfig+0x288>)
 8000f4e:	b1bb      	cbz	r3, 8000f80 <HAL_RCC_OscConfig+0x148>
        __HAL_RCC_HSI_ENABLE();
 8000f50:	682b      	ldr	r3, [r5, #0]
 8000f52:	f043 0301 	orr.w	r3, r3, #1
 8000f56:	602b      	str	r3, [r5, #0]
        tickstart = HAL_GetTick();
 8000f58:	f7ff fb32 	bl	80005c0 <HAL_GetTick>
 8000f5c:	4606      	mov	r6, r0
        while(__HAL_RCC_GET_FLAG(RCC_FLAG_HSIRDY) == RESET)
 8000f5e:	682b      	ldr	r3, [r5, #0]
 8000f60:	079f      	lsls	r7, r3, #30
 8000f62:	d507      	bpl.n	8000f74 <HAL_RCC_OscConfig+0x13c>
        __HAL_RCC_HSI_CALIBRATIONVALUE_ADJUST(RCC_OscInitStruct->HSICalibrationValue);
 8000f64:	682b      	ldr	r3, [r5, #0]
 8000f66:	6922      	ldr	r2, [r4, #16]
 8000f68:	f023 03f8 	bic.w	r3, r3, #248	; 0xf8
 8000f6c:	ea43 03c2 	orr.w	r3, r3, r2, lsl #3
 8000f70:	602b      	str	r3, [r5, #0]
 8000f72:	e76f      	b.n	8000e54 <HAL_RCC_OscConfig+0x1c>
          if((HAL_GetTick() - tickstart ) > HSI_TIMEOUT_VALUE)
 8000f74:	f7ff fb24 	bl	80005c0 <HAL_GetTick>
 8000f78:	1b80      	subs	r0, r0, r6
 8000f7a:	2802      	cmp	r0, #2
 8000f7c:	d9ef      	bls.n	8000f5e <HAL_RCC_OscConfig+0x126>
 8000f7e:	e7a2      	b.n	8000ec6 <HAL_RCC_OscConfig+0x8e>
        __HAL_RCC_HSI_DISABLE();
 8000f80:	682b      	ldr	r3, [r5, #0]
 8000f82:	f023 0301 	bic.w	r3, r3, #1
 8000f86:	602b      	str	r3, [r5, #0]
        tickstart = HAL_GetTick();
 8000f88:	f7ff fb1a 	bl	80005c0 <HAL_GetTick>
 8000f8c:	4606      	mov	r6, r0
        while(__HAL_RCC_GET_FLAG(RCC_FLAG_HSIRDY) != RESET)
 8000f8e:	682b      	ldr	r3, [r5, #0]
 8000f90:	0798      	lsls	r0, r3, #30
 8000f92:	f57f af5f 	bpl.w	8000e54 <HAL_RCC_OscConfig+0x1c>
          if((HAL_GetTick() - tickstart ) > HSI_TIMEOUT_VALUE)
 8000f96:	f7ff fb13 	bl	80005c0 <HAL_GetTick>
 8000f9a:	1b80      	subs	r0, r0, r6
 8000f9c:	2802      	cmp	r0, #2
 8000f9e:	d9f6      	bls.n	8000f8e <HAL_RCC_OscConfig+0x156>
 8000fa0:	e791      	b.n	8000ec6 <HAL_RCC_OscConfig+0x8e>
    if((RCC_OscInitStruct->LSIState)!= RCC_LSI_OFF)
 8000fa2:	6963      	ldr	r3, [r4, #20]
 8000fa4:	4d46      	ldr	r5, [pc, #280]	; (80010c0 <HAL_RCC_OscConfig+0x288>)
 8000fa6:	b183      	cbz	r3, 8000fca <HAL_RCC_OscConfig+0x192>
      __HAL_RCC_LSI_ENABLE();
 8000fa8:	6f6b      	ldr	r3, [r5, #116]	; 0x74
 8000faa:	f043 0301 	orr.w	r3, r3, #1
 8000fae:	676b      	str	r3, [r5, #116]	; 0x74
      tickstart = HAL_GetTick();
 8000fb0:	f7ff fb06 	bl	80005c0 <HAL_GetTick>
 8000fb4:	4606      	mov	r6, r0
      while(__HAL_RCC_GET_FLAG(RCC_FLAG_LSIRDY) == RESET)
 8000fb6:	6f6b      	ldr	r3, [r5, #116]	; 0x74
 8000fb8:	079b      	lsls	r3, r3, #30
 8000fba:	f53f af4f 	bmi.w	8000e5c <HAL_RCC_OscConfig+0x24>
        if((HAL_GetTick() - tickstart ) > LSI_TIMEOUT_VALUE)
 8000fbe:	f7ff faff 	bl	80005c0 <HAL_GetTick>
 8000fc2:	1b80      	subs	r0, r0, r6
 8000fc4:	2802      	cmp	r0, #2
 8000fc6:	d9f6      	bls.n	8000fb6 <HAL_RCC_OscConfig+0x17e>
 8000fc8:	e77d      	b.n	8000ec6 <HAL_RCC_OscConfig+0x8e>
      __HAL_RCC_LSI_DISABLE();
 8000fca:	6f6b      	ldr	r3, [r5, #116]	; 0x74
 8000fcc:	f023 0301 	bic.w	r3, r3, #1
 8000fd0:	676b      	str	r3, [r5, #116]	; 0x74
      tickstart = HAL_GetTick();
 8000fd2:	f7ff faf5 	bl	80005c0 <HAL_GetTick>
 8000fd6:	4606      	mov	r6, r0
      while(__HAL_RCC_GET_FLAG(RCC_FLAG_LSIRDY) != RESET)
 8000fd8:	6f6b      	ldr	r3, [r5, #116]	; 0x74
 8000fda:	079f      	lsls	r7, r3, #30
 8000fdc:	f57f af3e 	bpl.w	8000e5c <HAL_RCC_OscConfig+0x24>
        if((HAL_GetTick() - tickstart ) > LSI_TIMEOUT_VALUE)
 8000fe0:	f7ff faee 	bl	80005c0 <HAL_GetTick>
 8000fe4:	1b80      	subs	r0, r0, r6
 8000fe6:	2802      	cmp	r0, #2
 8000fe8:	d9f6      	bls.n	8000fd8 <HAL_RCC_OscConfig+0x1a0>
 8000fea:	e76c      	b.n	8000ec6 <HAL_RCC_OscConfig+0x8e>
    if(__HAL_RCC_PWR_IS_CLK_DISABLED())
 8000fec:	4b34      	ldr	r3, [pc, #208]	; (80010c0 <HAL_RCC_OscConfig+0x288>)
 8000fee:	6c1a      	ldr	r2, [r3, #64]	; 0x40
 8000ff0:	00d0      	lsls	r0, r2, #3
 8000ff2:	d427      	bmi.n	8001044 <HAL_RCC_OscConfig+0x20c>
      __HAL_RCC_PWR_CLK_ENABLE();
 8000ff4:	6c1a      	ldr	r2, [r3, #64]	; 0x40
      pwrclkchanged = SET;
 8000ff6:	2601      	movs	r6, #1
      __HAL_RCC_PWR_CLK_ENABLE();
 8000ff8:	f042 5280 	orr.w	r2, r2, #268435456	; 0x10000000
 8000ffc:	641a      	str	r2, [r3, #64]	; 0x40
 8000ffe:	6c1b      	ldr	r3, [r3, #64]	; 0x40
 8001000:	f003 5380 	and.w	r3, r3, #268435456	; 0x10000000
 8001004:	9301      	str	r3, [sp, #4]
 8001006:	9b01      	ldr	r3, [sp, #4]
    if(HAL_IS_BIT_CLR(PWR->CR1, PWR_CR1_DBP))
 8001008:	4d2e      	ldr	r5, [pc, #184]	; (80010c4 <HAL_RCC_OscConfig+0x28c>)
 800100a:	682b      	ldr	r3, [r5, #0]
 800100c:	05d9      	lsls	r1, r3, #23
 800100e:	d51b      	bpl.n	8001048 <HAL_RCC_OscConfig+0x210>
    __HAL_RCC_LSE_CONFIG(RCC_OscInitStruct->LSEState);
 8001010:	68a3      	ldr	r3, [r4, #8]
 8001012:	4d2b      	ldr	r5, [pc, #172]	; (80010c0 <HAL_RCC_OscConfig+0x288>)
 8001014:	2b01      	cmp	r3, #1
 8001016:	d127      	bne.n	8001068 <HAL_RCC_OscConfig+0x230>
 8001018:	6f2b      	ldr	r3, [r5, #112]	; 0x70
 800101a:	f043 0301 	orr.w	r3, r3, #1
 800101e:	672b      	str	r3, [r5, #112]	; 0x70
        if((HAL_GetTick() - tickstart ) > RCC_LSE_TIMEOUT_VALUE)
 8001020:	f241 3588 	movw	r5, #5000	; 0x1388
      tickstart = HAL_GetTick();
 8001024:	f7ff facc 	bl	80005c0 <HAL_GetTick>
      while(__HAL_RCC_GET_FLAG(RCC_FLAG_LSERDY) == RESET)
 8001028:	4f25      	ldr	r7, [pc, #148]	; (80010c0 <HAL_RCC_OscConfig+0x288>)
      tickstart = HAL_GetTick();
 800102a:	4680      	mov	r8, r0
      while(__HAL_RCC_GET_FLAG(RCC_FLAG_LSERDY) == RESET)
 800102c:	6f3b      	ldr	r3, [r7, #112]	; 0x70
 800102e:	079b      	lsls	r3, r3, #30
 8001030:	d53f      	bpl.n	80010b2 <HAL_RCC_OscConfig+0x27a>
    if(pwrclkchanged == SET)
 8001032:	2e00      	cmp	r6, #0
 8001034:	f43f af16 	beq.w	8000e64 <HAL_RCC_OscConfig+0x2c>
      __HAL_RCC_PWR_CLK_DISABLE();
 8001038:	4a21      	ldr	r2, [pc, #132]	; (80010c0 <HAL_RCC_OscConfig+0x288>)
 800103a:	6c13      	ldr	r3, [r2, #64]	; 0x40
 800103c:	f023 5380 	bic.w	r3, r3, #268435456	; 0x10000000
 8001040:	6413      	str	r3, [r2, #64]	; 0x40
 8001042:	e70f      	b.n	8000e64 <HAL_RCC_OscConfig+0x2c>
  FlagStatus pwrclkchanged = RESET;
 8001044:	2600      	movs	r6, #0
 8001046:	e7df      	b.n	8001008 <HAL_RCC_OscConfig+0x1d0>
      PWR->CR1 |= PWR_CR1_DBP;
 8001048:	682b      	ldr	r3, [r5, #0]
 800104a:	f443 7380 	orr.w	r3, r3, #256	; 0x100
 800104e:	602b      	str	r3, [r5, #0]
      tickstart = HAL_GetTick();
 8001050:	f7ff fab6 	bl	80005c0 <HAL_GetTick>
 8001054:	4607      	mov	r7, r0
      while(HAL_IS_BIT_CLR(PWR->CR1, PWR_CR1_DBP))
 8001056:	682b      	ldr	r3, [r5, #0]
 8001058:	05da      	lsls	r2, r3, #23
 800105a:	d4d9      	bmi.n	8001010 <HAL_RCC_OscConfig+0x1d8>
        if((HAL_GetTick() - tickstart ) > RCC_DBP_TIMEOUT_VALUE)
 800105c:	f7ff fab0 	bl	80005c0 <HAL_GetTick>
 8001060:	1bc0      	subs	r0, r0, r7
 8001062:	2864      	cmp	r0, #100	; 0x64
 8001064:	d9f7      	bls.n	8001056 <HAL_RCC_OscConfig+0x21e>
 8001066:	e72e      	b.n	8000ec6 <HAL_RCC_OscConfig+0x8e>
    __HAL_RCC_LSE_CONFIG(RCC_OscInitStruct->LSEState);
 8001068:	b9ab      	cbnz	r3, 8001096 <HAL_RCC_OscConfig+0x25e>
 800106a:	6f2b      	ldr	r3, [r5, #112]	; 0x70
        if((HAL_GetTick() - tickstart ) > RCC_LSE_TIMEOUT_VALUE)
 800106c:	f241 3888 	movw	r8, #5000	; 0x1388
    __HAL_RCC_LSE_CONFIG(RCC_OscInitStruct->LSEState);
 8001070:	f023 0301 	bic.w	r3, r3, #1
 8001074:	672b      	str	r3, [r5, #112]	; 0x70
 8001076:	6f2b      	ldr	r3, [r5, #112]	; 0x70
 8001078:	f023 0304 	bic.w	r3, r3, #4
 800107c:	672b      	str	r3, [r5, #112]	; 0x70
      tickstart = HAL_GetTick();
 800107e:	f7ff fa9f 	bl	80005c0 <HAL_GetTick>
 8001082:	4607      	mov	r7, r0
      while(__HAL_RCC_GET_FLAG(RCC_FLAG_LSERDY) != RESET)
 8001084:	6f2b      	ldr	r3, [r5, #112]	; 0x70
 8001086:	0798      	lsls	r0, r3, #30
 8001088:	d5d3      	bpl.n	8001032 <HAL_RCC_OscConfig+0x1fa>
        if((HAL_GetTick() - tickstart ) > RCC_LSE_TIMEOUT_VALUE)
 800108a:	f7ff fa99 	bl	80005c0 <HAL_GetTick>
 800108e:	1bc0      	subs	r0, r0, r7
 8001090:	4540      	cmp	r0, r8
 8001092:	d9f7      	bls.n	8001084 <HAL_RCC_OscConfig+0x24c>
 8001094:	e717      	b.n	8000ec6 <HAL_RCC_OscConfig+0x8e>
    __HAL_RCC_LSE_CONFIG(RCC_OscInitStruct->LSEState);
 8001096:	2b05      	cmp	r3, #5
 8001098:	6f2b      	ldr	r3, [r5, #112]	; 0x70
 800109a:	d103      	bne.n	80010a4 <HAL_RCC_OscConfig+0x26c>
 800109c:	f043 0304 	orr.w	r3, r3, #4
 80010a0:	672b      	str	r3, [r5, #112]	; 0x70
 80010a2:	e7b9      	b.n	8001018 <HAL_RCC_OscConfig+0x1e0>
 80010a4:	f023 0301 	bic.w	r3, r3, #1
 80010a8:	672b      	str	r3, [r5, #112]	; 0x70
 80010aa:	6f2b      	ldr	r3, [r5, #112]	; 0x70
 80010ac:	f023 0304 	bic.w	r3, r3, #4
 80010b0:	e7b5      	b.n	800101e <HAL_RCC_OscConfig+0x1e6>
        if((HAL_GetTick() - tickstart ) > RCC_LSE_TIMEOUT_VALUE)
 80010b2:	f7ff fa85 	bl	80005c0 <HAL_GetTick>
 80010b6:	eba0 0008 	sub.w	r0, r0, r8
 80010ba:	42a8      	cmp	r0, r5
 80010bc:	d9b6      	bls.n	800102c <HAL_RCC_OscConfig+0x1f4>
 80010be:	e702      	b.n	8000ec6 <HAL_RCC_OscConfig+0x8e>
 80010c0:	40023800 	.word	0x40023800
 80010c4:	40007000 	.word	0x40007000
    if(__HAL_RCC_GET_SYSCLK_SOURCE() != RCC_SYSCLKSOURCE_STATUS_PLLCLK)
 80010c8:	4d24      	ldr	r5, [pc, #144]	; (800115c <HAL_RCC_OscConfig+0x324>)
 80010ca:	68ab      	ldr	r3, [r5, #8]
 80010cc:	f003 030c 	and.w	r3, r3, #12
 80010d0:	2b08      	cmp	r3, #8
 80010d2:	f43f aeb5 	beq.w	8000e40 <HAL_RCC_OscConfig+0x8>
        __HAL_RCC_PLL_DISABLE();
 80010d6:	682b      	ldr	r3, [r5, #0]
      if((RCC_OscInitStruct->PLL.PLLState) == RCC_PLL_ON)
 80010d8:	2a02      	cmp	r2, #2
        __HAL_RCC_PLL_DISABLE();
 80010da:	f023 7380 	bic.w	r3, r3, #16777216	; 0x1000000
 80010de:	602b      	str	r3, [r5, #0]
      if((RCC_OscInitStruct->PLL.PLLState) == RCC_PLL_ON)
 80010e0:	d12f      	bne.n	8001142 <HAL_RCC_OscConfig+0x30a>
        tickstart = HAL_GetTick();
 80010e2:	f7ff fa6d 	bl	80005c0 <HAL_GetTick>
 80010e6:	4606      	mov	r6, r0
        while(__HAL_RCC_GET_FLAG(RCC_FLAG_PLLRDY) != RESET)
 80010e8:	682b      	ldr	r3, [r5, #0]
 80010ea:	0199      	lsls	r1, r3, #6
 80010ec:	d423      	bmi.n	8001136 <HAL_RCC_OscConfig+0x2fe>
        __HAL_RCC_PLL_CONFIG(RCC_OscInitStruct->PLL.PLLSource,
 80010ee:	6a22      	ldr	r2, [r4, #32]
 80010f0:	69e3      	ldr	r3, [r4, #28]
 80010f2:	4313      	orrs	r3, r2
 80010f4:	6a62      	ldr	r2, [r4, #36]	; 0x24
 80010f6:	ea43 1382 	orr.w	r3, r3, r2, lsl #6
 80010fa:	6ae2      	ldr	r2, [r4, #44]	; 0x2c
 80010fc:	ea43 6302 	orr.w	r3, r3, r2, lsl #24
 8001100:	6b22      	ldr	r2, [r4, #48]	; 0x30
 8001102:	ea43 7302 	orr.w	r3, r3, r2, lsl #28
 8001106:	6aa2      	ldr	r2, [r4, #40]	; 0x28
        while(__HAL_RCC_GET_FLAG(RCC_FLAG_PLLRDY) == RESET)
 8001108:	4c14      	ldr	r4, [pc, #80]	; (800115c <HAL_RCC_OscConfig+0x324>)
        __HAL_RCC_PLL_CONFIG(RCC_OscInitStruct->PLL.PLLSource,
 800110a:	0852      	lsrs	r2, r2, #1
 800110c:	3a01      	subs	r2, #1
 800110e:	ea43 4302 	orr.w	r3, r3, r2, lsl #16
 8001112:	606b      	str	r3, [r5, #4]
        __HAL_RCC_PLL_ENABLE();
 8001114:	682b      	ldr	r3, [r5, #0]
 8001116:	f043 7380 	orr.w	r3, r3, #16777216	; 0x1000000
 800111a:	602b      	str	r3, [r5, #0]
        tickstart = HAL_GetTick();
 800111c:	f7ff fa50 	bl	80005c0 <HAL_GetTick>
 8001120:	4605      	mov	r5, r0
        while(__HAL_RCC_GET_FLAG(RCC_FLAG_PLLRDY) == RESET)
 8001122:	6823      	ldr	r3, [r4, #0]
 8001124:	019a      	lsls	r2, r3, #6
 8001126:	f53f aea1 	bmi.w	8000e6c <HAL_RCC_OscConfig+0x34>
          if((HAL_GetTick() - tickstart ) > PLL_TIMEOUT_VALUE)
 800112a:	f7ff fa49 	bl	80005c0 <HAL_GetTick>
 800112e:	1b40      	subs	r0, r0, r5
 8001130:	2802      	cmp	r0, #2
 8001132:	d9f6      	bls.n	8001122 <HAL_RCC_OscConfig+0x2ea>
 8001134:	e6c7      	b.n	8000ec6 <HAL_RCC_OscConfig+0x8e>
          if((HAL_GetTick() - tickstart ) > PLL_TIMEOUT_VALUE)
 8001136:	f7ff fa43 	bl	80005c0 <HAL_GetTick>
 800113a:	1b80      	subs	r0, r0, r6
 800113c:	2802      	cmp	r0, #2
 800113e:	d9d3      	bls.n	80010e8 <HAL_RCC_OscConfig+0x2b0>
 8001140:	e6c1      	b.n	8000ec6 <HAL_RCC_OscConfig+0x8e>
        tickstart = HAL_GetTick();
 8001142:	f7ff fa3d 	bl	80005c0 <HAL_GetTick>
 8001146:	4604      	mov	r4, r0
        while(__HAL_RCC_GET_FLAG(RCC_FLAG_PLLRDY) != RESET)
 8001148:	682b      	ldr	r3, [r5, #0]
 800114a:	019b      	lsls	r3, r3, #6
 800114c:	f57f ae8e 	bpl.w	8000e6c <HAL_RCC_OscConfig+0x34>
          if((HAL_GetTick() - tickstart ) > PLL_TIMEOUT_VALUE)
 8001150:	f7ff fa36 	bl	80005c0 <HAL_GetTick>
 8001154:	1b00      	subs	r0, r0, r4
 8001156:	2802      	cmp	r0, #2
 8001158:	d9f6      	bls.n	8001148 <HAL_RCC_OscConfig+0x310>
 800115a:	e6b4      	b.n	8000ec6 <HAL_RCC_OscConfig+0x8e>
 800115c:	40023800 	.word	0x40023800

08001160 <HAL_RCC_GetSysClockFreq>:
{
  uint32_t pllm = 0, pllvco = 0, pllp = 0;
  uint32_t sysclockfreq = 0;

  /* Get SYSCLK source -------------------------------------------------------*/
  switch (RCC->CFGR & RCC_CFGR_SWS)
 8001160:	4913      	ldr	r1, [pc, #76]	; (80011b0 <HAL_RCC_GetSysClockFreq+0x50>)
{
 8001162:	b508      	push	{r3, lr}
  switch (RCC->CFGR & RCC_CFGR_SWS)
 8001164:	688b      	ldr	r3, [r1, #8]
 8001166:	f003 030c 	and.w	r3, r3, #12
 800116a:	2b04      	cmp	r3, #4
 800116c:	d003      	beq.n	8001176 <HAL_RCC_GetSysClockFreq+0x16>
 800116e:	2b08      	cmp	r3, #8
 8001170:	d003      	beq.n	800117a <HAL_RCC_GetSysClockFreq+0x1a>
  {
    case RCC_SYSCLKSOURCE_STATUS_HSI:  /* HSI used as system clock source */
    {
      sysclockfreq = HSI_VALUE;
 8001172:	4810      	ldr	r0, [pc, #64]	; (80011b4 <HAL_RCC_GetSysClockFreq+0x54>)
      sysclockfreq = HSI_VALUE;
      break;
    }
  }
  return sysclockfreq;
}
 8001174:	bd08      	pop	{r3, pc}
      sysclockfreq = HSE_VALUE;
 8001176:	4810      	ldr	r0, [pc, #64]	; (80011b8 <HAL_RCC_GetSysClockFreq+0x58>)
 8001178:	bd08      	pop	{r3, pc}
      pllm = RCC->PLLCFGR & RCC_PLLCFGR_PLLM;
 800117a:	684a      	ldr	r2, [r1, #4]
      if (__HAL_RCC_GET_PLL_OSCSOURCE() != RCC_PLLCFGR_PLLSRC_HSI)
 800117c:	684b      	ldr	r3, [r1, #4]
        pllvco = (uint32_t) ((((uint64_t) HSE_VALUE * ((uint64_t) ((RCC->PLLCFGR & RCC_PLLCFGR_PLLN) >> RCC_PLLCFGR_PLLN_Pos)))) / (uint64_t)pllm);
 800117e:	6849      	ldr	r1, [r1, #4]
      pllm = RCC->PLLCFGR & RCC_PLLCFGR_PLLM;
 8001180:	f002 023f 	and.w	r2, r2, #63	; 0x3f
      if (__HAL_RCC_GET_PLL_OSCSOURCE() != RCC_PLLCFGR_PLLSRC_HSI)
 8001184:	f413 0380 	ands.w	r3, r3, #4194304	; 0x400000
        pllvco = (uint32_t) ((((uint64_t) HSE_VALUE * ((uint64_t) ((RCC->PLLCFGR & RCC_PLLCFGR_PLLN) >> RCC_PLLCFGR_PLLN_Pos)))) / (uint64_t)pllm);
 8001188:	f3c1 1188 	ubfx	r1, r1, #6, #9
 800118c:	bf1a      	itte	ne
 800118e:	480a      	ldrne	r0, [pc, #40]	; (80011b8 <HAL_RCC_GetSysClockFreq+0x58>)
 8001190:	2300      	movne	r3, #0
        pllvco = (uint32_t) ((((uint64_t) HSI_VALUE * ((uint64_t) ((RCC->PLLCFGR & RCC_PLLCFGR_PLLN) >> RCC_PLLCFGR_PLLN_Pos)))) / (uint64_t)pllm);
 8001192:	4808      	ldreq	r0, [pc, #32]	; (80011b4 <HAL_RCC_GetSysClockFreq+0x54>)
 8001194:	fba1 0100 	umull	r0, r1, r1, r0
 8001198:	f7ff f84e 	bl	8000238 <__aeabi_uldivmod>
      pllp = ((((RCC->PLLCFGR & RCC_PLLCFGR_PLLP) >> RCC_PLLCFGR_PLLP_Pos) + 1 ) *2);
 800119c:	4b04      	ldr	r3, [pc, #16]	; (80011b0 <HAL_RCC_GetSysClockFreq+0x50>)
 800119e:	685b      	ldr	r3, [r3, #4]
 80011a0:	f3c3 4301 	ubfx	r3, r3, #16, #2
 80011a4:	3301      	adds	r3, #1
 80011a6:	005b      	lsls	r3, r3, #1
      sysclockfreq = pllvco/pllp;
 80011a8:	fbb0 f0f3 	udiv	r0, r0, r3
 80011ac:	bd08      	pop	{r3, pc}
 80011ae:	bf00      	nop
 80011b0:	40023800 	.word	0x40023800
 80011b4:	00f42400 	.word	0x00f42400
 80011b8:	007a1200 	.word	0x007a1200

080011bc <HAL_RCC_ClockConfig>:
{
 80011bc:	e92d 41f0 	stmdb	sp!, {r4, r5, r6, r7, r8, lr}
 80011c0:	460d      	mov	r5, r1
  if(RCC_ClkInitStruct == NULL)
 80011c2:	4604      	mov	r4, r0
 80011c4:	b910      	cbnz	r0, 80011cc <HAL_RCC_ClockConfig+0x10>
    return HAL_ERROR;
 80011c6:	2001      	movs	r0, #1
 80011c8:	e8bd 81f0 	ldmia.w	sp!, {r4, r5, r6, r7, r8, pc}
  if(FLatency > __HAL_FLASH_GET_LATENCY())
 80011cc:	4a46      	ldr	r2, [pc, #280]	; (80012e8 <HAL_RCC_ClockConfig+0x12c>)
 80011ce:	6813      	ldr	r3, [r2, #0]
 80011d0:	f003 030f 	and.w	r3, r3, #15
 80011d4:	428b      	cmp	r3, r1
 80011d6:	d328      	bcc.n	800122a <HAL_RCC_ClockConfig+0x6e>
  if(((RCC_ClkInitStruct->ClockType) & RCC_CLOCKTYPE_HCLK) == RCC_CLOCKTYPE_HCLK)
 80011d8:	6821      	ldr	r1, [r4, #0]
 80011da:	078f      	lsls	r7, r1, #30
 80011dc:	d430      	bmi.n	8001240 <HAL_RCC_ClockConfig+0x84>
  if(((RCC_ClkInitStruct->ClockType) & RCC_CLOCKTYPE_SYSCLK) == RCC_CLOCKTYPE_SYSCLK)
 80011de:	07c8      	lsls	r0, r1, #31
 80011e0:	d443      	bmi.n	800126a <HAL_RCC_ClockConfig+0xae>
  if(FLatency < __HAL_FLASH_GET_LATENCY())
 80011e2:	4a41      	ldr	r2, [pc, #260]	; (80012e8 <HAL_RCC_ClockConfig+0x12c>)
 80011e4:	6813      	ldr	r3, [r2, #0]
 80011e6:	f003 030f 	and.w	r3, r3, #15
 80011ea:	429d      	cmp	r5, r3
 80011ec:	d367      	bcc.n	80012be <HAL_RCC_ClockConfig+0x102>
  if(((RCC_ClkInitStruct->ClockType) & RCC_CLOCKTYPE_PCLK1) == RCC_CLOCKTYPE_PCLK1)
 80011ee:	6822      	ldr	r2, [r4, #0]
 80011f0:	0751      	lsls	r1, r2, #29
 80011f2:	d470      	bmi.n	80012d6 <HAL_RCC_ClockConfig+0x11a>
  if(((RCC_ClkInitStruct->ClockType) & RCC_CLOCKTYPE_PCLK2) == RCC_CLOCKTYPE_PCLK2)
 80011f4:	0713      	lsls	r3, r2, #28
 80011f6:	d507      	bpl.n	8001208 <HAL_RCC_ClockConfig+0x4c>
    MODIFY_REG(RCC->CFGR, RCC_CFGR_PPRE2, ((RCC_ClkInitStruct->APB2CLKDivider) << 3));
 80011f8:	4a3c      	ldr	r2, [pc, #240]	; (80012ec <HAL_RCC_ClockConfig+0x130>)
 80011fa:	6921      	ldr	r1, [r4, #16]
 80011fc:	6893      	ldr	r3, [r2, #8]
 80011fe:	f423 4360 	bic.w	r3, r3, #57344	; 0xe000
 8001202:	ea43 03c1 	orr.w	r3, r3, r1, lsl #3
 8001206:	6093      	str	r3, [r2, #8]
  SystemCoreClock = HAL_RCC_GetSysClockFreq() >> AHBPrescTable[(RCC->CFGR & RCC_CFGR_HPRE)>> RCC_CFGR_HPRE_Pos];
 8001208:	f7ff ffaa 	bl	8001160 <HAL_RCC_GetSysClockFreq>
 800120c:	4b37      	ldr	r3, [pc, #220]	; (80012ec <HAL_RCC_ClockConfig+0x130>)
 800120e:	4a38      	ldr	r2, [pc, #224]	; (80012f0 <HAL_RCC_ClockConfig+0x134>)
 8001210:	689b      	ldr	r3, [r3, #8]
 8001212:	f3c3 1303 	ubfx	r3, r3, #4, #4
 8001216:	5cd3      	ldrb	r3, [r2, r3]
 8001218:	40d8      	lsrs	r0, r3
 800121a:	4b36      	ldr	r3, [pc, #216]	; (80012f4 <HAL_RCC_ClockConfig+0x138>)
 800121c:	6018      	str	r0, [r3, #0]
  HAL_InitTick (TICK_INT_PRIORITY);
 800121e:	2000      	movs	r0, #0
 8001220:	f7ff f992 	bl	8000548 <HAL_InitTick>
  return HAL_OK;
 8001224:	2000      	movs	r0, #0
 8001226:	e8bd 81f0 	ldmia.w	sp!, {r4, r5, r6, r7, r8, pc}
    __HAL_FLASH_SET_LATENCY(FLatency);
 800122a:	6813      	ldr	r3, [r2, #0]
 800122c:	f023 030f 	bic.w	r3, r3, #15
 8001230:	430b      	orrs	r3, r1
 8001232:	6013      	str	r3, [r2, #0]
    if(__HAL_FLASH_GET_LATENCY() != FLatency)
 8001234:	6813      	ldr	r3, [r2, #0]
 8001236:	f003 030f 	and.w	r3, r3, #15
 800123a:	4299      	cmp	r1, r3
 800123c:	d1c3      	bne.n	80011c6 <HAL_RCC_ClockConfig+0xa>
 800123e:	e7cb      	b.n	80011d8 <HAL_RCC_ClockConfig+0x1c>
    if(((RCC_ClkInitStruct->ClockType) & RCC_CLOCKTYPE_PCLK1) == RCC_CLOCKTYPE_PCLK1)
 8001240:	f011 0f04 	tst.w	r1, #4
 8001244:	4b29      	ldr	r3, [pc, #164]	; (80012ec <HAL_RCC_ClockConfig+0x130>)
 8001246:	d003      	beq.n	8001250 <HAL_RCC_ClockConfig+0x94>
      MODIFY_REG(RCC->CFGR, RCC_CFGR_PPRE1, RCC_HCLK_DIV16);
 8001248:	689a      	ldr	r2, [r3, #8]
 800124a:	f442 52e0 	orr.w	r2, r2, #7168	; 0x1c00
 800124e:	609a      	str	r2, [r3, #8]
    if(((RCC_ClkInitStruct->ClockType) & RCC_CLOCKTYPE_PCLK2) == RCC_CLOCKTYPE_PCLK2)
 8001250:	070e      	lsls	r6, r1, #28
 8001252:	d503      	bpl.n	800125c <HAL_RCC_ClockConfig+0xa0>
      MODIFY_REG(RCC->CFGR, RCC_CFGR_PPRE2, (RCC_HCLK_DIV16 << 3));
 8001254:	689a      	ldr	r2, [r3, #8]
 8001256:	f442 4260 	orr.w	r2, r2, #57344	; 0xe000
 800125a:	609a      	str	r2, [r3, #8]
    MODIFY_REG(RCC->CFGR, RCC_CFGR_HPRE, RCC_ClkInitStruct->AHBCLKDivider);
 800125c:	689a      	ldr	r2, [r3, #8]
 800125e:	68a0      	ldr	r0, [r4, #8]
 8001260:	f022 02f0 	bic.w	r2, r2, #240	; 0xf0
 8001264:	4302      	orrs	r2, r0
 8001266:	609a      	str	r2, [r3, #8]
 8001268:	e7b9      	b.n	80011de <HAL_RCC_ClockConfig+0x22>
    if(RCC_ClkInitStruct->SYSCLKSource == RCC_SYSCLKSOURCE_HSE)
 800126a:	6861      	ldr	r1, [r4, #4]
 800126c:	4b1f      	ldr	r3, [pc, #124]	; (80012ec <HAL_RCC_ClockConfig+0x130>)
 800126e:	2901      	cmp	r1, #1
      if(__HAL_RCC_GET_FLAG(RCC_FLAG_HSERDY) == RESET)
 8001270:	681a      	ldr	r2, [r3, #0]
    if(RCC_ClkInitStruct->SYSCLKSource == RCC_SYSCLKSOURCE_HSE)
 8001272:	d11c      	bne.n	80012ae <HAL_RCC_ClockConfig+0xf2>
      if(__HAL_RCC_GET_FLAG(RCC_FLAG_HSERDY) == RESET)
 8001274:	f412 3f00 	tst.w	r2, #131072	; 0x20000
      if(__HAL_RCC_GET_FLAG(RCC_FLAG_HSIRDY) == RESET)
 8001278:	d0a5      	beq.n	80011c6 <HAL_RCC_ClockConfig+0xa>
    __HAL_RCC_SYSCLK_CONFIG(RCC_ClkInitStruct->SYSCLKSource);
 800127a:	689a      	ldr	r2, [r3, #8]
      if ((HAL_GetTick() - tickstart) > CLOCKSWITCH_TIMEOUT_VALUE)
 800127c:	f241 3888 	movw	r8, #5000	; 0x1388
    while (__HAL_RCC_GET_SYSCLK_SOURCE() != (RCC_ClkInitStruct->SYSCLKSource << RCC_CFGR_SWS_Pos))
 8001280:	4e1a      	ldr	r6, [pc, #104]	; (80012ec <HAL_RCC_ClockConfig+0x130>)
    __HAL_RCC_SYSCLK_CONFIG(RCC_ClkInitStruct->SYSCLKSource);
 8001282:	f022 0203 	bic.w	r2, r2, #3
 8001286:	430a      	orrs	r2, r1
 8001288:	609a      	str	r2, [r3, #8]
    tickstart = HAL_GetTick();
 800128a:	f7ff f999 	bl	80005c0 <HAL_GetTick>
 800128e:	4607      	mov	r7, r0
    while (__HAL_RCC_GET_SYSCLK_SOURCE() != (RCC_ClkInitStruct->SYSCLKSource << RCC_CFGR_SWS_Pos))
 8001290:	68b3      	ldr	r3, [r6, #8]
 8001292:	6862      	ldr	r2, [r4, #4]
 8001294:	f003 030c 	and.w	r3, r3, #12
 8001298:	ebb3 0f82 	cmp.w	r3, r2, lsl #2
 800129c:	d0a1      	beq.n	80011e2 <HAL_RCC_ClockConfig+0x26>
      if ((HAL_GetTick() - tickstart) > CLOCKSWITCH_TIMEOUT_VALUE)
 800129e:	f7ff f98f 	bl	80005c0 <HAL_GetTick>
 80012a2:	1bc0      	subs	r0, r0, r7
 80012a4:	4540      	cmp	r0, r8
 80012a6:	d9f3      	bls.n	8001290 <HAL_RCC_ClockConfig+0xd4>
        return HAL_TIMEOUT;
 80012a8:	2003      	movs	r0, #3
}
 80012aa:	e8bd 81f0 	ldmia.w	sp!, {r4, r5, r6, r7, r8, pc}
    else if(RCC_ClkInitStruct->SYSCLKSource == RCC_SYSCLKSOURCE_PLLCLK)
 80012ae:	2902      	cmp	r1, #2
 80012b0:	d102      	bne.n	80012b8 <HAL_RCC_ClockConfig+0xfc>
      if(__HAL_RCC_GET_FLAG(RCC_FLAG_PLLRDY) == RESET)
 80012b2:	f012 7f00 	tst.w	r2, #33554432	; 0x2000000
 80012b6:	e7df      	b.n	8001278 <HAL_RCC_ClockConfig+0xbc>
      if(__HAL_RCC_GET_FLAG(RCC_FLAG_HSIRDY) == RESET)
 80012b8:	f012 0f02 	tst.w	r2, #2
 80012bc:	e7dc      	b.n	8001278 <HAL_RCC_ClockConfig+0xbc>
    __HAL_FLASH_SET_LATENCY(FLatency);
 80012be:	6813      	ldr	r3, [r2, #0]
 80012c0:	f023 030f 	bic.w	r3, r3, #15
 80012c4:	432b      	orrs	r3, r5
 80012c6:	6013      	str	r3, [r2, #0]
    if(__HAL_FLASH_GET_LATENCY() != FLatency)
 80012c8:	6813      	ldr	r3, [r2, #0]
 80012ca:	f003 030f 	and.w	r3, r3, #15
 80012ce:	429d      	cmp	r5, r3
 80012d0:	f47f af79 	bne.w	80011c6 <HAL_RCC_ClockConfig+0xa>
 80012d4:	e78b      	b.n	80011ee <HAL_RCC_ClockConfig+0x32>
    MODIFY_REG(RCC->CFGR, RCC_CFGR_PPRE1, RCC_ClkInitStruct->APB1CLKDivider);
 80012d6:	4905      	ldr	r1, [pc, #20]	; (80012ec <HAL_RCC_ClockConfig+0x130>)
 80012d8:	68e0      	ldr	r0, [r4, #12]
 80012da:	688b      	ldr	r3, [r1, #8]
 80012dc:	f423 53e0 	bic.w	r3, r3, #7168	; 0x1c00
 80012e0:	4303      	orrs	r3, r0
 80012e2:	608b      	str	r3, [r1, #8]
 80012e4:	e786      	b.n	80011f4 <HAL_RCC_ClockConfig+0x38>
 80012e6:	bf00      	nop
 80012e8:	40023c00 	.word	0x40023c00
 80012ec:	40023800 	.word	0x40023800
 80012f0:	08002ab5 	.word	0x08002ab5
 80012f4:	20000008 	.word	0x20000008

080012f8 <HAL_RCC_GetHCLKFreq>:
  * @retval HCLK frequency
  */
uint32_t HAL_RCC_GetHCLKFreq(void)
{
  return SystemCoreClock;
}
 80012f8:	4b01      	ldr	r3, [pc, #4]	; (8001300 <HAL_RCC_GetHCLKFreq+0x8>)
 80012fa:	6818      	ldr	r0, [r3, #0]
 80012fc:	4770      	bx	lr
 80012fe:	bf00      	nop
 8001300:	20000008 	.word	0x20000008

08001304 <HAL_RCC_GetPCLK1Freq>:
  * @retval PCLK1 frequency
  */
uint32_t HAL_RCC_GetPCLK1Freq(void)
{
  /* Get HCLK source and Compute PCLK1 frequency ---------------------------*/
  return (HAL_RCC_GetHCLKFreq() >> APBPrescTable[(RCC->CFGR & RCC_CFGR_PPRE1)>> RCC_CFGR_PPRE1_Pos]);
 8001304:	4b04      	ldr	r3, [pc, #16]	; (8001318 <HAL_RCC_GetPCLK1Freq+0x14>)
 8001306:	4a05      	ldr	r2, [pc, #20]	; (800131c <HAL_RCC_GetPCLK1Freq+0x18>)
 8001308:	689b      	ldr	r3, [r3, #8]
 800130a:	f3c3 2382 	ubfx	r3, r3, #10, #3
 800130e:	5cd3      	ldrb	r3, [r2, r3]
 8001310:	4a03      	ldr	r2, [pc, #12]	; (8001320 <HAL_RCC_GetPCLK1Freq+0x1c>)
 8001312:	6810      	ldr	r0, [r2, #0]
}
 8001314:	40d8      	lsrs	r0, r3
 8001316:	4770      	bx	lr
 8001318:	40023800 	.word	0x40023800
 800131c:	08002ac5 	.word	0x08002ac5
 8001320:	20000008 	.word	0x20000008

08001324 <HAL_RCC_GetPCLK2Freq>:
  * @retval PCLK2 frequency
  */
uint32_t HAL_RCC_GetPCLK2Freq(void)
{
  /* Get HCLK source and Compute PCLK2 frequency ---------------------------*/
  return (HAL_RCC_GetHCLKFreq()>> APBPrescTable[(RCC->CFGR & RCC_CFGR_PPRE2)>> RCC_CFGR_PPRE2_Pos]);
 8001324:	4b04      	ldr	r3, [pc, #16]	; (8001338 <HAL_RCC_GetPCLK2Freq+0x14>)
 8001326:	4a05      	ldr	r2, [pc, #20]	; (800133c <HAL_RCC_GetPCLK2Freq+0x18>)
 8001328:	689b      	ldr	r3, [r3, #8]
 800132a:	f3c3 3342 	ubfx	r3, r3, #13, #3
 800132e:	5cd3      	ldrb	r3, [r2, r3]
 8001330:	4a03      	ldr	r2, [pc, #12]	; (8001340 <HAL_RCC_GetPCLK2Freq+0x1c>)
 8001332:	6810      	ldr	r0, [r2, #0]
}
 8001334:	40d8      	lsrs	r0, r3
 8001336:	4770      	bx	lr
 8001338:	40023800 	.word	0x40023800
 800133c:	08002ac5 	.word	0x08002ac5
 8001340:	20000008 	.word	0x20000008

08001344 <HAL_RCCEx_PeriphCLKConfig>:
  *         the backup registers) are set to their reset values.
  *
  * @retval HAL status
  */
HAL_StatusTypeDef HAL_RCCEx_PeriphCLKConfig(RCC_PeriphCLKInitTypeDef  *PeriphClkInit)
{
 8001344:	e92d 43f7 	stmdb	sp!, {r0, r1, r2, r4, r5, r6, r7, r8, r9, lr}

  /* Check the parameters */
  assert_param(IS_RCC_PERIPHCLOCK(PeriphClkInit->PeriphClockSelection));

  /*----------------------------------- I2S configuration ----------------------------------*/
  if(((PeriphClkInit->PeriphClockSelection) & RCC_PERIPHCLK_I2S) == (RCC_PERIPHCLK_I2S))
 8001348:	6802      	ldr	r2, [r0, #0]
{
 800134a:	4604      	mov	r4, r0
  if(((PeriphClkInit->PeriphClockSelection) & RCC_PERIPHCLK_I2S) == (RCC_PERIPHCLK_I2S))
 800134c:	f012 0601 	ands.w	r6, r2, #1
 8001350:	d00b      	beq.n	800136a <HAL_RCCEx_PeriphCLKConfig+0x26>
  {
    /* Check the parameters */
    assert_param(IS_RCC_I2SCLKSOURCE(PeriphClkInit->I2sClockSelection));

    /* Configure I2S Clock source */
    __HAL_RCC_I2S_CONFIG(PeriphClkInit->I2sClockSelection);
 8001352:	4bba      	ldr	r3, [pc, #744]	; (800163c <HAL_RCCEx_PeriphCLKConfig+0x2f8>)
 8001354:	6899      	ldr	r1, [r3, #8]
 8001356:	f421 0100 	bic.w	r1, r1, #8388608	; 0x800000
 800135a:	6099      	str	r1, [r3, #8]
 800135c:	6b46      	ldr	r6, [r0, #52]	; 0x34
 800135e:	6899      	ldr	r1, [r3, #8]
 8001360:	4331      	orrs	r1, r6

    /* Enable the PLLI2S when it's used as clock source for I2S */
    if(PeriphClkInit->I2sClockSelection == RCC_I2SCLKSOURCE_PLLI2S)
 8001362:	fab6 f686 	clz	r6, r6
 8001366:	0976      	lsrs	r6, r6, #5
    __HAL_RCC_I2S_CONFIG(PeriphClkInit->I2sClockSelection);
 8001368:	6099      	str	r1, [r3, #8]
      plli2sused = 1;
    }
  }

  /*------------------------------------ SAI1 configuration --------------------------------------*/
  if(((PeriphClkInit->PeriphClockSelection) & RCC_PERIPHCLK_SAI1) == (RCC_PERIPHCLK_SAI1))
 800136a:	f412 2500 	ands.w	r5, r2, #524288	; 0x80000
 800136e:	d012      	beq.n	8001396 <HAL_RCCEx_PeriphCLKConfig+0x52>
  {
    /* Check the parameters */
    assert_param(IS_RCC_SAI1CLKSOURCE(PeriphClkInit->Sai1ClockSelection));

    /* Configure SAI1 Clock source */
    __HAL_RCC_SAI1_CONFIG(PeriphClkInit->Sai1ClockSelection);
 8001370:	49b2      	ldr	r1, [pc, #712]	; (800163c <HAL_RCCEx_PeriphCLKConfig+0x2f8>)
 8001372:	6be5      	ldr	r5, [r4, #60]	; 0x3c
 8001374:	f8d1 308c 	ldr.w	r3, [r1, #140]	; 0x8c
    /* Enable the PLLI2S when it's used as clock source for SAI */
    if(PeriphClkInit->Sai1ClockSelection == RCC_SAI1CLKSOURCE_PLLI2S)
 8001378:	f5b5 1f80 	cmp.w	r5, #1048576	; 0x100000
    __HAL_RCC_SAI1_CONFIG(PeriphClkInit->Sai1ClockSelection);
 800137c:	f423 1340 	bic.w	r3, r3, #3145728	; 0x300000
    {
      plli2sused = 1;
 8001380:	bf08      	it	eq
 8001382:	2601      	moveq	r6, #1
    __HAL_RCC_SAI1_CONFIG(PeriphClkInit->Sai1ClockSelection);
 8001384:	ea43 0305 	orr.w	r3, r3, r5
    }
    /* Enable the PLLSAI when it's used as clock source for SAI */
    if(PeriphClkInit->Sai1ClockSelection == RCC_SAI1CLKSOURCE_PLLSAI)
 8001388:	bf16      	itet	ne
 800138a:	fab5 f585 	clzne	r5, r5
  uint32_t pllsaiused = 0;
 800138e:	2500      	moveq	r5, #0
    if(PeriphClkInit->Sai1ClockSelection == RCC_SAI1CLKSOURCE_PLLSAI)
 8001390:	096d      	lsrne	r5, r5, #5
    __HAL_RCC_SAI1_CONFIG(PeriphClkInit->Sai1ClockSelection);
 8001392:	f8c1 308c 	str.w	r3, [r1, #140]	; 0x8c
      pllsaiused = 1;
    }
  }

  /*------------------------------------ SAI2 configuration --------------------------------------*/
  if(((PeriphClkInit->PeriphClockSelection) & RCC_PERIPHCLK_SAI2) == (RCC_PERIPHCLK_SAI2))
 8001396:	02d7      	lsls	r7, r2, #11
 8001398:	d510      	bpl.n	80013bc <HAL_RCCEx_PeriphCLKConfig+0x78>
  {
    /* Check the parameters */
    assert_param(IS_RCC_SAI2CLKSOURCE(PeriphClkInit->Sai2ClockSelection));

    /* Configure SAI2 Clock source */
    __HAL_RCC_SAI2_CONFIG(PeriphClkInit->Sai2ClockSelection);
 800139a:	48a8      	ldr	r0, [pc, #672]	; (800163c <HAL_RCCEx_PeriphCLKConfig+0x2f8>)
 800139c:	6c21      	ldr	r1, [r4, #64]	; 0x40
 800139e:	f8d0 308c 	ldr.w	r3, [r0, #140]	; 0x8c

    /* Enable the PLLI2S when it's used as clock source for SAI */
    if(PeriphClkInit->Sai2ClockSelection == RCC_SAI2CLKSOURCE_PLLI2S)
 80013a2:	f5b1 0f80 	cmp.w	r1, #4194304	; 0x400000
    __HAL_RCC_SAI2_CONFIG(PeriphClkInit->Sai2ClockSelection);
 80013a6:	f423 0340 	bic.w	r3, r3, #12582912	; 0xc00000
 80013aa:	ea43 0301 	orr.w	r3, r3, r1
 80013ae:	f8c0 308c 	str.w	r3, [r0, #140]	; 0x8c
    if(PeriphClkInit->Sai2ClockSelection == RCC_SAI2CLKSOURCE_PLLI2S)
 80013b2:	f000 81a9 	beq.w	8001708 <HAL_RCCEx_PeriphCLKConfig+0x3c4>
      plli2sused = 1;
    }
    /* Enable the PLLSAI when it's used as clock source for SAI */
    if(PeriphClkInit->Sai2ClockSelection == RCC_SAI2CLKSOURCE_PLLSAI)
    {
      pllsaiused = 1;
 80013b6:	2900      	cmp	r1, #0
 80013b8:	bf08      	it	eq
 80013ba:	2501      	moveq	r5, #1
  }

  /*-------------------------------------- SPDIF-RX Configuration -----------------------------------*/
  if(((PeriphClkInit->PeriphClockSelection) & RCC_PERIPHCLK_SPDIFRX) == RCC_PERIPHCLK_SPDIFRX)
  {
      plli2sused = 1;
 80013bc:	f012 7f80 	tst.w	r2, #16777216	; 0x1000000
 80013c0:	bf18      	it	ne
 80013c2:	2601      	movne	r6, #1
  }

  /*------------------------------------ RTC configuration --------------------------------------*/
  if(((PeriphClkInit->PeriphClockSelection) & RCC_PERIPHCLK_RTC) == (RCC_PERIPHCLK_RTC))
 80013c4:	0690      	lsls	r0, r2, #26
 80013c6:	d531      	bpl.n	800142c <HAL_RCCEx_PeriphCLKConfig+0xe8>
  {
    /* Check for RTC Parameters used to output RTCCLK */
    assert_param(IS_RCC_RTCCLKSOURCE(PeriphClkInit->RTCClockSelection));

    /* Enable Power Clock*/
    __HAL_RCC_PWR_CLK_ENABLE();
 80013c8:	4b9c      	ldr	r3, [pc, #624]	; (800163c <HAL_RCCEx_PeriphCLKConfig+0x2f8>)

    /* Enable write access to Backup domain */
    PWR->CR1 |= PWR_CR1_DBP;
 80013ca:	4f9d      	ldr	r7, [pc, #628]	; (8001640 <HAL_RCCEx_PeriphCLKConfig+0x2fc>)
    __HAL_RCC_PWR_CLK_ENABLE();
 80013cc:	6c1a      	ldr	r2, [r3, #64]	; 0x40
 80013ce:	f042 5280 	orr.w	r2, r2, #268435456	; 0x10000000
 80013d2:	641a      	str	r2, [r3, #64]	; 0x40
 80013d4:	6c1b      	ldr	r3, [r3, #64]	; 0x40
 80013d6:	f003 5380 	and.w	r3, r3, #268435456	; 0x10000000
 80013da:	9301      	str	r3, [sp, #4]
 80013dc:	9b01      	ldr	r3, [sp, #4]
    PWR->CR1 |= PWR_CR1_DBP;
 80013de:	683b      	ldr	r3, [r7, #0]
 80013e0:	f443 7380 	orr.w	r3, r3, #256	; 0x100
 80013e4:	603b      	str	r3, [r7, #0]

    /* Get Start Tick*/
    tickstart = HAL_GetTick();
 80013e6:	f7ff f8eb 	bl	80005c0 <HAL_GetTick>
 80013ea:	4680      	mov	r8, r0

    /* Wait for Backup domain Write protection disable */
    while((PWR->CR1 & PWR_CR1_DBP) == RESET)
 80013ec:	683b      	ldr	r3, [r7, #0]
 80013ee:	05d9      	lsls	r1, r3, #23
 80013f0:	f140 818c 	bpl.w	800170c <HAL_RCCEx_PeriphCLKConfig+0x3c8>
        return HAL_TIMEOUT;
      }
    }

    /* Reset the Backup domain only if the RTC Clock source selection is modified */
    tmpreg0 = (RCC->BDCR & RCC_BDCR_RTCSEL);
 80013f4:	4f91      	ldr	r7, [pc, #580]	; (800163c <HAL_RCCEx_PeriphCLKConfig+0x2f8>)
 80013f6:	6f3b      	ldr	r3, [r7, #112]	; 0x70

    if((tmpreg0 != 0x00000000U) && (tmpreg0 != (PeriphClkInit->RTCClockSelection & RCC_BDCR_RTCSEL)))
 80013f8:	f413 7340 	ands.w	r3, r3, #768	; 0x300
 80013fc:	f040 8191 	bne.w	8001722 <HAL_RCCEx_PeriphCLKConfig+0x3de>
            return HAL_TIMEOUT;
          }
        }
      }
    }
    __HAL_RCC_RTC_CONFIG(PeriphClkInit->RTCClockSelection);
 8001400:	6b23      	ldr	r3, [r4, #48]	; 0x30
 8001402:	f403 7240 	and.w	r2, r3, #768	; 0x300
 8001406:	f5b2 7f40 	cmp.w	r2, #768	; 0x300
 800140a:	4a8c      	ldr	r2, [pc, #560]	; (800163c <HAL_RCCEx_PeriphCLKConfig+0x2f8>)
 800140c:	f040 81af 	bne.w	800176e <HAL_RCCEx_PeriphCLKConfig+0x42a>
 8001410:	6891      	ldr	r1, [r2, #8]
 8001412:	f023 4070 	bic.w	r0, r3, #4026531840	; 0xf0000000
 8001416:	f421 11f8 	bic.w	r1, r1, #2031616	; 0x1f0000
 800141a:	f420 7040 	bic.w	r0, r0, #768	; 0x300
 800141e:	4301      	orrs	r1, r0
 8001420:	6091      	str	r1, [r2, #8]
 8001422:	f3c3 030b 	ubfx	r3, r3, #0, #12
 8001426:	6f11      	ldr	r1, [r2, #112]	; 0x70
 8001428:	430b      	orrs	r3, r1
 800142a:	6713      	str	r3, [r2, #112]	; 0x70
  }

  /*------------------------------------ TIM configuration --------------------------------------*/
  if(((PeriphClkInit->PeriphClockSelection) & RCC_PERIPHCLK_TIM) == (RCC_PERIPHCLK_TIM))
 800142c:	6823      	ldr	r3, [r4, #0]
 800142e:	06df      	lsls	r7, r3, #27
 8001430:	d50c      	bpl.n	800144c <HAL_RCCEx_PeriphCLKConfig+0x108>
  {
    /* Check the parameters */
    assert_param(IS_RCC_TIMPRES(PeriphClkInit->TIMPresSelection));

    /* Configure Timer Prescaler */
    __HAL_RCC_TIMCLKPRESCALER(PeriphClkInit->TIMPresSelection);
 8001432:	4a82      	ldr	r2, [pc, #520]	; (800163c <HAL_RCCEx_PeriphCLKConfig+0x2f8>)
 8001434:	f8d2 108c 	ldr.w	r1, [r2, #140]	; 0x8c
 8001438:	f021 7180 	bic.w	r1, r1, #16777216	; 0x1000000
 800143c:	f8c2 108c 	str.w	r1, [r2, #140]	; 0x8c
 8001440:	f8d2 108c 	ldr.w	r1, [r2, #140]	; 0x8c
 8001444:	6ba0      	ldr	r0, [r4, #56]	; 0x38
 8001446:	4301      	orrs	r1, r0
 8001448:	f8c2 108c 	str.w	r1, [r2, #140]	; 0x8c
  }

  /*-------------------------------------- I2C1 Configuration -----------------------------------*/
  if(((PeriphClkInit->PeriphClockSelection) & RCC_PERIPHCLK_I2C1) == RCC_PERIPHCLK_I2C1)
 800144c:	0458      	lsls	r0, r3, #17
 800144e:	d508      	bpl.n	8001462 <HAL_RCCEx_PeriphCLKConfig+0x11e>
  {
    /* Check the parameters */
    assert_param(IS_RCC_I2C1CLKSOURCE(PeriphClkInit->I2c1ClockSelection));

    /* Configure the I2C1 clock source */
    __HAL_RCC_I2C1_CONFIG(PeriphClkInit->I2c1ClockSelection);
 8001450:	497a      	ldr	r1, [pc, #488]	; (800163c <HAL_RCCEx_PeriphCLKConfig+0x2f8>)
 8001452:	6e60      	ldr	r0, [r4, #100]	; 0x64
 8001454:	f8d1 2090 	ldr.w	r2, [r1, #144]	; 0x90
 8001458:	f422 3240 	bic.w	r2, r2, #196608	; 0x30000
 800145c:	4302      	orrs	r2, r0
 800145e:	f8c1 2090 	str.w	r2, [r1, #144]	; 0x90
  }

  /*-------------------------------------- I2C2 Configuration -----------------------------------*/
  if(((PeriphClkInit->PeriphClockSelection) & RCC_PERIPHCLK_I2C2) == RCC_PERIPHCLK_I2C2)
 8001462:	0419      	lsls	r1, r3, #16
 8001464:	d508      	bpl.n	8001478 <HAL_RCCEx_PeriphCLKConfig+0x134>
  {
    /* Check the parameters */
    assert_param(IS_RCC_I2C2CLKSOURCE(PeriphClkInit->I2c2ClockSelection));

    /* Configure the I2C2 clock source */
    __HAL_RCC_I2C2_CONFIG(PeriphClkInit->I2c2ClockSelection);
 8001466:	4975      	ldr	r1, [pc, #468]	; (800163c <HAL_RCCEx_PeriphCLKConfig+0x2f8>)
 8001468:	6ea0      	ldr	r0, [r4, #104]	; 0x68
 800146a:	f8d1 2090 	ldr.w	r2, [r1, #144]	; 0x90
 800146e:	f422 2240 	bic.w	r2, r2, #786432	; 0xc0000
 8001472:	4302      	orrs	r2, r0
 8001474:	f8c1 2090 	str.w	r2, [r1, #144]	; 0x90
  }

  /*-------------------------------------- I2C3 Configuration -----------------------------------*/
  if(((PeriphClkInit->PeriphClockSelection) & RCC_PERIPHCLK_I2C3) == RCC_PERIPHCLK_I2C3)
 8001478:	03da      	lsls	r2, r3, #15
 800147a:	d508      	bpl.n	800148e <HAL_RCCEx_PeriphCLKConfig+0x14a>
  {
    /* Check the parameters */
    assert_param(IS_RCC_I2C3CLKSOURCE(PeriphClkInit->I2c3ClockSelection));

    /* Configure the I2C3 clock source */
    __HAL_RCC_I2C3_CONFIG(PeriphClkInit->I2c3ClockSelection);
 800147c:	496f      	ldr	r1, [pc, #444]	; (800163c <HAL_RCCEx_PeriphCLKConfig+0x2f8>)
 800147e:	6ee0      	ldr	r0, [r4, #108]	; 0x6c
 8001480:	f8d1 2090 	ldr.w	r2, [r1, #144]	; 0x90
 8001484:	f422 1240 	bic.w	r2, r2, #3145728	; 0x300000
 8001488:	4302      	orrs	r2, r0
 800148a:	f8c1 2090 	str.w	r2, [r1, #144]	; 0x90
  }

  /*-------------------------------------- I2C4 Configuration -----------------------------------*/
  if(((PeriphClkInit->PeriphClockSelection) & RCC_PERIPHCLK_I2C4) == RCC_PERIPHCLK_I2C4)
 800148e:	039f      	lsls	r7, r3, #14
 8001490:	d508      	bpl.n	80014a4 <HAL_RCCEx_PeriphCLKConfig+0x160>
  {
    /* Check the parameters */
    assert_param(IS_RCC_I2C4CLKSOURCE(PeriphClkInit->I2c4ClockSelection));

    /* Configure the I2C4 clock source */
    __HAL_RCC_I2C4_CONFIG(PeriphClkInit->I2c4ClockSelection);
 8001492:	496a      	ldr	r1, [pc, #424]	; (800163c <HAL_RCCEx_PeriphCLKConfig+0x2f8>)
 8001494:	6f20      	ldr	r0, [r4, #112]	; 0x70
 8001496:	f8d1 2090 	ldr.w	r2, [r1, #144]	; 0x90
 800149a:	f422 0240 	bic.w	r2, r2, #12582912	; 0xc00000
 800149e:	4302      	orrs	r2, r0
 80014a0:	f8c1 2090 	str.w	r2, [r1, #144]	; 0x90
  }

  /*-------------------------------------- USART1 Configuration -----------------------------------*/
  if(((PeriphClkInit->PeriphClockSelection) & RCC_PERIPHCLK_USART1) == RCC_PERIPHCLK_USART1)
 80014a4:	0658      	lsls	r0, r3, #25
 80014a6:	d508      	bpl.n	80014ba <HAL_RCCEx_PeriphCLKConfig+0x176>
  {
    /* Check the parameters */
    assert_param(IS_RCC_USART1CLKSOURCE(PeriphClkInit->Usart1ClockSelection));

    /* Configure the USART1 clock source */
    __HAL_RCC_USART1_CONFIG(PeriphClkInit->Usart1ClockSelection);
 80014a8:	4964      	ldr	r1, [pc, #400]	; (800163c <HAL_RCCEx_PeriphCLKConfig+0x2f8>)
 80014aa:	6c60      	ldr	r0, [r4, #68]	; 0x44
 80014ac:	f8d1 2090 	ldr.w	r2, [r1, #144]	; 0x90
 80014b0:	f022 0203 	bic.w	r2, r2, #3
 80014b4:	4302      	orrs	r2, r0
 80014b6:	f8c1 2090 	str.w	r2, [r1, #144]	; 0x90
  }

  /*-------------------------------------- USART2 Configuration -----------------------------------*/
  if(((PeriphClkInit->PeriphClockSelection) & RCC_PERIPHCLK_USART2) == RCC_PERIPHCLK_USART2)
 80014ba:	0619      	lsls	r1, r3, #24
 80014bc:	d508      	bpl.n	80014d0 <HAL_RCCEx_PeriphCLKConfig+0x18c>
  {
    /* Check the parameters */
    assert_param(IS_RCC_USART2CLKSOURCE(PeriphClkInit->Usart2ClockSelection));

    /* Configure the USART2 clock source */
    __HAL_RCC_USART2_CONFIG(PeriphClkInit->Usart2ClockSelection);
 80014be:	495f      	ldr	r1, [pc, #380]	; (800163c <HAL_RCCEx_PeriphCLKConfig+0x2f8>)
 80014c0:	6ca0      	ldr	r0, [r4, #72]	; 0x48
 80014c2:	f8d1 2090 	ldr.w	r2, [r1, #144]	; 0x90
 80014c6:	f022 020c 	bic.w	r2, r2, #12
 80014ca:	4302      	orrs	r2, r0
 80014cc:	f8c1 2090 	str.w	r2, [r1, #144]	; 0x90
  }

  /*-------------------------------------- USART3 Configuration -----------------------------------*/
  if(((PeriphClkInit->PeriphClockSelection) & RCC_PERIPHCLK_USART3) == RCC_PERIPHCLK_USART3)
 80014d0:	05da      	lsls	r2, r3, #23
 80014d2:	d508      	bpl.n	80014e6 <HAL_RCCEx_PeriphCLKConfig+0x1a2>
  {
    /* Check the parameters */
    assert_param(IS_RCC_USART3CLKSOURCE(PeriphClkInit->Usart3ClockSelection));

    /* Configure the USART3 clock source */
    __HAL_RCC_USART3_CONFIG(PeriphClkInit->Usart3ClockSelection);
 80014d4:	4959      	ldr	r1, [pc, #356]	; (800163c <HAL_RCCEx_PeriphCLKConfig+0x2f8>)
 80014d6:	6ce0      	ldr	r0, [r4, #76]	; 0x4c
 80014d8:	f8d1 2090 	ldr.w	r2, [r1, #144]	; 0x90
 80014dc:	f022 0230 	bic.w	r2, r2, #48	; 0x30
 80014e0:	4302      	orrs	r2, r0
 80014e2:	f8c1 2090 	str.w	r2, [r1, #144]	; 0x90
  }

  /*-------------------------------------- UART4 Configuration -----------------------------------*/
  if(((PeriphClkInit->PeriphClockSelection) & RCC_PERIPHCLK_UART4) == RCC_PERIPHCLK_UART4)
 80014e6:	059f      	lsls	r7, r3, #22
 80014e8:	d508      	bpl.n	80014fc <HAL_RCCEx_PeriphCLKConfig+0x1b8>
  {
    /* Check the parameters */
    assert_param(IS_RCC_UART4CLKSOURCE(PeriphClkInit->Uart4ClockSelection));

    /* Configure the UART4 clock source */
    __HAL_RCC_UART4_CONFIG(PeriphClkInit->Uart4ClockSelection);
 80014ea:	4954      	ldr	r1, [pc, #336]	; (800163c <HAL_RCCEx_PeriphCLKConfig+0x2f8>)
 80014ec:	6d20      	ldr	r0, [r4, #80]	; 0x50
 80014ee:	f8d1 2090 	ldr.w	r2, [r1, #144]	; 0x90
 80014f2:	f022 02c0 	bic.w	r2, r2, #192	; 0xc0
 80014f6:	4302      	orrs	r2, r0
 80014f8:	f8c1 2090 	str.w	r2, [r1, #144]	; 0x90
  }

  /*-------------------------------------- UART5 Configuration -----------------------------------*/
  if(((PeriphClkInit->PeriphClockSelection) & RCC_PERIPHCLK_UART5) == RCC_PERIPHCLK_UART5)
 80014fc:	0558      	lsls	r0, r3, #21
 80014fe:	d508      	bpl.n	8001512 <HAL_RCCEx_PeriphCLKConfig+0x1ce>
  {
    /* Check the parameters */
    assert_param(IS_RCC_UART5CLKSOURCE(PeriphClkInit->Uart5ClockSelection));

    /* Configure the UART5 clock source */
    __HAL_RCC_UART5_CONFIG(PeriphClkInit->Uart5ClockSelection);
 8001500:	494e      	ldr	r1, [pc, #312]	; (800163c <HAL_RCCEx_PeriphCLKConfig+0x2f8>)
 8001502:	6d60      	ldr	r0, [r4, #84]	; 0x54
 8001504:	f8d1 2090 	ldr.w	r2, [r1, #144]	; 0x90
 8001508:	f422 7240 	bic.w	r2, r2, #768	; 0x300
 800150c:	4302      	orrs	r2, r0
 800150e:	f8c1 2090 	str.w	r2, [r1, #144]	; 0x90
  }

  /*-------------------------------------- USART6 Configuration -----------------------------------*/
  if(((PeriphClkInit->PeriphClockSelection) & RCC_PERIPHCLK_USART6) == RCC_PERIPHCLK_USART6)
 8001512:	0519      	lsls	r1, r3, #20
 8001514:	d508      	bpl.n	8001528 <HAL_RCCEx_PeriphCLKConfig+0x1e4>
  {
    /* Check the parameters */
    assert_param(IS_RCC_USART6CLKSOURCE(PeriphClkInit->Usart6ClockSelection));

    /* Configure the USART6 clock source */
    __HAL_RCC_USART6_CONFIG(PeriphClkInit->Usart6ClockSelection);
 8001516:	4949      	ldr	r1, [pc, #292]	; (800163c <HAL_RCCEx_PeriphCLKConfig+0x2f8>)
 8001518:	6da0      	ldr	r0, [r4, #88]	; 0x58
 800151a:	f8d1 2090 	ldr.w	r2, [r1, #144]	; 0x90
 800151e:	f422 6240 	bic.w	r2, r2, #3072	; 0xc00
 8001522:	4302      	orrs	r2, r0
 8001524:	f8c1 2090 	str.w	r2, [r1, #144]	; 0x90
  }

  /*-------------------------------------- UART7 Configuration -----------------------------------*/
  if(((PeriphClkInit->PeriphClockSelection) & RCC_PERIPHCLK_UART7) == RCC_PERIPHCLK_UART7)
 8001528:	04da      	lsls	r2, r3, #19
 800152a:	d508      	bpl.n	800153e <HAL_RCCEx_PeriphCLKConfig+0x1fa>
  {
    /* Check the parameters */
    assert_param(IS_RCC_UART7CLKSOURCE(PeriphClkInit->Uart7ClockSelection));

    /* Configure the UART7 clock source */
    __HAL_RCC_UART7_CONFIG(PeriphClkInit->Uart7ClockSelection);
 800152c:	4943      	ldr	r1, [pc, #268]	; (800163c <HAL_RCCEx_PeriphCLKConfig+0x2f8>)
 800152e:	6de0      	ldr	r0, [r4, #92]	; 0x5c
 8001530:	f8d1 2090 	ldr.w	r2, [r1, #144]	; 0x90
 8001534:	f422 5240 	bic.w	r2, r2, #12288	; 0x3000
 8001538:	4302      	orrs	r2, r0
 800153a:	f8c1 2090 	str.w	r2, [r1, #144]	; 0x90
  }

  /*-------------------------------------- UART8 Configuration -----------------------------------*/
  if(((PeriphClkInit->PeriphClockSelection) & RCC_PERIPHCLK_UART8) == RCC_PERIPHCLK_UART8)
 800153e:	049f      	lsls	r7, r3, #18
 8001540:	d508      	bpl.n	8001554 <HAL_RCCEx_PeriphCLKConfig+0x210>
  {
    /* Check the parameters */
    assert_param(IS_RCC_UART8CLKSOURCE(PeriphClkInit->Uart8ClockSelection));

    /* Configure the UART8 clock source */
    __HAL_RCC_UART8_CONFIG(PeriphClkInit->Uart8ClockSelection);
 8001542:	493e      	ldr	r1, [pc, #248]	; (800163c <HAL_RCCEx_PeriphCLKConfig+0x2f8>)
 8001544:	6e20      	ldr	r0, [r4, #96]	; 0x60
 8001546:	f8d1 2090 	ldr.w	r2, [r1, #144]	; 0x90
 800154a:	f422 4240 	bic.w	r2, r2, #49152	; 0xc000
 800154e:	4302      	orrs	r2, r0
 8001550:	f8c1 2090 	str.w	r2, [r1, #144]	; 0x90
  }

  /*--------------------------------------- CEC Configuration -----------------------------------*/
  if(((PeriphClkInit->PeriphClockSelection) & RCC_PERIPHCLK_CEC) == RCC_PERIPHCLK_CEC)
 8001554:	0258      	lsls	r0, r3, #9
 8001556:	d508      	bpl.n	800156a <HAL_RCCEx_PeriphCLKConfig+0x226>
  {
    /* Check the parameters */
    assert_param(IS_RCC_CECCLKSOURCE(PeriphClkInit->CecClockSelection));

    /* Configure the CEC clock source */
    __HAL_RCC_CEC_CONFIG(PeriphClkInit->CecClockSelection);
 8001558:	4938      	ldr	r1, [pc, #224]	; (800163c <HAL_RCCEx_PeriphCLKConfig+0x2f8>)
 800155a:	6fa0      	ldr	r0, [r4, #120]	; 0x78
 800155c:	f8d1 2090 	ldr.w	r2, [r1, #144]	; 0x90
 8001560:	f022 6280 	bic.w	r2, r2, #67108864	; 0x4000000
 8001564:	4302      	orrs	r2, r0
 8001566:	f8c1 2090 	str.w	r2, [r1, #144]	; 0x90
  }

  /*-------------------------------------- CK48 Configuration -----------------------------------*/
  if(((PeriphClkInit->PeriphClockSelection) & RCC_PERIPHCLK_CLK48) == RCC_PERIPHCLK_CLK48)
 800156a:	0299      	lsls	r1, r3, #10
 800156c:	d50c      	bpl.n	8001588 <HAL_RCCEx_PeriphCLKConfig+0x244>
  {
    /* Check the parameters */
    assert_param(IS_RCC_CLK48SOURCE(PeriphClkInit->Clk48ClockSelection));

    /* Configure the CLK48 source */
    __HAL_RCC_CLK48_CONFIG(PeriphClkInit->Clk48ClockSelection);
 800156e:	4833      	ldr	r0, [pc, #204]	; (800163c <HAL_RCCEx_PeriphCLKConfig+0x2f8>)
 8001570:	6fe1      	ldr	r1, [r4, #124]	; 0x7c
 8001572:	f8d0 2090 	ldr.w	r2, [r0, #144]	; 0x90

    /* Enable the PLLSAI when it's used as clock source for CK48 */
    if(PeriphClkInit->Clk48ClockSelection == RCC_CLK48SOURCE_PLLSAIP)
    {
      pllsaiused = 1;
 8001576:	f1b1 6f00 	cmp.w	r1, #134217728	; 0x8000000
    __HAL_RCC_CLK48_CONFIG(PeriphClkInit->Clk48ClockSelection);
 800157a:	f022 6200 	bic.w	r2, r2, #134217728	; 0x8000000
      pllsaiused = 1;
 800157e:	bf08      	it	eq
 8001580:	2501      	moveq	r5, #1
    __HAL_RCC_CLK48_CONFIG(PeriphClkInit->Clk48ClockSelection);
 8001582:	430a      	orrs	r2, r1
 8001584:	f8c0 2090 	str.w	r2, [r0, #144]	; 0x90

  /*-------------------------------------- LTDC Configuration -----------------------------------*/
#if defined(STM32F746xx) || defined(STM32F756xx) || defined (STM32F767xx) || defined (STM32F769xx) || defined (STM32F777xx) || defined (STM32F779xx) || defined (STM32F750xx)
  if(((PeriphClkInit->PeriphClockSelection) & RCC_PERIPHCLK_LTDC) == RCC_PERIPHCLK_LTDC)
  {
    pllsaiused = 1;
 8001588:	f013 0f08 	tst.w	r3, #8
 800158c:	bf18      	it	ne
 800158e:	2501      	movne	r5, #1
  }
#endif /* STM32F746xx || STM32F756xx || STM32F767xx || STM32F769xx || STM32F777xx || STM32F779xx || STM32F750xx */

  /*-------------------------------------- LPTIM1 Configuration -----------------------------------*/
  if(((PeriphClkInit->PeriphClockSelection) & RCC_PERIPHCLK_LPTIM1) == RCC_PERIPHCLK_LPTIM1)
 8001590:	035a      	lsls	r2, r3, #13
 8001592:	d508      	bpl.n	80015a6 <HAL_RCCEx_PeriphCLKConfig+0x262>
  {
    /* Check the parameters */
    assert_param(IS_RCC_LPTIM1CLK(PeriphClkInit->Lptim1ClockSelection));

    /* Configure the LTPIM1 clock source */
    __HAL_RCC_LPTIM1_CONFIG(PeriphClkInit->Lptim1ClockSelection);
 8001594:	4929      	ldr	r1, [pc, #164]	; (800163c <HAL_RCCEx_PeriphCLKConfig+0x2f8>)
 8001596:	6f60      	ldr	r0, [r4, #116]	; 0x74
 8001598:	f8d1 2090 	ldr.w	r2, [r1, #144]	; 0x90
 800159c:	f022 7240 	bic.w	r2, r2, #50331648	; 0x3000000
 80015a0:	4302      	orrs	r2, r0
 80015a2:	f8c1 2090 	str.w	r2, [r1, #144]	; 0x90
   }

  /*------------------------------------- SDMMC1 Configuration ------------------------------------*/
  if(((PeriphClkInit->PeriphClockSelection) & RCC_PERIPHCLK_SDMMC1) == RCC_PERIPHCLK_SDMMC1)
 80015a6:	021f      	lsls	r7, r3, #8
 80015a8:	d509      	bpl.n	80015be <HAL_RCCEx_PeriphCLKConfig+0x27a>
  {
    /* Check the parameters */
    assert_param(IS_RCC_SDMMC1CLKSOURCE(PeriphClkInit->Sdmmc1ClockSelection));

    /* Configure the SDMMC1 clock source */
    __HAL_RCC_SDMMC1_CONFIG(PeriphClkInit->Sdmmc1ClockSelection);
 80015aa:	4924      	ldr	r1, [pc, #144]	; (800163c <HAL_RCCEx_PeriphCLKConfig+0x2f8>)
 80015ac:	f8d4 0080 	ldr.w	r0, [r4, #128]	; 0x80
 80015b0:	f8d1 2090 	ldr.w	r2, [r1, #144]	; 0x90
 80015b4:	f022 5280 	bic.w	r2, r2, #268435456	; 0x10000000
 80015b8:	4302      	orrs	r2, r0
 80015ba:	f8c1 2090 	str.w	r2, [r1, #144]	; 0x90
  }

#if defined (STM32F765xx) || defined (STM32F767xx) || defined (STM32F769xx) || defined (STM32F777xx) || defined (STM32F779xx)
  /*------------------------------------- SDMMC2 Configuration ------------------------------------*/
  if(((PeriphClkInit->PeriphClockSelection) & RCC_PERIPHCLK_SDMMC2) == RCC_PERIPHCLK_SDMMC2)
 80015be:	0158      	lsls	r0, r3, #5
 80015c0:	d509      	bpl.n	80015d6 <HAL_RCCEx_PeriphCLKConfig+0x292>
  {
    /* Check the parameters */
    assert_param(IS_RCC_SDMMC2CLKSOURCE(PeriphClkInit->Sdmmc2ClockSelection));

    /* Configure the SDMMC2 clock source */
    __HAL_RCC_SDMMC2_CONFIG(PeriphClkInit->Sdmmc2ClockSelection);
 80015c2:	491e      	ldr	r1, [pc, #120]	; (800163c <HAL_RCCEx_PeriphCLKConfig+0x2f8>)
 80015c4:	f8d4 0084 	ldr.w	r0, [r4, #132]	; 0x84
 80015c8:	f8d1 2090 	ldr.w	r2, [r1, #144]	; 0x90
 80015cc:	f022 5200 	bic.w	r2, r2, #536870912	; 0x20000000
 80015d0:	4302      	orrs	r2, r0
 80015d2:	f8c1 2090 	str.w	r2, [r1, #144]	; 0x90
  }

  /*------------------------------------- DFSDM1 Configuration -------------------------------------*/
  if(((PeriphClkInit->PeriphClockSelection) & RCC_PERIPHCLK_DFSDM1) == RCC_PERIPHCLK_DFSDM1)
 80015d6:	0119      	lsls	r1, r3, #4
 80015d8:	d509      	bpl.n	80015ee <HAL_RCCEx_PeriphCLKConfig+0x2aa>
  {
    /* Check the parameters */
    assert_param(IS_RCC_DFSDM1CLKSOURCE(PeriphClkInit->Dfsdm1ClockSelection));

    /* Configure the DFSDM1 interface clock source */
    __HAL_RCC_DFSDM1_CONFIG(PeriphClkInit->Dfsdm1ClockSelection);
 80015da:	4918      	ldr	r1, [pc, #96]	; (800163c <HAL_RCCEx_PeriphCLKConfig+0x2f8>)
 80015dc:	f8d4 0088 	ldr.w	r0, [r4, #136]	; 0x88
 80015e0:	f8d1 208c 	ldr.w	r2, [r1, #140]	; 0x8c
 80015e4:	f022 7200 	bic.w	r2, r2, #33554432	; 0x2000000
 80015e8:	4302      	orrs	r2, r0
 80015ea:	f8c1 208c 	str.w	r2, [r1, #140]	; 0x8c
  }

  /*------------------------------------- DFSDM AUDIO Configuration -------------------------------------*/
  if(((PeriphClkInit->PeriphClockSelection) & RCC_PERIPHCLK_DFSDM1_AUDIO) == RCC_PERIPHCLK_DFSDM1_AUDIO)
 80015ee:	00da      	lsls	r2, r3, #3
 80015f0:	d509      	bpl.n	8001606 <HAL_RCCEx_PeriphCLKConfig+0x2c2>
  {
    /* Check the parameters */
    assert_param(IS_RCC_DFSDM1AUDIOCLKSOURCE(PeriphClkInit->Dfsdm1AudioClockSelection));

    /* Configure the DFSDM interface clock source */
    __HAL_RCC_DFSDM1AUDIO_CONFIG(PeriphClkInit->Dfsdm1AudioClockSelection);
 80015f2:	4912      	ldr	r1, [pc, #72]	; (800163c <HAL_RCCEx_PeriphCLKConfig+0x2f8>)
 80015f4:	f8d4 008c 	ldr.w	r0, [r4, #140]	; 0x8c
 80015f8:	f8d1 208c 	ldr.w	r2, [r1, #140]	; 0x8c
 80015fc:	f022 6280 	bic.w	r2, r2, #67108864	; 0x4000000
 8001600:	4302      	orrs	r2, r0
 8001602:	f8c1 208c 	str.w	r2, [r1, #140]	; 0x8c
  }
#endif /* STM32F767xx || STM32F769xx || STM32F777xx || STM32F779xx */

  /*-------------------------------------- PLLI2S Configuration ---------------------------------*/
  /* PLLI2S is configured when a peripheral will use it as source clock : SAI1, SAI2, I2S or SPDIF-RX */
  if((plli2sused == 1) || (PeriphClkInit->PeriphClockSelection == RCC_PERIPHCLK_PLLI2S))
 8001606:	2e01      	cmp	r6, #1
 8001608:	f000 80b5 	beq.w	8001776 <HAL_RCCEx_PeriphCLKConfig+0x432>
 800160c:	f1b3 7f00 	cmp.w	r3, #33554432	; 0x2000000
 8001610:	f000 80b1 	beq.w	8001776 <HAL_RCCEx_PeriphCLKConfig+0x432>
    }
  }

  /*-------------------------------------- PLLSAI Configuration ---------------------------------*/
  /* PLLSAI is configured when a peripheral will use it as source clock : SAI1, SAI2, LTDC or CK48 */
  if(pllsaiused == 1)
 8001614:	2d01      	cmp	r5, #1
 8001616:	d175      	bne.n	8001704 <HAL_RCCEx_PeriphCLKConfig+0x3c0>
  {
    /* Disable PLLSAI Clock */
    __HAL_RCC_PLLSAI_DISABLE();
 8001618:	4d08      	ldr	r5, [pc, #32]	; (800163c <HAL_RCCEx_PeriphCLKConfig+0x2f8>)
 800161a:	682b      	ldr	r3, [r5, #0]
 800161c:	f023 5380 	bic.w	r3, r3, #268435456	; 0x10000000
 8001620:	602b      	str	r3, [r5, #0]

    /* Get Start Tick*/
    tickstart = HAL_GetTick();
 8001622:	f7fe ffcd 	bl	80005c0 <HAL_GetTick>
 8001626:	4606      	mov	r6, r0

    /* Wait till PLLSAI is disabled */
    while(__HAL_RCC_PLLSAI_GET_FLAG() != RESET)
 8001628:	682b      	ldr	r3, [r5, #0]
 800162a:	009f      	lsls	r7, r3, #2
 800162c:	f100 8127 	bmi.w	800187e <HAL_RCCEx_PeriphCLKConfig+0x53a>

    /* Check the PLLSAI division factors */
    assert_param(IS_RCC_PLLSAIN_VALUE(PeriphClkInit->PLLSAI.PLLSAIN));

    /*----------------- In Case of PLLSAI is selected as source clock for SAI -------------------*/
    if(((((PeriphClkInit->PeriphClockSelection) & RCC_PERIPHCLK_SAI1) == RCC_PERIPHCLK_SAI1) && (PeriphClkInit->Sai1ClockSelection == RCC_SAI1CLKSOURCE_PLLSAI)) ||\
 8001630:	6821      	ldr	r1, [r4, #0]
 8001632:	030e      	lsls	r6, r1, #12
 8001634:	d506      	bpl.n	8001644 <HAL_RCCEx_PeriphCLKConfig+0x300>
 8001636:	6be3      	ldr	r3, [r4, #60]	; 0x3c
 8001638:	b143      	cbz	r3, 800164c <HAL_RCCEx_PeriphCLKConfig+0x308>
 800163a:	e003      	b.n	8001644 <HAL_RCCEx_PeriphCLKConfig+0x300>
 800163c:	40023800 	.word	0x40023800
 8001640:	40007000 	.word	0x40007000
 8001644:	02cd      	lsls	r5, r1, #11
 8001646:	d51d      	bpl.n	8001684 <HAL_RCCEx_PeriphCLKConfig+0x340>
       ((((PeriphClkInit->PeriphClockSelection) & RCC_PERIPHCLK_SAI2) == RCC_PERIPHCLK_SAI2) && (PeriphClkInit->Sai2ClockSelection == RCC_SAI2CLKSOURCE_PLLSAI)))
 8001648:	6c23      	ldr	r3, [r4, #64]	; 0x40
 800164a:	b9db      	cbnz	r3, 8001684 <HAL_RCCEx_PeriphCLKConfig+0x340>
      assert_param(IS_RCC_PLLSAIQ_VALUE(PeriphClkInit->PLLSAI.PLLSAIQ));
      /* check for PLLSAI/DIVQ Parameter */
      assert_param(IS_RCC_PLLSAI_DIVQ_VALUE(PeriphClkInit->PLLSAIDivQ));

      /* Read PLLSAIP value from PLLSAICFGR register (this value is not needed for SAI configuration) */
      tmpreg0 = ((RCC->PLLSAICFGR & RCC_PLLSAICFGR_PLLSAIP) >> RCC_PLLSAICFGR_PLLSAIP_Pos);
 800164c:	4a93      	ldr	r2, [pc, #588]	; (800189c <HAL_RCCEx_PeriphCLKConfig+0x558>)
 800164e:	f8d2 3088 	ldr.w	r3, [r2, #136]	; 0x88
      tmpreg1 = ((RCC->PLLSAICFGR & RCC_PLLI2SCFGR_PLLI2SR) >> RCC_PLLSAICFGR_PLLSAIR_Pos);
 8001652:	f8d2 0088 	ldr.w	r0, [r2, #136]	; 0x88
      /* PLLSAI_VCO Input  = PLL_SOURCE/PLLM */
      /* PLLSAI_VCO Output = PLLSAI_VCO Input * PLLSAIN */
      /* SAI_CLK(first level) = PLLSAI_VCO Output/PLLSAIQ */
      __HAL_RCC_PLLSAI_CONFIG(PeriphClkInit->PLLSAI.PLLSAIN , tmpreg0, PeriphClkInit->PLLSAI.PLLSAIQ, tmpreg1);
 8001656:	f403 3340 	and.w	r3, r3, #196608	; 0x30000
 800165a:	f000 40e0 	and.w	r0, r0, #1879048192	; 0x70000000
 800165e:	4303      	orrs	r3, r0
 8001660:	6960      	ldr	r0, [r4, #20]
 8001662:	ea43 1380 	orr.w	r3, r3, r0, lsl #6
 8001666:	69a0      	ldr	r0, [r4, #24]
 8001668:	ea43 6300 	orr.w	r3, r3, r0, lsl #24
 800166c:	f8c2 3088 	str.w	r3, [r2, #136]	; 0x88

      /* SAI_CLK_x = SAI_CLK(first level)/PLLSAIDIVQ */
      __HAL_RCC_PLLSAI_PLLSAICLKDIVQ_CONFIG(PeriphClkInit->PLLSAIDivQ);
 8001670:	f8d2 308c 	ldr.w	r3, [r2, #140]	; 0x8c
 8001674:	6aa0      	ldr	r0, [r4, #40]	; 0x28
 8001676:	f423 53f8 	bic.w	r3, r3, #7936	; 0x1f00
 800167a:	3801      	subs	r0, #1
 800167c:	ea43 2300 	orr.w	r3, r3, r0, lsl #8
 8001680:	f8c2 308c 	str.w	r3, [r2, #140]	; 0x8c
    }

    /*----------------- In Case of PLLSAI is selected as source clock for CLK48 -------------------*/
    /* In Case of PLLI2S is selected as source clock for CK48 */
    if((((PeriphClkInit->PeriphClockSelection) & RCC_PERIPHCLK_CLK48) == RCC_PERIPHCLK_CLK48) && (PeriphClkInit->Clk48ClockSelection == RCC_CLK48SOURCE_PLLSAIP))
 8001684:	0288      	lsls	r0, r1, #10
 8001686:	d515      	bpl.n	80016b4 <HAL_RCCEx_PeriphCLKConfig+0x370>
 8001688:	6fe3      	ldr	r3, [r4, #124]	; 0x7c
 800168a:	f1b3 6f00 	cmp.w	r3, #134217728	; 0x8000000
 800168e:	d111      	bne.n	80016b4 <HAL_RCCEx_PeriphCLKConfig+0x370>
    {
      /* check for Parameters */
      assert_param(IS_RCC_PLLSAIP_VALUE(PeriphClkInit->PLLSAI.PLLSAIP));
      /* Read PLLSAIQ and PLLSAIR value from PLLSAICFGR register (this value is not needed for CK48 configuration) */
      tmpreg0 = ((RCC->PLLSAICFGR & RCC_PLLSAICFGR_PLLSAIQ) >> RCC_PLLSAICFGR_PLLSAIQ_Pos);
 8001690:	4a82      	ldr	r2, [pc, #520]	; (800189c <HAL_RCCEx_PeriphCLKConfig+0x558>)
 8001692:	f8d2 3088 	ldr.w	r3, [r2, #136]	; 0x88
      tmpreg1 = ((RCC->PLLSAICFGR & RCC_PLLSAICFGR_PLLSAIR) >> RCC_PLLSAICFGR_PLLSAIR_Pos);
 8001696:	f8d2 0088 	ldr.w	r0, [r2, #136]	; 0x88

      /* Configure the PLLSAI division factors */
      /* PLLSAI_VCO = f(VCO clock) = f(PLLSAI clock input) x (PLLI2SN/PLLM) */
      /* 48CLK = f(PLLSAI clock output) = f(VCO clock) / PLLSAIP */
      __HAL_RCC_PLLSAI_CONFIG(PeriphClkInit->PLLSAI.PLLSAIN , PeriphClkInit->PLLSAI.PLLSAIP, tmpreg0, tmpreg1);
 800169a:	f003 6370 	and.w	r3, r3, #251658240	; 0xf000000
 800169e:	f000 40e0 	and.w	r0, r0, #1879048192	; 0x70000000
 80016a2:	4303      	orrs	r3, r0
 80016a4:	6960      	ldr	r0, [r4, #20]
 80016a6:	ea43 1380 	orr.w	r3, r3, r0, lsl #6
 80016aa:	6a20      	ldr	r0, [r4, #32]
 80016ac:	ea43 4300 	orr.w	r3, r3, r0, lsl #16
 80016b0:	f8c2 3088 	str.w	r3, [r2, #136]	; 0x88
    }

#if defined(STM32F746xx) || defined(STM32F756xx) || defined (STM32F767xx) || defined (STM32F769xx) || defined (STM32F777xx) || defined (STM32F779xx) || defined (STM32F750xx)
    /*---------------------------- LTDC configuration -------------------------------*/
    if(((PeriphClkInit->PeriphClockSelection) & RCC_PERIPHCLK_LTDC) == (RCC_PERIPHCLK_LTDC))
 80016b4:	070a      	lsls	r2, r1, #28
 80016b6:	d519      	bpl.n	80016ec <HAL_RCCEx_PeriphCLKConfig+0x3a8>
    {
      assert_param(IS_RCC_PLLSAIR_VALUE(PeriphClkInit->PLLSAI.PLLSAIR));
      assert_param(IS_RCC_PLLSAI_DIVR_VALUE(PeriphClkInit->PLLSAIDivR));

      /* Read PLLSAIP and PLLSAIQ value from PLLSAICFGR register (these value are not needed for LTDC configuration) */
      tmpreg0 = ((RCC->PLLSAICFGR & RCC_PLLSAICFGR_PLLSAIQ) >> RCC_PLLSAICFGR_PLLSAIQ_Pos);
 80016b8:	4978      	ldr	r1, [pc, #480]	; (800189c <HAL_RCCEx_PeriphCLKConfig+0x558>)
 80016ba:	f8d1 2088 	ldr.w	r2, [r1, #136]	; 0x88
      tmpreg1 = ((RCC->PLLSAICFGR & RCC_PLLSAICFGR_PLLSAIP) >> RCC_PLLSAICFGR_PLLSAIP_Pos);
 80016be:	f8d1 3088 	ldr.w	r3, [r1, #136]	; 0x88

      /* PLLSAI_VCO Input  = PLL_SOURCE/PLLM */
      /* PLLSAI_VCO Output = PLLSAI_VCO Input * PLLSAIN */
      /* LTDC_CLK(first level) = PLLSAI_VCO Output/PLLSAIR */
      __HAL_RCC_PLLSAI_CONFIG(PeriphClkInit->PLLSAI.PLLSAIN , tmpreg1, tmpreg0, PeriphClkInit->PLLSAI.PLLSAIR);
 80016c2:	f002 6270 	and.w	r2, r2, #251658240	; 0xf000000
 80016c6:	f403 3340 	and.w	r3, r3, #196608	; 0x30000
 80016ca:	4313      	orrs	r3, r2
 80016cc:	6962      	ldr	r2, [r4, #20]
 80016ce:	ea43 1382 	orr.w	r3, r3, r2, lsl #6
 80016d2:	69e2      	ldr	r2, [r4, #28]
 80016d4:	ea43 7302 	orr.w	r3, r3, r2, lsl #28
 80016d8:	f8c1 3088 	str.w	r3, [r1, #136]	; 0x88

      /* LTDC_CLK = LTDC_CLK(first level)/PLLSAIDIVR */
      __HAL_RCC_PLLSAI_PLLSAICLKDIVR_CONFIG(PeriphClkInit->PLLSAIDivR);
 80016dc:	f8d1 308c 	ldr.w	r3, [r1, #140]	; 0x8c
 80016e0:	6ae2      	ldr	r2, [r4, #44]	; 0x2c
 80016e2:	f423 3340 	bic.w	r3, r3, #196608	; 0x30000
 80016e6:	4313      	orrs	r3, r2
 80016e8:	f8c1 308c 	str.w	r3, [r1, #140]	; 0x8c
    }
#endif /* STM32F746xx || STM32F756xx || STM32F767xx || STM32F769xx || STM32F777xx || STM32F779xx || STM32F750xx  */

    /* Enable PLLSAI Clock */
    __HAL_RCC_PLLSAI_ENABLE();
 80016ec:	4c6b      	ldr	r4, [pc, #428]	; (800189c <HAL_RCCEx_PeriphCLKConfig+0x558>)
 80016ee:	6823      	ldr	r3, [r4, #0]
 80016f0:	f043 5380 	orr.w	r3, r3, #268435456	; 0x10000000
 80016f4:	6023      	str	r3, [r4, #0]

    /* Get Start Tick*/
    tickstart = HAL_GetTick();
 80016f6:	f7fe ff63 	bl	80005c0 <HAL_GetTick>
 80016fa:	4605      	mov	r5, r0

    /* Wait till PLLSAI is ready */
    while(__HAL_RCC_PLLSAI_GET_FLAG() == RESET)
 80016fc:	6823      	ldr	r3, [r4, #0]
 80016fe:	009b      	lsls	r3, r3, #2
 8001700:	f140 80c4 	bpl.w	800188c <HAL_RCCEx_PeriphCLKConfig+0x548>
        /* return in case of Timeout detected */
        return HAL_TIMEOUT;
      }
    }
  }
  return HAL_OK;
 8001704:	2000      	movs	r0, #0
 8001706:	e009      	b.n	800171c <HAL_RCCEx_PeriphCLKConfig+0x3d8>
      plli2sused = 1;
 8001708:	2601      	movs	r6, #1
 800170a:	e657      	b.n	80013bc <HAL_RCCEx_PeriphCLKConfig+0x78>
      if((HAL_GetTick() - tickstart) > RCC_DBP_TIMEOUT_VALUE)
 800170c:	f7fe ff58 	bl	80005c0 <HAL_GetTick>
 8001710:	eba0 0008 	sub.w	r0, r0, r8
 8001714:	2864      	cmp	r0, #100	; 0x64
 8001716:	f67f ae69 	bls.w	80013ec <HAL_RCCEx_PeriphCLKConfig+0xa8>
        return HAL_TIMEOUT;
 800171a:	2003      	movs	r0, #3
}
 800171c:	b003      	add	sp, #12
 800171e:	e8bd 83f0 	ldmia.w	sp!, {r4, r5, r6, r7, r8, r9, pc}
    if((tmpreg0 != 0x00000000U) && (tmpreg0 != (PeriphClkInit->RTCClockSelection & RCC_BDCR_RTCSEL)))
 8001722:	6b22      	ldr	r2, [r4, #48]	; 0x30
 8001724:	f402 7240 	and.w	r2, r2, #768	; 0x300
 8001728:	4293      	cmp	r3, r2
 800172a:	f43f ae69 	beq.w	8001400 <HAL_RCCEx_PeriphCLKConfig+0xbc>
      tmpreg0 = (RCC->BDCR & ~(RCC_BDCR_RTCSEL));
 800172e:	6f3b      	ldr	r3, [r7, #112]	; 0x70
      __HAL_RCC_BACKUPRESET_FORCE();
 8001730:	6f3a      	ldr	r2, [r7, #112]	; 0x70
      tmpreg0 = (RCC->BDCR & ~(RCC_BDCR_RTCSEL));
 8001732:	f423 7340 	bic.w	r3, r3, #768	; 0x300
      __HAL_RCC_BACKUPRESET_FORCE();
 8001736:	f442 3280 	orr.w	r2, r2, #65536	; 0x10000
 800173a:	673a      	str	r2, [r7, #112]	; 0x70
      __HAL_RCC_BACKUPRESET_RELEASE();
 800173c:	6f3a      	ldr	r2, [r7, #112]	; 0x70
 800173e:	f422 3280 	bic.w	r2, r2, #65536	; 0x10000
 8001742:	673a      	str	r2, [r7, #112]	; 0x70
      RCC->BDCR = tmpreg0;
 8001744:	673b      	str	r3, [r7, #112]	; 0x70
      if (HAL_IS_BIT_SET(RCC->BDCR, RCC_BDCR_LSEON))
 8001746:	6f3b      	ldr	r3, [r7, #112]	; 0x70
 8001748:	07da      	lsls	r2, r3, #31
 800174a:	f57f ae59 	bpl.w	8001400 <HAL_RCCEx_PeriphCLKConfig+0xbc>
        tickstart = HAL_GetTick();
 800174e:	f7fe ff37 	bl	80005c0 <HAL_GetTick>
          if((HAL_GetTick() - tickstart ) > RCC_LSE_TIMEOUT_VALUE)
 8001752:	f241 3988 	movw	r9, #5000	; 0x1388
        tickstart = HAL_GetTick();
 8001756:	4680      	mov	r8, r0
        while(__HAL_RCC_GET_FLAG(RCC_FLAG_LSERDY) == RESET)
 8001758:	6f3b      	ldr	r3, [r7, #112]	; 0x70
 800175a:	079b      	lsls	r3, r3, #30
 800175c:	f53f ae50 	bmi.w	8001400 <HAL_RCCEx_PeriphCLKConfig+0xbc>
          if((HAL_GetTick() - tickstart ) > RCC_LSE_TIMEOUT_VALUE)
 8001760:	f7fe ff2e 	bl	80005c0 <HAL_GetTick>
 8001764:	eba0 0008 	sub.w	r0, r0, r8
 8001768:	4548      	cmp	r0, r9
 800176a:	d9f5      	bls.n	8001758 <HAL_RCCEx_PeriphCLKConfig+0x414>
 800176c:	e7d5      	b.n	800171a <HAL_RCCEx_PeriphCLKConfig+0x3d6>
    __HAL_RCC_RTC_CONFIG(PeriphClkInit->RTCClockSelection);
 800176e:	6891      	ldr	r1, [r2, #8]
 8001770:	f421 11f8 	bic.w	r1, r1, #2031616	; 0x1f0000
 8001774:	e654      	b.n	8001420 <HAL_RCCEx_PeriphCLKConfig+0xdc>
    __HAL_RCC_PLLI2S_DISABLE();
 8001776:	4e49      	ldr	r6, [pc, #292]	; (800189c <HAL_RCCEx_PeriphCLKConfig+0x558>)
 8001778:	6833      	ldr	r3, [r6, #0]
 800177a:	f023 6380 	bic.w	r3, r3, #67108864	; 0x4000000
 800177e:	6033      	str	r3, [r6, #0]
    tickstart = HAL_GetTick();
 8001780:	f7fe ff1e 	bl	80005c0 <HAL_GetTick>
 8001784:	4607      	mov	r7, r0
    while(__HAL_RCC_GET_FLAG(RCC_FLAG_PLLI2SRDY)  != RESET)
 8001786:	6833      	ldr	r3, [r6, #0]
 8001788:	011b      	lsls	r3, r3, #4
 800178a:	d472      	bmi.n	8001872 <HAL_RCCEx_PeriphCLKConfig+0x52e>
    if(((((PeriphClkInit->PeriphClockSelection) & RCC_PERIPHCLK_I2S) == RCC_PERIPHCLK_I2S) && (PeriphClkInit->I2sClockSelection == RCC_I2SCLKSOURCE_PLLI2S)))
 800178c:	6822      	ldr	r2, [r4, #0]
 800178e:	07d7      	lsls	r7, r2, #31
 8001790:	d512      	bpl.n	80017b8 <HAL_RCCEx_PeriphCLKConfig+0x474>
 8001792:	6b63      	ldr	r3, [r4, #52]	; 0x34
 8001794:	b983      	cbnz	r3, 80017b8 <HAL_RCCEx_PeriphCLKConfig+0x474>
      tmpreg0 = ((RCC->PLLI2SCFGR & RCC_PLLI2SCFGR_PLLI2SP) >> RCC_PLLI2SCFGR_PLLI2SP_Pos);
 8001796:	f8d6 3084 	ldr.w	r3, [r6, #132]	; 0x84
      tmpreg1 = ((RCC->PLLI2SCFGR & RCC_PLLI2SCFGR_PLLI2SQ) >> RCC_PLLI2SCFGR_PLLI2SQ_Pos);
 800179a:	f8d6 1084 	ldr.w	r1, [r6, #132]	; 0x84
      __HAL_RCC_PLLI2S_CONFIG(PeriphClkInit->PLLI2S.PLLI2SN , tmpreg0, tmpreg1, PeriphClkInit->PLLI2S.PLLI2SR);
 800179e:	f403 3340 	and.w	r3, r3, #196608	; 0x30000
 80017a2:	f001 6170 	and.w	r1, r1, #251658240	; 0xf000000
 80017a6:	430b      	orrs	r3, r1
 80017a8:	6861      	ldr	r1, [r4, #4]
 80017aa:	ea43 1381 	orr.w	r3, r3, r1, lsl #6
 80017ae:	68a1      	ldr	r1, [r4, #8]
 80017b0:	ea43 7301 	orr.w	r3, r3, r1, lsl #28
 80017b4:	f8c6 3084 	str.w	r3, [r6, #132]	; 0x84
    if(((((PeriphClkInit->PeriphClockSelection) & RCC_PERIPHCLK_SAI1) == RCC_PERIPHCLK_SAI1) && (PeriphClkInit->Sai1ClockSelection == RCC_SAI1CLKSOURCE_PLLI2S)) ||
 80017b8:	0316      	lsls	r6, r2, #12
 80017ba:	d503      	bpl.n	80017c4 <HAL_RCCEx_PeriphCLKConfig+0x480>
 80017bc:	6be3      	ldr	r3, [r4, #60]	; 0x3c
 80017be:	f5b3 1f80 	cmp.w	r3, #1048576	; 0x100000
 80017c2:	d005      	beq.n	80017d0 <HAL_RCCEx_PeriphCLKConfig+0x48c>
 80017c4:	02d0      	lsls	r0, r2, #11
 80017c6:	d51e      	bpl.n	8001806 <HAL_RCCEx_PeriphCLKConfig+0x4c2>
       ((((PeriphClkInit->PeriphClockSelection) & RCC_PERIPHCLK_SAI2) == RCC_PERIPHCLK_SAI2) && (PeriphClkInit->Sai2ClockSelection == RCC_SAI2CLKSOURCE_PLLI2S)))
 80017c8:	6c23      	ldr	r3, [r4, #64]	; 0x40
 80017ca:	f5b3 0f80 	cmp.w	r3, #4194304	; 0x400000
 80017ce:	d11a      	bne.n	8001806 <HAL_RCCEx_PeriphCLKConfig+0x4c2>
      tmpreg0 = ((RCC->PLLI2SCFGR & RCC_PLLI2SCFGR_PLLI2SP) >> RCC_PLLI2SCFGR_PLLI2SP_Pos);
 80017d0:	4932      	ldr	r1, [pc, #200]	; (800189c <HAL_RCCEx_PeriphCLKConfig+0x558>)
 80017d2:	f8d1 3084 	ldr.w	r3, [r1, #132]	; 0x84
      tmpreg1 = ((RCC->PLLI2SCFGR & RCC_PLLI2SCFGR_PLLI2SR) >> RCC_PLLI2SCFGR_PLLI2SR_Pos);
 80017d6:	f8d1 0084 	ldr.w	r0, [r1, #132]	; 0x84
      __HAL_RCC_PLLI2S_CONFIG(PeriphClkInit->PLLI2S.PLLI2SN, tmpreg0, PeriphClkInit->PLLI2S.PLLI2SQ, tmpreg1);
 80017da:	f403 3340 	and.w	r3, r3, #196608	; 0x30000
 80017de:	f000 40e0 	and.w	r0, r0, #1879048192	; 0x70000000
 80017e2:	4303      	orrs	r3, r0
 80017e4:	6860      	ldr	r0, [r4, #4]
 80017e6:	ea43 1380 	orr.w	r3, r3, r0, lsl #6
 80017ea:	68e0      	ldr	r0, [r4, #12]
 80017ec:	ea43 6300 	orr.w	r3, r3, r0, lsl #24
 80017f0:	f8c1 3084 	str.w	r3, [r1, #132]	; 0x84
      __HAL_RCC_PLLI2S_PLLSAICLKDIVQ_CONFIG(PeriphClkInit->PLLI2SDivQ);
 80017f4:	f8d1 008c 	ldr.w	r0, [r1, #140]	; 0x8c
 80017f8:	6a63      	ldr	r3, [r4, #36]	; 0x24
 80017fa:	f020 001f 	bic.w	r0, r0, #31
 80017fe:	3b01      	subs	r3, #1
 8001800:	4303      	orrs	r3, r0
 8001802:	f8c1 308c 	str.w	r3, [r1, #140]	; 0x8c
    if(((PeriphClkInit->PeriphClockSelection) & RCC_PERIPHCLK_SPDIFRX) == RCC_PERIPHCLK_SPDIFRX)
 8001806:	01d1      	lsls	r1, r2, #7
 8001808:	d511      	bpl.n	800182e <HAL_RCCEx_PeriphCLKConfig+0x4ea>
      tmpreg0 = ((RCC->PLLI2SCFGR & RCC_PLLI2SCFGR_PLLI2SQ) >> RCC_PLLI2SCFGR_PLLI2SQ_Pos);
 800180a:	4924      	ldr	r1, [pc, #144]	; (800189c <HAL_RCCEx_PeriphCLKConfig+0x558>)
 800180c:	f8d1 3084 	ldr.w	r3, [r1, #132]	; 0x84
      tmpreg1 = ((RCC->PLLI2SCFGR & RCC_PLLI2SCFGR_PLLI2SR) >> RCC_PLLI2SCFGR_PLLI2SR_Pos);
 8001810:	f8d1 0084 	ldr.w	r0, [r1, #132]	; 0x84
      __HAL_RCC_PLLI2S_CONFIG(PeriphClkInit->PLLI2S.PLLI2SN , PeriphClkInit->PLLI2S.PLLI2SP, tmpreg0, tmpreg1);
 8001814:	f003 6370 	and.w	r3, r3, #251658240	; 0xf000000
 8001818:	f000 40e0 	and.w	r0, r0, #1879048192	; 0x70000000
 800181c:	4303      	orrs	r3, r0
 800181e:	6860      	ldr	r0, [r4, #4]
 8001820:	ea43 1380 	orr.w	r3, r3, r0, lsl #6
 8001824:	6920      	ldr	r0, [r4, #16]
 8001826:	ea43 4300 	orr.w	r3, r3, r0, lsl #16
 800182a:	f8c1 3084 	str.w	r3, [r1, #132]	; 0x84
    if((PeriphClkInit->PeriphClockSelection & RCC_PERIPHCLK_PLLI2S) == RCC_PERIPHCLK_PLLI2S)
 800182e:	0192      	lsls	r2, r2, #6
 8001830:	d50d      	bpl.n	800184e <HAL_RCCEx_PeriphCLKConfig+0x50a>
      __HAL_RCC_PLLI2S_CONFIG(PeriphClkInit->PLLI2S.PLLI2SN , PeriphClkInit->PLLI2S.PLLI2SP, PeriphClkInit->PLLI2S.PLLI2SQ, PeriphClkInit->PLLI2S.PLLI2SR);
 8001832:	6923      	ldr	r3, [r4, #16]
 8001834:	6862      	ldr	r2, [r4, #4]
 8001836:	041b      	lsls	r3, r3, #16
 8001838:	ea43 1382 	orr.w	r3, r3, r2, lsl #6
 800183c:	68e2      	ldr	r2, [r4, #12]
 800183e:	ea43 6302 	orr.w	r3, r3, r2, lsl #24
 8001842:	68a2      	ldr	r2, [r4, #8]
 8001844:	ea43 7302 	orr.w	r3, r3, r2, lsl #28
 8001848:	4a14      	ldr	r2, [pc, #80]	; (800189c <HAL_RCCEx_PeriphCLKConfig+0x558>)
 800184a:	f8c2 3084 	str.w	r3, [r2, #132]	; 0x84
    __HAL_RCC_PLLI2S_ENABLE();
 800184e:	4e13      	ldr	r6, [pc, #76]	; (800189c <HAL_RCCEx_PeriphCLKConfig+0x558>)
 8001850:	6833      	ldr	r3, [r6, #0]
 8001852:	f043 6380 	orr.w	r3, r3, #67108864	; 0x4000000
 8001856:	6033      	str	r3, [r6, #0]
    tickstart = HAL_GetTick();
 8001858:	f7fe feb2 	bl	80005c0 <HAL_GetTick>
 800185c:	4607      	mov	r7, r0
    while(__HAL_RCC_GET_FLAG(RCC_FLAG_PLLI2SRDY)  == RESET)
 800185e:	6833      	ldr	r3, [r6, #0]
 8001860:	011b      	lsls	r3, r3, #4
 8001862:	f53f aed7 	bmi.w	8001614 <HAL_RCCEx_PeriphCLKConfig+0x2d0>
      if((HAL_GetTick() - tickstart) > PLLI2S_TIMEOUT_VALUE)
 8001866:	f7fe feab 	bl	80005c0 <HAL_GetTick>
 800186a:	1bc0      	subs	r0, r0, r7
 800186c:	2864      	cmp	r0, #100	; 0x64
 800186e:	d9f6      	bls.n	800185e <HAL_RCCEx_PeriphCLKConfig+0x51a>
 8001870:	e753      	b.n	800171a <HAL_RCCEx_PeriphCLKConfig+0x3d6>
      if((HAL_GetTick() - tickstart) > PLLI2S_TIMEOUT_VALUE)
 8001872:	f7fe fea5 	bl	80005c0 <HAL_GetTick>
 8001876:	1bc0      	subs	r0, r0, r7
 8001878:	2864      	cmp	r0, #100	; 0x64
 800187a:	d984      	bls.n	8001786 <HAL_RCCEx_PeriphCLKConfig+0x442>
 800187c:	e74d      	b.n	800171a <HAL_RCCEx_PeriphCLKConfig+0x3d6>
      if((HAL_GetTick() - tickstart) > PLLSAI_TIMEOUT_VALUE)
 800187e:	f7fe fe9f 	bl	80005c0 <HAL_GetTick>
 8001882:	1b80      	subs	r0, r0, r6
 8001884:	2864      	cmp	r0, #100	; 0x64
 8001886:	f67f aecf 	bls.w	8001628 <HAL_RCCEx_PeriphCLKConfig+0x2e4>
 800188a:	e746      	b.n	800171a <HAL_RCCEx_PeriphCLKConfig+0x3d6>
      if((HAL_GetTick() - tickstart) > PLLSAI_TIMEOUT_VALUE)
 800188c:	f7fe fe98 	bl	80005c0 <HAL_GetTick>
 8001890:	1b40      	subs	r0, r0, r5
 8001892:	2864      	cmp	r0, #100	; 0x64
 8001894:	f67f af32 	bls.w	80016fc <HAL_RCCEx_PeriphCLKConfig+0x3b8>
 8001898:	e73f      	b.n	800171a <HAL_RCCEx_PeriphCLKConfig+0x3d6>
 800189a:	bf00      	nop
 800189c:	40023800 	.word	0x40023800

080018a0 <HAL_TIM_Base_Start_IT>:

  /* Check the parameters */
  assert_param(IS_TIM_INSTANCE(htim->Instance));

  /* Enable the TIM Update interrupt */
  __HAL_TIM_ENABLE_IT(htim, TIM_IT_UPDATE);
 80018a0:	6803      	ldr	r3, [r0, #0]
 80018a2:	68da      	ldr	r2, [r3, #12]
 80018a4:	f042 0201 	orr.w	r2, r2, #1
 80018a8:	60da      	str	r2, [r3, #12]

  /* Enable the Peripheral, except in trigger mode where enable is automatically done with trigger */
  tmpsmcr = htim->Instance->SMCR & TIM_SMCR_SMS;
 80018aa:	4a07      	ldr	r2, [pc, #28]	; (80018c8 <HAL_TIM_Base_Start_IT+0x28>)
 80018ac:	6899      	ldr	r1, [r3, #8]
 80018ae:	400a      	ands	r2, r1
  if (!IS_TIM_SLAVEMODE_TRIGGER_ENABLED(tmpsmcr))
 80018b0:	2a06      	cmp	r2, #6
 80018b2:	d006      	beq.n	80018c2 <HAL_TIM_Base_Start_IT+0x22>
 80018b4:	f5b2 3f80 	cmp.w	r2, #65536	; 0x10000
 80018b8:	d003      	beq.n	80018c2 <HAL_TIM_Base_Start_IT+0x22>
  {
    __HAL_TIM_ENABLE(htim);
 80018ba:	681a      	ldr	r2, [r3, #0]
 80018bc:	f042 0201 	orr.w	r2, r2, #1
 80018c0:	601a      	str	r2, [r3, #0]
  }

  /* Return function status */
  return HAL_OK;
}
 80018c2:	2000      	movs	r0, #0
 80018c4:	4770      	bx	lr
 80018c6:	bf00      	nop
 80018c8:	00010007 	.word	0x00010007

080018cc <HAL_TIM_OC_DelayElapsedCallback>:
 80018cc:	4770      	bx	lr

080018ce <HAL_TIM_IC_CaptureCallback>:
 80018ce:	4770      	bx	lr

080018d0 <HAL_TIM_PWM_PulseFinishedCallback>:
 80018d0:	4770      	bx	lr

080018d2 <HAL_TIM_TriggerCallback>:
 80018d2:	4770      	bx	lr

080018d4 <HAL_TIM_IRQHandler>:
  * @retval None
  */
void HAL_TIM_IRQHandler(TIM_HandleTypeDef *htim)
{
  /* Capture compare 1 event */
  if (__HAL_TIM_GET_FLAG(htim, TIM_FLAG_CC1) != RESET)
 80018d4:	6803      	ldr	r3, [r0, #0]
 80018d6:	691a      	ldr	r2, [r3, #16]
 80018d8:	0791      	lsls	r1, r2, #30
{
 80018da:	b510      	push	{r4, lr}
 80018dc:	4604      	mov	r4, r0
  if (__HAL_TIM_GET_FLAG(htim, TIM_FLAG_CC1) != RESET)
 80018de:	d50f      	bpl.n	8001900 <HAL_TIM_IRQHandler+0x2c>
  {
    if (__HAL_TIM_GET_IT_SOURCE(htim, TIM_IT_CC1) != RESET)
 80018e0:	68da      	ldr	r2, [r3, #12]
 80018e2:	0792      	lsls	r2, r2, #30
 80018e4:	d50c      	bpl.n	8001900 <HAL_TIM_IRQHandler+0x2c>
    {
      {
        __HAL_TIM_CLEAR_IT(htim, TIM_IT_CC1);
 80018e6:	f06f 0202 	mvn.w	r2, #2
 80018ea:	611a      	str	r2, [r3, #16]
        htim->Channel = HAL_TIM_ACTIVE_CHANNEL_1;
 80018ec:	2201      	movs	r2, #1

        /* Input capture event */
        if ((htim->Instance->CCMR1 & TIM_CCMR1_CC1S) != 0x00U)
 80018ee:	699b      	ldr	r3, [r3, #24]
        htim->Channel = HAL_TIM_ACTIVE_CHANNEL_1;
 80018f0:	7702      	strb	r2, [r0, #28]
        if ((htim->Instance->CCMR1 & TIM_CCMR1_CC1S) != 0x00U)
 80018f2:	0799      	lsls	r1, r3, #30
 80018f4:	f000 8085 	beq.w	8001a02 <HAL_TIM_IRQHandler+0x12e>
        {
#if (USE_HAL_TIM_REGISTER_CALLBACKS == 1)
          htim->IC_CaptureCallback(htim);
#else
          HAL_TIM_IC_CaptureCallback(htim);
 80018f8:	f7ff ffe9 	bl	80018ce <HAL_TIM_IC_CaptureCallback>
#else
          HAL_TIM_OC_DelayElapsedCallback(htim);
          HAL_TIM_PWM_PulseFinishedCallback(htim);
#endif /* USE_HAL_TIM_REGISTER_CALLBACKS */
        }
        htim->Channel = HAL_TIM_ACTIVE_CHANNEL_CLEARED;
 80018fc:	2300      	movs	r3, #0
 80018fe:	7723      	strb	r3, [r4, #28]
      }
    }
  }
  /* Capture compare 2 event */
  if (__HAL_TIM_GET_FLAG(htim, TIM_FLAG_CC2) != RESET)
 8001900:	6823      	ldr	r3, [r4, #0]
 8001902:	691a      	ldr	r2, [r3, #16]
 8001904:	0752      	lsls	r2, r2, #29
 8001906:	d510      	bpl.n	800192a <HAL_TIM_IRQHandler+0x56>
  {
    if (__HAL_TIM_GET_IT_SOURCE(htim, TIM_IT_CC2) != RESET)
 8001908:	68da      	ldr	r2, [r3, #12]
 800190a:	0750      	lsls	r0, r2, #29
 800190c:	d50d      	bpl.n	800192a <HAL_TIM_IRQHandler+0x56>
    {
      __HAL_TIM_CLEAR_IT(htim, TIM_IT_CC2);
 800190e:	f06f 0204 	mvn.w	r2, #4
      if ((htim->Instance->CCMR1 & TIM_CCMR1_CC2S) != 0x00U)
      {
#if (USE_HAL_TIM_REGISTER_CALLBACKS == 1)
        htim->IC_CaptureCallback(htim);
#else
        HAL_TIM_IC_CaptureCallback(htim);
 8001912:	4620      	mov	r0, r4
      __HAL_TIM_CLEAR_IT(htim, TIM_IT_CC2);
 8001914:	611a      	str	r2, [r3, #16]
      htim->Channel = HAL_TIM_ACTIVE_CHANNEL_2;
 8001916:	2202      	movs	r2, #2
      if ((htim->Instance->CCMR1 & TIM_CCMR1_CC2S) != 0x00U)
 8001918:	699b      	ldr	r3, [r3, #24]
      htim->Channel = HAL_TIM_ACTIVE_CHANNEL_2;
 800191a:	7722      	strb	r2, [r4, #28]
      if ((htim->Instance->CCMR1 & TIM_CCMR1_CC2S) != 0x00U)
 800191c:	f413 7f40 	tst.w	r3, #768	; 0x300
 8001920:	d075      	beq.n	8001a0e <HAL_TIM_IRQHandler+0x13a>
        HAL_TIM_IC_CaptureCallback(htim);
 8001922:	f7ff ffd4 	bl	80018ce <HAL_TIM_IC_CaptureCallback>
#else
        HAL_TIM_OC_DelayElapsedCallback(htim);
        HAL_TIM_PWM_PulseFinishedCallback(htim);
#endif /* USE_HAL_TIM_REGISTER_CALLBACKS */
      }
      htim->Channel = HAL_TIM_ACTIVE_CHANNEL_CLEARED;
 8001926:	2300      	movs	r3, #0
 8001928:	7723      	strb	r3, [r4, #28]
    }
  }
  /* Capture compare 3 event */
  if (__HAL_TIM_GET_FLAG(htim, TIM_FLAG_CC3) != RESET)
 800192a:	6823      	ldr	r3, [r4, #0]
 800192c:	691a      	ldr	r2, [r3, #16]
 800192e:	0711      	lsls	r1, r2, #28
 8001930:	d50f      	bpl.n	8001952 <HAL_TIM_IRQHandler+0x7e>
  {
    if (__HAL_TIM_GET_IT_SOURCE(htim, TIM_IT_CC3) != RESET)
 8001932:	68da      	ldr	r2, [r3, #12]
 8001934:	0712      	lsls	r2, r2, #28
 8001936:	d50c      	bpl.n	8001952 <HAL_TIM_IRQHandler+0x7e>
    {
      __HAL_TIM_CLEAR_IT(htim, TIM_IT_CC3);
 8001938:	f06f 0208 	mvn.w	r2, #8
      if ((htim->Instance->CCMR2 & TIM_CCMR2_CC3S) != 0x00U)
      {
#if (USE_HAL_TIM_REGISTER_CALLBACKS == 1)
        htim->IC_CaptureCallback(htim);
#else
        HAL_TIM_IC_CaptureCallback(htim);
 800193c:	4620      	mov	r0, r4
      __HAL_TIM_CLEAR_IT(htim, TIM_IT_CC3);
 800193e:	611a      	str	r2, [r3, #16]
      htim->Channel = HAL_TIM_ACTIVE_CHANNEL_3;
 8001940:	2204      	movs	r2, #4
      if ((htim->Instance->CCMR2 & TIM_CCMR2_CC3S) != 0x00U)
 8001942:	69db      	ldr	r3, [r3, #28]
      htim->Channel = HAL_TIM_ACTIVE_CHANNEL_3;
 8001944:	7722      	strb	r2, [r4, #28]
      if ((htim->Instance->CCMR2 & TIM_CCMR2_CC3S) != 0x00U)
 8001946:	079b      	lsls	r3, r3, #30
 8001948:	d067      	beq.n	8001a1a <HAL_TIM_IRQHandler+0x146>
        HAL_TIM_IC_CaptureCallback(htim);
 800194a:	f7ff ffc0 	bl	80018ce <HAL_TIM_IC_CaptureCallback>
#else
        HAL_TIM_OC_DelayElapsedCallback(htim);
        HAL_TIM_PWM_PulseFinishedCallback(htim);
#endif /* USE_HAL_TIM_REGISTER_CALLBACKS */
      }
      htim->Channel = HAL_TIM_ACTIVE_CHANNEL_CLEARED;
 800194e:	2300      	movs	r3, #0
 8001950:	7723      	strb	r3, [r4, #28]
    }
  }
  /* Capture compare 4 event */
  if (__HAL_TIM_GET_FLAG(htim, TIM_FLAG_CC4) != RESET)
 8001952:	6823      	ldr	r3, [r4, #0]
 8001954:	691a      	ldr	r2, [r3, #16]
 8001956:	06d0      	lsls	r0, r2, #27
 8001958:	d510      	bpl.n	800197c <HAL_TIM_IRQHandler+0xa8>
  {
    if (__HAL_TIM_GET_IT_SOURCE(htim, TIM_IT_CC4) != RESET)
 800195a:	68da      	ldr	r2, [r3, #12]
 800195c:	06d1      	lsls	r1, r2, #27
 800195e:	d50d      	bpl.n	800197c <HAL_TIM_IRQHandler+0xa8>
    {
      __HAL_TIM_CLEAR_IT(htim, TIM_IT_CC4);
 8001960:	f06f 0210 	mvn.w	r2, #16
      if ((htim->Instance->CCMR2 & TIM_CCMR2_CC4S) != 0x00U)
      {
#if (USE_HAL_TIM_REGISTER_CALLBACKS == 1)
        htim->IC_CaptureCallback(htim);
#else
        HAL_TIM_IC_CaptureCallback(htim);
 8001964:	4620      	mov	r0, r4
      __HAL_TIM_CLEAR_IT(htim, TIM_IT_CC4);
 8001966:	611a      	str	r2, [r3, #16]
      htim->Channel = HAL_TIM_ACTIVE_CHANNEL_4;
 8001968:	2208      	movs	r2, #8
      if ((htim->Instance->CCMR2 & TIM_CCMR2_CC4S) != 0x00U)
 800196a:	69db      	ldr	r3, [r3, #28]
      htim->Channel = HAL_TIM_ACTIVE_CHANNEL_4;
 800196c:	7722      	strb	r2, [r4, #28]
      if ((htim->Instance->CCMR2 & TIM_CCMR2_CC4S) != 0x00U)
 800196e:	f413 7f40 	tst.w	r3, #768	; 0x300
 8001972:	d058      	beq.n	8001a26 <HAL_TIM_IRQHandler+0x152>
        HAL_TIM_IC_CaptureCallback(htim);
 8001974:	f7ff ffab 	bl	80018ce <HAL_TIM_IC_CaptureCallback>
#else
        HAL_TIM_OC_DelayElapsedCallback(htim);
        HAL_TIM_PWM_PulseFinishedCallback(htim);
#endif /* USE_HAL_TIM_REGISTER_CALLBACKS */
      }
      htim->Channel = HAL_TIM_ACTIVE_CHANNEL_CLEARED;
 8001978:	2300      	movs	r3, #0
 800197a:	7723      	strb	r3, [r4, #28]
    }
  }
  /* TIM Update event */
  if (__HAL_TIM_GET_FLAG(htim, TIM_FLAG_UPDATE) != RESET)
 800197c:	6823      	ldr	r3, [r4, #0]
 800197e:	691a      	ldr	r2, [r3, #16]
 8001980:	07d2      	lsls	r2, r2, #31
 8001982:	d508      	bpl.n	8001996 <HAL_TIM_IRQHandler+0xc2>
  {
    if (__HAL_TIM_GET_IT_SOURCE(htim, TIM_IT_UPDATE) != RESET)
 8001984:	68da      	ldr	r2, [r3, #12]
 8001986:	07d0      	lsls	r0, r2, #31
 8001988:	d505      	bpl.n	8001996 <HAL_TIM_IRQHandler+0xc2>
    {
      __HAL_TIM_CLEAR_IT(htim, TIM_IT_UPDATE);
 800198a:	f06f 0201 	mvn.w	r2, #1
#if (USE_HAL_TIM_REGISTER_CALLBACKS == 1)
      htim->PeriodElapsedCallback(htim);
#else
      HAL_TIM_PeriodElapsedCallback(htim);
 800198e:	4620      	mov	r0, r4
      __HAL_TIM_CLEAR_IT(htim, TIM_IT_UPDATE);
 8001990:	611a      	str	r2, [r3, #16]
      HAL_TIM_PeriodElapsedCallback(htim);
 8001992:	f000 febb 	bl	800270c <HAL_TIM_PeriodElapsedCallback>
#endif /* USE_HAL_TIM_REGISTER_CALLBACKS */
    }
  }
  /* TIM Break input event */
  if (__HAL_TIM_GET_FLAG(htim, TIM_FLAG_BREAK) != RESET)
 8001996:	6823      	ldr	r3, [r4, #0]
 8001998:	691a      	ldr	r2, [r3, #16]
 800199a:	0611      	lsls	r1, r2, #24
 800199c:	d508      	bpl.n	80019b0 <HAL_TIM_IRQHandler+0xdc>
  {
    if (__HAL_TIM_GET_IT_SOURCE(htim, TIM_IT_BREAK) != RESET)
 800199e:	68da      	ldr	r2, [r3, #12]
 80019a0:	0612      	lsls	r2, r2, #24
 80019a2:	d505      	bpl.n	80019b0 <HAL_TIM_IRQHandler+0xdc>
    {
      __HAL_TIM_CLEAR_IT(htim, TIM_IT_BREAK);
 80019a4:	f06f 0280 	mvn.w	r2, #128	; 0x80
#if (USE_HAL_TIM_REGISTER_CALLBACKS == 1)
      htim->BreakCallback(htim);
#else
      HAL_TIMEx_BreakCallback(htim);
 80019a8:	4620      	mov	r0, r4
      __HAL_TIM_CLEAR_IT(htim, TIM_IT_BREAK);
 80019aa:	611a      	str	r2, [r3, #16]
      HAL_TIMEx_BreakCallback(htim);
 80019ac:	f000 f98d 	bl	8001cca <HAL_TIMEx_BreakCallback>
#endif /* USE_HAL_TIM_REGISTER_CALLBACKS */
    }
  }
  /* TIM Break2 input event */
  if (__HAL_TIM_GET_FLAG(htim, TIM_FLAG_BREAK2) != RESET)
 80019b0:	6823      	ldr	r3, [r4, #0]
 80019b2:	691a      	ldr	r2, [r3, #16]
 80019b4:	05d0      	lsls	r0, r2, #23
 80019b6:	d508      	bpl.n	80019ca <HAL_TIM_IRQHandler+0xf6>
  {
    if (__HAL_TIM_GET_IT_SOURCE(htim, TIM_IT_BREAK) != RESET)
 80019b8:	68da      	ldr	r2, [r3, #12]
 80019ba:	0611      	lsls	r1, r2, #24
 80019bc:	d505      	bpl.n	80019ca <HAL_TIM_IRQHandler+0xf6>
    {
      __HAL_TIM_CLEAR_FLAG(htim, TIM_FLAG_BREAK2);
 80019be:	f46f 7280 	mvn.w	r2, #256	; 0x100
#if (USE_HAL_TIM_REGISTER_CALLBACKS == 1)
      htim->Break2Callback(htim);
#else
      HAL_TIMEx_Break2Callback(htim);
 80019c2:	4620      	mov	r0, r4
      __HAL_TIM_CLEAR_FLAG(htim, TIM_FLAG_BREAK2);
 80019c4:	611a      	str	r2, [r3, #16]
      HAL_TIMEx_Break2Callback(htim);
 80019c6:	f000 f981 	bl	8001ccc <HAL_TIMEx_Break2Callback>
#endif /* USE_HAL_TIM_REGISTER_CALLBACKS */
    }
  }
  /* TIM Trigger detection event */
  if (__HAL_TIM_GET_FLAG(htim, TIM_FLAG_TRIGGER) != RESET)
 80019ca:	6823      	ldr	r3, [r4, #0]
 80019cc:	691a      	ldr	r2, [r3, #16]
 80019ce:	0652      	lsls	r2, r2, #25
 80019d0:	d508      	bpl.n	80019e4 <HAL_TIM_IRQHandler+0x110>
  {
    if (__HAL_TIM_GET_IT_SOURCE(htim, TIM_IT_TRIGGER) != RESET)
 80019d2:	68da      	ldr	r2, [r3, #12]
 80019d4:	0650      	lsls	r0, r2, #25
 80019d6:	d505      	bpl.n	80019e4 <HAL_TIM_IRQHandler+0x110>
    {
      __HAL_TIM_CLEAR_IT(htim, TIM_IT_TRIGGER);
 80019d8:	f06f 0240 	mvn.w	r2, #64	; 0x40
#if (USE_HAL_TIM_REGISTER_CALLBACKS == 1)
      htim->TriggerCallback(htim);
#else
      HAL_TIM_TriggerCallback(htim);
 80019dc:	4620      	mov	r0, r4
      __HAL_TIM_CLEAR_IT(htim, TIM_IT_TRIGGER);
 80019de:	611a      	str	r2, [r3, #16]
      HAL_TIM_TriggerCallback(htim);
 80019e0:	f7ff ff77 	bl	80018d2 <HAL_TIM_TriggerCallback>
#endif /* USE_HAL_TIM_REGISTER_CALLBACKS */
    }
  }
  /* TIM commutation event */
  if (__HAL_TIM_GET_FLAG(htim, TIM_FLAG_COM) != RESET)
 80019e4:	6823      	ldr	r3, [r4, #0]
 80019e6:	691a      	ldr	r2, [r3, #16]
 80019e8:	0691      	lsls	r1, r2, #26
 80019ea:	d522      	bpl.n	8001a32 <HAL_TIM_IRQHandler+0x15e>
  {
    if (__HAL_TIM_GET_IT_SOURCE(htim, TIM_IT_COM) != RESET)
 80019ec:	68da      	ldr	r2, [r3, #12]
 80019ee:	0692      	lsls	r2, r2, #26
 80019f0:	d51f      	bpl.n	8001a32 <HAL_TIM_IRQHandler+0x15e>
    {
      __HAL_TIM_CLEAR_IT(htim, TIM_FLAG_COM);
 80019f2:	f06f 0220 	mvn.w	r2, #32
#if (USE_HAL_TIM_REGISTER_CALLBACKS == 1)
      htim->CommutationCallback(htim);
#else
      HAL_TIMEx_CommutCallback(htim);
 80019f6:	4620      	mov	r0, r4
      __HAL_TIM_CLEAR_IT(htim, TIM_FLAG_COM);
 80019f8:	611a      	str	r2, [r3, #16]
#endif /* USE_HAL_TIM_REGISTER_CALLBACKS */
    }
  }
}
 80019fa:	e8bd 4010 	ldmia.w	sp!, {r4, lr}
      HAL_TIMEx_CommutCallback(htim);
 80019fe:	f000 b963 	b.w	8001cc8 <HAL_TIMEx_CommutCallback>
          HAL_TIM_OC_DelayElapsedCallback(htim);
 8001a02:	f7ff ff63 	bl	80018cc <HAL_TIM_OC_DelayElapsedCallback>
          HAL_TIM_PWM_PulseFinishedCallback(htim);
 8001a06:	4620      	mov	r0, r4
 8001a08:	f7ff ff62 	bl	80018d0 <HAL_TIM_PWM_PulseFinishedCallback>
 8001a0c:	e776      	b.n	80018fc <HAL_TIM_IRQHandler+0x28>
        HAL_TIM_OC_DelayElapsedCallback(htim);
 8001a0e:	f7ff ff5d 	bl	80018cc <HAL_TIM_OC_DelayElapsedCallback>
        HAL_TIM_PWM_PulseFinishedCallback(htim);
 8001a12:	4620      	mov	r0, r4
 8001a14:	f7ff ff5c 	bl	80018d0 <HAL_TIM_PWM_PulseFinishedCallback>
 8001a18:	e785      	b.n	8001926 <HAL_TIM_IRQHandler+0x52>
        HAL_TIM_OC_DelayElapsedCallback(htim);
 8001a1a:	f7ff ff57 	bl	80018cc <HAL_TIM_OC_DelayElapsedCallback>
        HAL_TIM_PWM_PulseFinishedCallback(htim);
 8001a1e:	4620      	mov	r0, r4
 8001a20:	f7ff ff56 	bl	80018d0 <HAL_TIM_PWM_PulseFinishedCallback>
 8001a24:	e793      	b.n	800194e <HAL_TIM_IRQHandler+0x7a>
        HAL_TIM_OC_DelayElapsedCallback(htim);
 8001a26:	f7ff ff51 	bl	80018cc <HAL_TIM_OC_DelayElapsedCallback>
        HAL_TIM_PWM_PulseFinishedCallback(htim);
 8001a2a:	4620      	mov	r0, r4
 8001a2c:	f7ff ff50 	bl	80018d0 <HAL_TIM_PWM_PulseFinishedCallback>
 8001a30:	e7a2      	b.n	8001978 <HAL_TIM_IRQHandler+0xa4>
 8001a32:	bd10      	pop	{r4, pc}

08001a34 <TIM_Base_SetConfig>:
{
  uint32_t tmpcr1;
  tmpcr1 = TIMx->CR1;

  /* Set TIM Time Base Unit parameters ---------------------------------------*/
  if (IS_TIM_COUNTER_MODE_SELECT_INSTANCE(TIMx))
 8001a34:	4a30      	ldr	r2, [pc, #192]	; (8001af8 <TIM_Base_SetConfig+0xc4>)
  tmpcr1 = TIMx->CR1;
 8001a36:	6803      	ldr	r3, [r0, #0]
  if (IS_TIM_COUNTER_MODE_SELECT_INSTANCE(TIMx))
 8001a38:	4290      	cmp	r0, r2
 8001a3a:	d012      	beq.n	8001a62 <TIM_Base_SetConfig+0x2e>
 8001a3c:	f1b0 4f80 	cmp.w	r0, #1073741824	; 0x40000000
 8001a40:	d00f      	beq.n	8001a62 <TIM_Base_SetConfig+0x2e>
 8001a42:	f5a2 427c 	sub.w	r2, r2, #64512	; 0xfc00
 8001a46:	4290      	cmp	r0, r2
 8001a48:	d00b      	beq.n	8001a62 <TIM_Base_SetConfig+0x2e>
 8001a4a:	f502 6280 	add.w	r2, r2, #1024	; 0x400
 8001a4e:	4290      	cmp	r0, r2
 8001a50:	d007      	beq.n	8001a62 <TIM_Base_SetConfig+0x2e>
 8001a52:	f502 6280 	add.w	r2, r2, #1024	; 0x400
 8001a56:	4290      	cmp	r0, r2
 8001a58:	d003      	beq.n	8001a62 <TIM_Base_SetConfig+0x2e>
 8001a5a:	f502 4278 	add.w	r2, r2, #63488	; 0xf800
 8001a5e:	4290      	cmp	r0, r2
 8001a60:	d119      	bne.n	8001a96 <TIM_Base_SetConfig+0x62>
  {
    /* Select the Counter Mode */
    tmpcr1 &= ~(TIM_CR1_DIR | TIM_CR1_CMS);
    tmpcr1 |= Structure->CounterMode;
 8001a62:	684a      	ldr	r2, [r1, #4]
    tmpcr1 &= ~(TIM_CR1_DIR | TIM_CR1_CMS);
 8001a64:	f023 0370 	bic.w	r3, r3, #112	; 0x70
    tmpcr1 |= Structure->CounterMode;
 8001a68:	4313      	orrs	r3, r2
  }

  if (IS_TIM_CLOCK_DIVISION_INSTANCE(TIMx))
 8001a6a:	4a23      	ldr	r2, [pc, #140]	; (8001af8 <TIM_Base_SetConfig+0xc4>)
 8001a6c:	4290      	cmp	r0, r2
 8001a6e:	d029      	beq.n	8001ac4 <TIM_Base_SetConfig+0x90>
 8001a70:	f1b0 4f80 	cmp.w	r0, #1073741824	; 0x40000000
 8001a74:	d026      	beq.n	8001ac4 <TIM_Base_SetConfig+0x90>
 8001a76:	f5a2 427c 	sub.w	r2, r2, #64512	; 0xfc00
 8001a7a:	4290      	cmp	r0, r2
 8001a7c:	d022      	beq.n	8001ac4 <TIM_Base_SetConfig+0x90>
 8001a7e:	f502 6280 	add.w	r2, r2, #1024	; 0x400
 8001a82:	4290      	cmp	r0, r2
 8001a84:	d01e      	beq.n	8001ac4 <TIM_Base_SetConfig+0x90>
 8001a86:	f502 6280 	add.w	r2, r2, #1024	; 0x400
 8001a8a:	4290      	cmp	r0, r2
 8001a8c:	d01a      	beq.n	8001ac4 <TIM_Base_SetConfig+0x90>
 8001a8e:	f502 4278 	add.w	r2, r2, #63488	; 0xf800
 8001a92:	4290      	cmp	r0, r2
 8001a94:	d016      	beq.n	8001ac4 <TIM_Base_SetConfig+0x90>
 8001a96:	4a19      	ldr	r2, [pc, #100]	; (8001afc <TIM_Base_SetConfig+0xc8>)
 8001a98:	4290      	cmp	r0, r2
 8001a9a:	d013      	beq.n	8001ac4 <TIM_Base_SetConfig+0x90>
 8001a9c:	f502 6280 	add.w	r2, r2, #1024	; 0x400
 8001aa0:	4290      	cmp	r0, r2
 8001aa2:	d00f      	beq.n	8001ac4 <TIM_Base_SetConfig+0x90>
 8001aa4:	f502 6280 	add.w	r2, r2, #1024	; 0x400
 8001aa8:	4290      	cmp	r0, r2
 8001aaa:	d00b      	beq.n	8001ac4 <TIM_Base_SetConfig+0x90>
 8001aac:	f5a2 3298 	sub.w	r2, r2, #77824	; 0x13000
 8001ab0:	4290      	cmp	r0, r2
 8001ab2:	d007      	beq.n	8001ac4 <TIM_Base_SetConfig+0x90>
 8001ab4:	f502 6280 	add.w	r2, r2, #1024	; 0x400
 8001ab8:	4290      	cmp	r0, r2
 8001aba:	d003      	beq.n	8001ac4 <TIM_Base_SetConfig+0x90>
 8001abc:	f502 6280 	add.w	r2, r2, #1024	; 0x400
 8001ac0:	4290      	cmp	r0, r2
 8001ac2:	d103      	bne.n	8001acc <TIM_Base_SetConfig+0x98>
  {
    /* Set the clock division */
    tmpcr1 &= ~TIM_CR1_CKD;
 8001ac4:	f423 7340 	bic.w	r3, r3, #768	; 0x300
    tmpcr1 |= (uint32_t)Structure->ClockDivision;
 8001ac8:	68ca      	ldr	r2, [r1, #12]
 8001aca:	4313      	orrs	r3, r2
  }

  /* Set the auto-reload preload */
  MODIFY_REG(tmpcr1, TIM_CR1_ARPE, Structure->AutoReloadPreload);
 8001acc:	694a      	ldr	r2, [r1, #20]
 8001ace:	f023 0380 	bic.w	r3, r3, #128	; 0x80
 8001ad2:	4313      	orrs	r3, r2

  TIMx->CR1 = tmpcr1;
 8001ad4:	6003      	str	r3, [r0, #0]

  /* Set the Autoreload value */
  TIMx->ARR = (uint32_t)Structure->Period ;
 8001ad6:	688b      	ldr	r3, [r1, #8]
 8001ad8:	62c3      	str	r3, [r0, #44]	; 0x2c

  /* Set the Prescaler value */
  TIMx->PSC = Structure->Prescaler;
 8001ada:	680b      	ldr	r3, [r1, #0]
 8001adc:	6283      	str	r3, [r0, #40]	; 0x28

  if (IS_TIM_REPETITION_COUNTER_INSTANCE(TIMx))
 8001ade:	4b06      	ldr	r3, [pc, #24]	; (8001af8 <TIM_Base_SetConfig+0xc4>)
 8001ae0:	4298      	cmp	r0, r3
 8001ae2:	d003      	beq.n	8001aec <TIM_Base_SetConfig+0xb8>
 8001ae4:	f503 6380 	add.w	r3, r3, #1024	; 0x400
 8001ae8:	4298      	cmp	r0, r3
 8001aea:	d101      	bne.n	8001af0 <TIM_Base_SetConfig+0xbc>
  {
    /* Set the Repetition Counter value */
    TIMx->RCR = Structure->RepetitionCounter;
 8001aec:	690b      	ldr	r3, [r1, #16]
 8001aee:	6303      	str	r3, [r0, #48]	; 0x30
  }

  /* Generate an update event to reload the Prescaler
     and the repetition counter (only for advanced timer) value immediately */
  TIMx->EGR = TIM_EGR_UG;
 8001af0:	2301      	movs	r3, #1
 8001af2:	6143      	str	r3, [r0, #20]
 8001af4:	4770      	bx	lr
 8001af6:	bf00      	nop
 8001af8:	40010000 	.word	0x40010000
 8001afc:	40014000 	.word	0x40014000

08001b00 <HAL_TIM_Base_Init>:
{
 8001b00:	b510      	push	{r4, lr}
  if (htim == NULL)
 8001b02:	4604      	mov	r4, r0
 8001b04:	b1a0      	cbz	r0, 8001b30 <HAL_TIM_Base_Init+0x30>
  if (htim->State == HAL_TIM_STATE_RESET)
 8001b06:	f890 303d 	ldrb.w	r3, [r0, #61]	; 0x3d
 8001b0a:	f003 02ff 	and.w	r2, r3, #255	; 0xff
 8001b0e:	b91b      	cbnz	r3, 8001b18 <HAL_TIM_Base_Init+0x18>
    htim->Lock = HAL_UNLOCKED;
 8001b10:	f880 203c 	strb.w	r2, [r0, #60]	; 0x3c
    HAL_TIM_Base_MspInit(htim);
 8001b14:	f000 fe92 	bl	800283c <HAL_TIM_Base_MspInit>
  htim->State = HAL_TIM_STATE_BUSY;
 8001b18:	2302      	movs	r3, #2
  TIM_Base_SetConfig(htim->Instance, &htim->Init);
 8001b1a:	6820      	ldr	r0, [r4, #0]
 8001b1c:	1d21      	adds	r1, r4, #4
  htim->State = HAL_TIM_STATE_BUSY;
 8001b1e:	f884 303d 	strb.w	r3, [r4, #61]	; 0x3d
  TIM_Base_SetConfig(htim->Instance, &htim->Init);
 8001b22:	f7ff ff87 	bl	8001a34 <TIM_Base_SetConfig>
  htim->State = HAL_TIM_STATE_READY;
 8001b26:	2301      	movs	r3, #1
  return HAL_OK;
 8001b28:	2000      	movs	r0, #0
  htim->State = HAL_TIM_STATE_READY;
 8001b2a:	f884 303d 	strb.w	r3, [r4, #61]	; 0x3d
  return HAL_OK;
 8001b2e:	bd10      	pop	{r4, pc}
    return HAL_ERROR;
 8001b30:	2001      	movs	r0, #1
}
 8001b32:	bd10      	pop	{r4, pc}

08001b34 <TIM_ETR_SetConfig>:
  *          This parameter must be a value between 0x00 and 0x0F
  * @retval None
  */
void TIM_ETR_SetConfig(TIM_TypeDef *TIMx, uint32_t TIM_ExtTRGPrescaler,
                       uint32_t TIM_ExtTRGPolarity, uint32_t ExtTRGFilter)
{
 8001b34:	b510      	push	{r4, lr}

  /* Reset the ETR Bits */
  tmpsmcr &= ~(TIM_SMCR_ETF | TIM_SMCR_ETPS | TIM_SMCR_ECE | TIM_SMCR_ETP);

  /* Set the Prescaler, the Filter value and the Polarity */
  tmpsmcr |= (uint32_t)(TIM_ExtTRGPrescaler | (TIM_ExtTRGPolarity | (ExtTRGFilter << 8U)));
 8001b36:	430a      	orrs	r2, r1
  tmpsmcr = TIMx->SMCR;
 8001b38:	6884      	ldr	r4, [r0, #8]
  tmpsmcr |= (uint32_t)(TIM_ExtTRGPrescaler | (TIM_ExtTRGPolarity | (ExtTRGFilter << 8U)));
 8001b3a:	ea42 2303 	orr.w	r3, r2, r3, lsl #8
  tmpsmcr &= ~(TIM_SMCR_ETF | TIM_SMCR_ETPS | TIM_SMCR_ECE | TIM_SMCR_ETP);
 8001b3e:	f424 447f 	bic.w	r4, r4, #65280	; 0xff00
  tmpsmcr |= (uint32_t)(TIM_ExtTRGPrescaler | (TIM_ExtTRGPolarity | (ExtTRGFilter << 8U)));
 8001b42:	4323      	orrs	r3, r4

  /* Write to TIMx SMCR */
  TIMx->SMCR = tmpsmcr;
 8001b44:	6083      	str	r3, [r0, #8]
 8001b46:	bd10      	pop	{r4, pc}

08001b48 <HAL_TIM_ConfigClockSource>:
  __HAL_LOCK(htim);
 8001b48:	f890 303c 	ldrb.w	r3, [r0, #60]	; 0x3c
 8001b4c:	2b01      	cmp	r3, #1
{
 8001b4e:	b570      	push	{r4, r5, r6, lr}
 8001b50:	4604      	mov	r4, r0
 8001b52:	f04f 0002 	mov.w	r0, #2
  __HAL_LOCK(htim);
 8001b56:	d017      	beq.n	8001b88 <HAL_TIM_ConfigClockSource+0x40>
  htim->State = HAL_TIM_STATE_BUSY;
 8001b58:	f884 003d 	strb.w	r0, [r4, #61]	; 0x3d
  __HAL_LOCK(htim);
 8001b5c:	2301      	movs	r3, #1
  tmpsmcr = htim->Instance->SMCR;
 8001b5e:	6820      	ldr	r0, [r4, #0]
  __HAL_LOCK(htim);
 8001b60:	f884 303c 	strb.w	r3, [r4, #60]	; 0x3c
  tmpsmcr = htim->Instance->SMCR;
 8001b64:	6882      	ldr	r2, [r0, #8]
  tmpsmcr &= ~(TIM_SMCR_ETF | TIM_SMCR_ETPS | TIM_SMCR_ECE | TIM_SMCR_ETP);
 8001b66:	4b41      	ldr	r3, [pc, #260]	; (8001c6c <HAL_TIM_ConfigClockSource+0x124>)
 8001b68:	4013      	ands	r3, r2
  htim->Instance->SMCR = tmpsmcr;
 8001b6a:	6083      	str	r3, [r0, #8]
  switch (sClockSourceConfig->ClockSource)
 8001b6c:	680b      	ldr	r3, [r1, #0]
 8001b6e:	2b40      	cmp	r3, #64	; 0x40
 8001b70:	d065      	beq.n	8001c3e <HAL_TIM_ConfigClockSource+0xf6>
 8001b72:	d815      	bhi.n	8001ba0 <HAL_TIM_ConfigClockSource+0x58>
 8001b74:	2b10      	cmp	r3, #16
 8001b76:	d00c      	beq.n	8001b92 <HAL_TIM_ConfigClockSource+0x4a>
 8001b78:	d807      	bhi.n	8001b8a <HAL_TIM_ConfigClockSource+0x42>
 8001b7a:	b153      	cbz	r3, 8001b92 <HAL_TIM_ConfigClockSource+0x4a>
  htim->State = HAL_TIM_STATE_READY;
 8001b7c:	2301      	movs	r3, #1
  __HAL_UNLOCK(htim);
 8001b7e:	2000      	movs	r0, #0
  htim->State = HAL_TIM_STATE_READY;
 8001b80:	f884 303d 	strb.w	r3, [r4, #61]	; 0x3d
  __HAL_UNLOCK(htim);
 8001b84:	f884 003c 	strb.w	r0, [r4, #60]	; 0x3c
}
 8001b88:	bd70      	pop	{r4, r5, r6, pc}
  switch (sClockSourceConfig->ClockSource)
 8001b8a:	2b20      	cmp	r3, #32
 8001b8c:	d001      	beq.n	8001b92 <HAL_TIM_ConfigClockSource+0x4a>
 8001b8e:	2b30      	cmp	r3, #48	; 0x30
 8001b90:	d1f4      	bne.n	8001b7c <HAL_TIM_ConfigClockSource+0x34>
  tmpsmcr = TIMx->SMCR;
 8001b92:	6882      	ldr	r2, [r0, #8]
  tmpsmcr |= (InputTriggerSource | TIM_SLAVEMODE_EXTERNAL1);
 8001b94:	f043 0307 	orr.w	r3, r3, #7
  tmpsmcr &= ~TIM_SMCR_TS;
 8001b98:	f022 0270 	bic.w	r2, r2, #112	; 0x70
  tmpsmcr |= (InputTriggerSource | TIM_SLAVEMODE_EXTERNAL1);
 8001b9c:	4313      	orrs	r3, r2
 8001b9e:	e01a      	b.n	8001bd6 <HAL_TIM_ConfigClockSource+0x8e>
  switch (sClockSourceConfig->ClockSource)
 8001ba0:	2b60      	cmp	r3, #96	; 0x60
 8001ba2:	d034      	beq.n	8001c0e <HAL_TIM_ConfigClockSource+0xc6>
 8001ba4:	d819      	bhi.n	8001bda <HAL_TIM_ConfigClockSource+0x92>
 8001ba6:	2b50      	cmp	r3, #80	; 0x50
 8001ba8:	d1e8      	bne.n	8001b7c <HAL_TIM_ConfigClockSource+0x34>
      TIM_TI1_ConfigInputStage(htim->Instance,
 8001baa:	684a      	ldr	r2, [r1, #4]
 8001bac:	68ce      	ldr	r6, [r1, #12]
  tmpccer = TIMx->CCER;
 8001bae:	6a01      	ldr	r1, [r0, #32]
  TIMx->CCER &= ~TIM_CCER_CC1E;
 8001bb0:	6a05      	ldr	r5, [r0, #32]
  tmpccer &= ~(TIM_CCER_CC1P | TIM_CCER_CC1NP);
 8001bb2:	f021 010a 	bic.w	r1, r1, #10
  TIMx->CCER &= ~TIM_CCER_CC1E;
 8001bb6:	f025 0501 	bic.w	r5, r5, #1
  tmpccer |= TIM_ICPolarity;
 8001bba:	430a      	orrs	r2, r1
  TIMx->CCER &= ~TIM_CCER_CC1E;
 8001bbc:	6205      	str	r5, [r0, #32]
  tmpccmr1 = TIMx->CCMR1;
 8001bbe:	6983      	ldr	r3, [r0, #24]
  tmpccmr1 &= ~TIM_CCMR1_IC1F;
 8001bc0:	f023 03f0 	bic.w	r3, r3, #240	; 0xf0
  tmpccmr1 |= (TIM_ICFilter << 4U);
 8001bc4:	ea43 1306 	orr.w	r3, r3, r6, lsl #4
  TIMx->CCMR1 = tmpccmr1;
 8001bc8:	6183      	str	r3, [r0, #24]
  TIMx->CCER = tmpccer;
 8001bca:	6202      	str	r2, [r0, #32]
  tmpsmcr = TIMx->SMCR;
 8001bcc:	6883      	ldr	r3, [r0, #8]
  tmpsmcr &= ~TIM_SMCR_TS;
 8001bce:	f023 0370 	bic.w	r3, r3, #112	; 0x70
  tmpsmcr |= (InputTriggerSource | TIM_SLAVEMODE_EXTERNAL1);
 8001bd2:	f043 0357 	orr.w	r3, r3, #87	; 0x57
  TIMx->SMCR = tmpsmcr;
 8001bd6:	6083      	str	r3, [r0, #8]
 8001bd8:	e7d0      	b.n	8001b7c <HAL_TIM_ConfigClockSource+0x34>
  switch (sClockSourceConfig->ClockSource)
 8001bda:	2b70      	cmp	r3, #112	; 0x70
 8001bdc:	d00c      	beq.n	8001bf8 <HAL_TIM_ConfigClockSource+0xb0>
 8001bde:	f5b3 5f00 	cmp.w	r3, #8192	; 0x2000
 8001be2:	d1cb      	bne.n	8001b7c <HAL_TIM_ConfigClockSource+0x34>
      TIM_ETR_SetConfig(htim->Instance,
 8001be4:	68cb      	ldr	r3, [r1, #12]
 8001be6:	684a      	ldr	r2, [r1, #4]
 8001be8:	6889      	ldr	r1, [r1, #8]
 8001bea:	f7ff ffa3 	bl	8001b34 <TIM_ETR_SetConfig>
      htim->Instance->SMCR |= TIM_SMCR_ECE;
 8001bee:	6822      	ldr	r2, [r4, #0]
 8001bf0:	6893      	ldr	r3, [r2, #8]
 8001bf2:	f443 4380 	orr.w	r3, r3, #16384	; 0x4000
 8001bf6:	e008      	b.n	8001c0a <HAL_TIM_ConfigClockSource+0xc2>
      TIM_ETR_SetConfig(htim->Instance,
 8001bf8:	68cb      	ldr	r3, [r1, #12]
 8001bfa:	684a      	ldr	r2, [r1, #4]
 8001bfc:	6889      	ldr	r1, [r1, #8]
 8001bfe:	f7ff ff99 	bl	8001b34 <TIM_ETR_SetConfig>
      tmpsmcr = htim->Instance->SMCR;
 8001c02:	6822      	ldr	r2, [r4, #0]
 8001c04:	6893      	ldr	r3, [r2, #8]
      tmpsmcr |= (TIM_SLAVEMODE_EXTERNAL1 | TIM_CLOCKSOURCE_ETRMODE1);
 8001c06:	f043 0377 	orr.w	r3, r3, #119	; 0x77
      htim->Instance->SMCR |= TIM_SMCR_ECE;
 8001c0a:	6093      	str	r3, [r2, #8]
      break;
 8001c0c:	e7b6      	b.n	8001b7c <HAL_TIM_ConfigClockSource+0x34>
      TIM_TI2_ConfigInputStage(htim->Instance,
 8001c0e:	684d      	ldr	r5, [r1, #4]
 8001c10:	68ce      	ldr	r6, [r1, #12]
  TIMx->CCER &= ~TIM_CCER_CC2E;
 8001c12:	6a01      	ldr	r1, [r0, #32]
 8001c14:	f021 0110 	bic.w	r1, r1, #16
 8001c18:	6201      	str	r1, [r0, #32]
  tmpccmr1 = TIMx->CCMR1;
 8001c1a:	6982      	ldr	r2, [r0, #24]
  tmpccer = TIMx->CCER;
 8001c1c:	6a03      	ldr	r3, [r0, #32]
  tmpccmr1 &= ~TIM_CCMR1_IC2F;
 8001c1e:	f422 4270 	bic.w	r2, r2, #61440	; 0xf000
  tmpccer &= ~(TIM_CCER_CC2P | TIM_CCER_CC2NP);
 8001c22:	f023 03a0 	bic.w	r3, r3, #160	; 0xa0
  tmpccmr1 |= (TIM_ICFilter << 12U);
 8001c26:	ea42 3206 	orr.w	r2, r2, r6, lsl #12
  tmpccer |= (TIM_ICPolarity << 4U);
 8001c2a:	ea43 1305 	orr.w	r3, r3, r5, lsl #4
  TIMx->CCMR1 = tmpccmr1 ;
 8001c2e:	6182      	str	r2, [r0, #24]
  TIMx->CCER = tmpccer;
 8001c30:	6203      	str	r3, [r0, #32]
  tmpsmcr = TIMx->SMCR;
 8001c32:	6883      	ldr	r3, [r0, #8]
  tmpsmcr &= ~TIM_SMCR_TS;
 8001c34:	f023 0370 	bic.w	r3, r3, #112	; 0x70
  tmpsmcr |= (InputTriggerSource | TIM_SLAVEMODE_EXTERNAL1);
 8001c38:	f043 0367 	orr.w	r3, r3, #103	; 0x67
 8001c3c:	e7cb      	b.n	8001bd6 <HAL_TIM_ConfigClockSource+0x8e>
      TIM_TI1_ConfigInputStage(htim->Instance,
 8001c3e:	684a      	ldr	r2, [r1, #4]
 8001c40:	68ce      	ldr	r6, [r1, #12]
  tmpccer = TIMx->CCER;
 8001c42:	6a01      	ldr	r1, [r0, #32]
  TIMx->CCER &= ~TIM_CCER_CC1E;
 8001c44:	6a05      	ldr	r5, [r0, #32]
  tmpccer &= ~(TIM_CCER_CC1P | TIM_CCER_CC1NP);
 8001c46:	f021 010a 	bic.w	r1, r1, #10
  TIMx->CCER &= ~TIM_CCER_CC1E;
 8001c4a:	f025 0501 	bic.w	r5, r5, #1
  tmpccer |= TIM_ICPolarity;
 8001c4e:	430a      	orrs	r2, r1
  TIMx->CCER &= ~TIM_CCER_CC1E;
 8001c50:	6205      	str	r5, [r0, #32]
  tmpccmr1 = TIMx->CCMR1;
 8001c52:	6983      	ldr	r3, [r0, #24]
  tmpccmr1 &= ~TIM_CCMR1_IC1F;
 8001c54:	f023 03f0 	bic.w	r3, r3, #240	; 0xf0
  tmpccmr1 |= (TIM_ICFilter << 4U);
 8001c58:	ea43 1306 	orr.w	r3, r3, r6, lsl #4
  TIMx->CCMR1 = tmpccmr1;
 8001c5c:	6183      	str	r3, [r0, #24]
  TIMx->CCER = tmpccer;
 8001c5e:	6202      	str	r2, [r0, #32]
  tmpsmcr = TIMx->SMCR;
 8001c60:	6883      	ldr	r3, [r0, #8]
  tmpsmcr &= ~TIM_SMCR_TS;
 8001c62:	f023 0370 	bic.w	r3, r3, #112	; 0x70
  tmpsmcr |= (InputTriggerSource | TIM_SLAVEMODE_EXTERNAL1);
 8001c66:	f043 0347 	orr.w	r3, r3, #71	; 0x47
 8001c6a:	e7b4      	b.n	8001bd6 <HAL_TIM_ConfigClockSource+0x8e>
 8001c6c:	fffe0088 	.word	0xfffe0088

08001c70 <HAL_TIMEx_MasterConfigSynchronization>:
  assert_param(IS_TIM_SYNCHRO_INSTANCE(htim->Instance));
  assert_param(IS_TIM_TRGO_SOURCE(sMasterConfig->MasterOutputTrigger));
  assert_param(IS_TIM_MSM_STATE(sMasterConfig->MasterSlaveMode));

  /* Check input state */
  __HAL_LOCK(htim);
 8001c70:	f890 303c 	ldrb.w	r3, [r0, #60]	; 0x3c
 8001c74:	2b01      	cmp	r3, #1
 8001c76:	f04f 0302 	mov.w	r3, #2
{
 8001c7a:	b530      	push	{r4, r5, lr}
  __HAL_LOCK(htim);
 8001c7c:	d01f      	beq.n	8001cbe <HAL_TIMEx_MasterConfigSynchronization+0x4e>

  /* Change the handler state */
  htim->State = HAL_TIM_STATE_BUSY;

  /* Get the TIMx CR2 register value */
  tmpcr2 = htim->Instance->CR2;
 8001c7e:	6802      	ldr	r2, [r0, #0]

  /* Get the TIMx SMCR register value */
  tmpsmcr = htim->Instance->SMCR;

  /* If the timer supports ADC synchronization through TRGO2, set the master mode selection 2 */
  if (IS_TIM_TRGO2_INSTANCE(htim->Instance))
 8001c80:	4d10      	ldr	r5, [pc, #64]	; (8001cc4 <HAL_TIMEx_MasterConfigSynchronization+0x54>)
  htim->State = HAL_TIM_STATE_BUSY;
 8001c82:	f880 303d 	strb.w	r3, [r0, #61]	; 0x3d
  if (IS_TIM_TRGO2_INSTANCE(htim->Instance))
 8001c86:	42aa      	cmp	r2, r5
  tmpcr2 = htim->Instance->CR2;
 8001c88:	6853      	ldr	r3, [r2, #4]
  tmpsmcr = htim->Instance->SMCR;
 8001c8a:	6894      	ldr	r4, [r2, #8]
  if (IS_TIM_TRGO2_INSTANCE(htim->Instance))
 8001c8c:	d003      	beq.n	8001c96 <HAL_TIMEx_MasterConfigSynchronization+0x26>
 8001c8e:	f505 6580 	add.w	r5, r5, #1024	; 0x400
 8001c92:	42aa      	cmp	r2, r5
 8001c94:	d103      	bne.n	8001c9e <HAL_TIMEx_MasterConfigSynchronization+0x2e>
  {
    /* Check the parameters */
    assert_param(IS_TIM_TRGO2_SOURCE(sMasterConfig->MasterOutputTrigger2));

    /* Clear the MMS2 bits */
    tmpcr2 &= ~TIM_CR2_MMS2;
 8001c96:	f423 0370 	bic.w	r3, r3, #15728640	; 0xf00000
    /* Select the TRGO2 source*/
    tmpcr2 |= sMasterConfig->MasterOutputTrigger2;
 8001c9a:	684d      	ldr	r5, [r1, #4]
 8001c9c:	432b      	orrs	r3, r5
  }

  /* Reset the MMS Bits */
  tmpcr2 &= ~TIM_CR2_MMS;
  /* Select the TRGO source */
  tmpcr2 |=  sMasterConfig->MasterOutputTrigger;
 8001c9e:	680d      	ldr	r5, [r1, #0]
  tmpcr2 &= ~TIM_CR2_MMS;
 8001ca0:	f023 0370 	bic.w	r3, r3, #112	; 0x70

  /* Reset the MSM Bit */
  tmpsmcr &= ~TIM_SMCR_MSM;
  /* Set master mode */
  tmpsmcr |= sMasterConfig->MasterSlaveMode;
 8001ca4:	6889      	ldr	r1, [r1, #8]
  tmpsmcr &= ~TIM_SMCR_MSM;
 8001ca6:	f024 0480 	bic.w	r4, r4, #128	; 0x80
  tmpcr2 |=  sMasterConfig->MasterOutputTrigger;
 8001caa:	432b      	orrs	r3, r5
  tmpsmcr |= sMasterConfig->MasterSlaveMode;
 8001cac:	4321      	orrs	r1, r4

  /* Update TIMx CR2 */
  htim->Instance->CR2 = tmpcr2;
 8001cae:	6053      	str	r3, [r2, #4]

  /* Update TIMx SMCR */
  htim->Instance->SMCR = tmpsmcr;

  /* Change the htim state */
  htim->State = HAL_TIM_STATE_READY;
 8001cb0:	2301      	movs	r3, #1
  htim->Instance->SMCR = tmpsmcr;
 8001cb2:	6091      	str	r1, [r2, #8]
  htim->State = HAL_TIM_STATE_READY;
 8001cb4:	f880 303d 	strb.w	r3, [r0, #61]	; 0x3d

  __HAL_UNLOCK(htim);
 8001cb8:	2300      	movs	r3, #0
 8001cba:	f880 303c 	strb.w	r3, [r0, #60]	; 0x3c
  __HAL_LOCK(htim);
 8001cbe:	4618      	mov	r0, r3

  return HAL_OK;
}
 8001cc0:	bd30      	pop	{r4, r5, pc}
 8001cc2:	bf00      	nop
 8001cc4:	40010000 	.word	0x40010000

08001cc8 <HAL_TIMEx_CommutCallback>:
 8001cc8:	4770      	bx	lr

08001cca <HAL_TIMEx_BreakCallback>:
 8001cca:	4770      	bx	lr

08001ccc <HAL_TIMEx_Break2Callback>:
  * @brief  Hall Break2 detection callback in non blocking mode
  * @param  htim: TIM handle
  * @retval None
  */
__weak void HAL_TIMEx_Break2Callback(TIM_HandleTypeDef *htim)
{
 8001ccc:	4770      	bx	lr
	...

08001cd0 <UART_SetConfig>:
  * @brief Configure the UART peripheral.
  * @param huart UART handle.
  * @retval HAL status
  */
HAL_StatusTypeDef UART_SetConfig(UART_HandleTypeDef *huart)
{
 8001cd0:	b538      	push	{r3, r4, r5, lr}
  *  the UART Word Length, Parity, Mode and oversampling:
  *  set the M bits according to huart->Init.WordLength value
  *  set PCE and PS bits according to huart->Init.Parity value
  *  set TE and RE bits according to huart->Init.Mode value
  *  set OVER8 bit according to huart->Init.OverSampling value */
  tmpreg = (uint32_t)huart->Init.WordLength | huart->Init.Parity | huart->Init.Mode | huart->Init.OverSampling ;
 8001cd2:	69c2      	ldr	r2, [r0, #28]
{
 8001cd4:	4604      	mov	r4, r0
  MODIFY_REG(huart->Instance->CR1, USART_CR1_FIELDS, tmpreg);
 8001cd6:	6803      	ldr	r3, [r0, #0]
  tmpreg = (uint32_t)huart->Init.WordLength | huart->Init.Parity | huart->Init.Mode | huart->Init.OverSampling ;
 8001cd8:	6881      	ldr	r1, [r0, #8]
 8001cda:	6900      	ldr	r0, [r0, #16]
  MODIFY_REG(huart->Instance->CR1, USART_CR1_FIELDS, tmpreg);
 8001cdc:	681d      	ldr	r5, [r3, #0]
  tmpreg = (uint32_t)huart->Init.WordLength | huart->Init.Parity | huart->Init.Mode | huart->Init.OverSampling ;
 8001cde:	4301      	orrs	r1, r0
 8001ce0:	6960      	ldr	r0, [r4, #20]
 8001ce2:	4301      	orrs	r1, r0
  MODIFY_REG(huart->Instance->CR1, USART_CR1_FIELDS, tmpreg);
 8001ce4:	4890      	ldr	r0, [pc, #576]	; (8001f28 <UART_SetConfig+0x258>)
  tmpreg = (uint32_t)huart->Init.WordLength | huart->Init.Parity | huart->Init.Mode | huart->Init.OverSampling ;
 8001ce6:	4311      	orrs	r1, r2
  MODIFY_REG(huart->Instance->CR1, USART_CR1_FIELDS, tmpreg);
 8001ce8:	4028      	ands	r0, r5
  *   to huart->Init.HwFlowCtl value
  * - one-bit sampling method versus three samples' majority rule according
  *   to huart->Init.OneBitSampling (not applicable to LPUART) */
  tmpreg = (uint32_t)huart->Init.HwFlowCtl;

  tmpreg |= huart->Init.OneBitSampling;
 8001cea:	6a25      	ldr	r5, [r4, #32]
  MODIFY_REG(huart->Instance->CR1, USART_CR1_FIELDS, tmpreg);
 8001cec:	4301      	orrs	r1, r0
  MODIFY_REG(huart->Instance->CR2, USART_CR2_STOP, huart->Init.StopBits);
 8001cee:	68e0      	ldr	r0, [r4, #12]
  MODIFY_REG(huart->Instance->CR1, USART_CR1_FIELDS, tmpreg);
 8001cf0:	6019      	str	r1, [r3, #0]
  MODIFY_REG(huart->Instance->CR2, USART_CR2_STOP, huart->Init.StopBits);
 8001cf2:	6859      	ldr	r1, [r3, #4]
 8001cf4:	f421 5140 	bic.w	r1, r1, #12288	; 0x3000
 8001cf8:	4301      	orrs	r1, r0
 8001cfa:	6059      	str	r1, [r3, #4]
  tmpreg = (uint32_t)huart->Init.HwFlowCtl;
 8001cfc:	69a1      	ldr	r1, [r4, #24]
  MODIFY_REG(huart->Instance->CR3, USART_CR3_FIELDS, tmpreg);
 8001cfe:	6898      	ldr	r0, [r3, #8]
  tmpreg |= huart->Init.OneBitSampling;
 8001d00:	4329      	orrs	r1, r5
  MODIFY_REG(huart->Instance->CR3, USART_CR3_FIELDS, tmpreg);
 8001d02:	f420 6030 	bic.w	r0, r0, #2816	; 0xb00
 8001d06:	4301      	orrs	r1, r0
 8001d08:	6099      	str	r1, [r3, #8]


  /*-------------------------- USART BRR Configuration -----------------------*/
  UART_GETCLOCKSOURCE(huart, clocksource);
 8001d0a:	4988      	ldr	r1, [pc, #544]	; (8001f2c <UART_SetConfig+0x25c>)
 8001d0c:	428b      	cmp	r3, r1
 8001d0e:	d117      	bne.n	8001d40 <UART_SetConfig+0x70>
 8001d10:	4b87      	ldr	r3, [pc, #540]	; (8001f30 <UART_SetConfig+0x260>)
 8001d12:	4988      	ldr	r1, [pc, #544]	; (8001f34 <UART_SetConfig+0x264>)
 8001d14:	f8d3 3090 	ldr.w	r3, [r3, #144]	; 0x90
 8001d18:	f003 0303 	and.w	r3, r3, #3

  if (huart->Init.OverSampling == UART_OVERSAMPLING_8)
 8001d1c:	f5b2 4f00 	cmp.w	r2, #32768	; 0x8000
 8001d20:	5ccb      	ldrb	r3, [r1, r3]
 8001d22:	d129      	bne.n	8001d78 <UART_SetConfig+0xa8>
  {
    switch (clocksource)
 8001d24:	2b08      	cmp	r3, #8
 8001d26:	f200 809d 	bhi.w	8001e64 <UART_SetConfig+0x194>
 8001d2a:	e8df f013 	tbh	[pc, r3, lsl #1]
 8001d2e:	008c      	.short	0x008c
 8001d30:	00ee00e8 	.word	0x00ee00e8
 8001d34:	00fa009b 	.word	0x00fa009b
 8001d38:	009b009b 	.word	0x009b009b
 8001d3c:	0076009b 	.word	0x0076009b
  UART_GETCLOCKSOURCE(huart, clocksource);
 8001d40:	497d      	ldr	r1, [pc, #500]	; (8001f38 <UART_SetConfig+0x268>)
 8001d42:	428b      	cmp	r3, r1
 8001d44:	d106      	bne.n	8001d54 <UART_SetConfig+0x84>
 8001d46:	4b7a      	ldr	r3, [pc, #488]	; (8001f30 <UART_SetConfig+0x260>)
 8001d48:	497c      	ldr	r1, [pc, #496]	; (8001f3c <UART_SetConfig+0x26c>)
 8001d4a:	f8d3 3090 	ldr.w	r3, [r3, #144]	; 0x90
 8001d4e:	f003 030c 	and.w	r3, r3, #12
 8001d52:	e7e3      	b.n	8001d1c <UART_SetConfig+0x4c>
 8001d54:	497a      	ldr	r1, [pc, #488]	; (8001f40 <UART_SetConfig+0x270>)
 8001d56:	428b      	cmp	r3, r1
 8001d58:	d11d      	bne.n	8001d96 <UART_SetConfig+0xc6>
 8001d5a:	4b75      	ldr	r3, [pc, #468]	; (8001f30 <UART_SetConfig+0x260>)
 8001d5c:	f8d3 3090 	ldr.w	r3, [r3, #144]	; 0x90
 8001d60:	f003 0330 	and.w	r3, r3, #48	; 0x30
 8001d64:	2b10      	cmp	r3, #16
 8001d66:	f000 80d9 	beq.w	8001f1c <UART_SetConfig+0x24c>
 8001d6a:	d80e      	bhi.n	8001d8a <UART_SetConfig+0xba>
 8001d6c:	2b00      	cmp	r3, #0
 8001d6e:	d067      	beq.n	8001e40 <UART_SetConfig+0x170>
  if (huart->Init.OverSampling == UART_OVERSAMPLING_8)
 8001d70:	f5b2 4f00 	cmp.w	r2, #32768	; 0x8000
 8001d74:	d076      	beq.n	8001e64 <UART_SetConfig+0x194>
 8001d76:	2310      	movs	r3, #16
      ret = HAL_ERROR;
    }
  }
  else
  {
    switch (clocksource)
 8001d78:	2b08      	cmp	r3, #8
 8001d7a:	d873      	bhi.n	8001e64 <UART_SetConfig+0x194>
 8001d7c:	e8df f003 	tbb	[pc, r3]
 8001d80:	72a29f99 	.word	0x72a29f99
 8001d84:	727272b4 	.word	0x727272b4
 8001d88:	b7          	.byte	0xb7
 8001d89:	00          	.byte	0x00
  UART_GETCLOCKSOURCE(huart, clocksource);
 8001d8a:	2b20      	cmp	r3, #32
 8001d8c:	f000 80ba 	beq.w	8001f04 <UART_SetConfig+0x234>
